:020000040800F2
:10000000200C0020A1010008432800080D1C000856
:100010004128000863090008672E0008000000005E
:100020000000000000000000000000005729000848
:10003000650900080000000055290008592900083A
:10004000BB010008BB010008BB010008BB010008A0
:10005000BB010008BB010008BB010008BB01000890
:10006000BB010008BB010008BB010008BB01000880
:10007000BB010008BB010008BB010008BB01000870
:10008000BB010008BB010008BB010008BB01000860
:10009000BB010008BB010008BB010008BB01000850
:1000A000BB010008BB010008BB010008BB01000840
:1000B000BB010008BB010008BB010008BB01000830
:1000C000BB010008BB010008BB010008BB01000820
:1000D000BB010008BB010008BB010008BB01000810
:1000E000BB010008BB010008BB010008BB01000800
:1000F000BB010008BB010008BB010008BB010008F0
:10010000BB010008BB010008BB010008BB010008DF
:10011000BB010008BB010008BB010008BB010008CF
:10012000BB010008BB010008BB010008BB010008BF
:10013000BB010008BB010008BB010008BB010008AF
:10014000BB010008BB010008BB010008BB0100089F
:10015000BB010008BB010008BB010008BB0100088F
:10016000BB010008BB010008BB010008BB0100087F
:10017000BB010008BB010008BB0100080000000033
:10018000BB010008BB010008DFF810D000F086FBBF
:1001900000480047C1500008AFF30080200C002049
:1001A0000648804706480047FEE7FEE7FEE7FEE711
:1001B000FEE7FEE7FEE7FEE7FEE7FEE7F1290008BF
:1001C000890100082DE9F05F0546002092469B4614
:1001D00088460646814640241BE02846414647465D
:1001E000224600F05DFA53465A46C01A914110D398
:1001F00011461846224600F044FA2D1A67EB010812
:100200004F4622460120002100F03BFA17EB00097F
:100210004E41201EA4F10104DFDC484631462A4647
:100220004346BDE8F09F2DE9F0410024061B25461A
:1002300071F1000605DA01240027D0EB070067EB17
:100240000101161E73F1000605DA0027D2EB070242
:10025000012567EB0303FFF7B5FF86460E461746F9
:100260009C46AC4204D00025D0EB050E65EB0106A0
:1002700024B10020D2EB000760EB030C704631463E
:100280003A466346BDE8F081D2B201E000F8012BA6
:10029000491EFBD270470022F6E710B513460A4606
:1002A00004461946FFF7F0FF204610BD30B504465E
:1002B0000020034600E05B1C934203D2E05CCD5C6F
:1002C000401BF8D030BD2DE9FE4F804681EA030087
:1002D000C00F0C46009021F0004123F00045B8EB20
:1002E0000200A94105D24046214690461C460B46D5
:1002F000024623F00040104347D0270DC7F30A0001
:10030000C3F30A510290401A019040286BDAC3F3FC
:10031000130040F4801B0098924620B10023D2EBDA
:10032000030A63EB0B0B01985946C0F1400250469B
:1003300000F0A7F906460D4650465946019A00F0CE
:10034000BFF910EB08006141002487EA115284EAEA
:10035000E7731A4340D0009A62B3019A012A4FEA28
:10036000075215DC001B61EB02014FF0004202EA6C
:100370000752CDE90042001C41F5801132462B4660
:1003800000F0F6F903B0BDE8F08F40462146F9E7EA
:10039000001B61EB0201001C41F5801300185B415A
:1003A0002018A2F5001747EB030140EAD570B619F3
:1003B0006D4111E06D084FEA360645EAC0754FEA17
:1003C0000752001B61EB0201001C41F58011490836
:1003D0004FEA30000019514132462B4603B0BDE8C8
:1003E000F04F00F0B6B90098012240000023D0EB96
:1003F000020263EBE073009821464FEAE074B8EB29
:10040000000061EB0401E9E783F000435BE781F062
:10041000004158E72DE9FE4F81EA030404F000444F
:1004200021F0004100944FF0000B23F0004350EA0C
:1004300001045ED052EA03045BD0C3F30A54C1F353
:100440000A552C44A4F2F3340194A0FB0254C1F3E6
:10045000130141F48011C3F3130343F4801301FB30
:10046000024400FB034E840A970A44EA815447EA97
:100470008357A4FB076802958D0A05FB07854FEAA1
:10048000932C04FB0C542705029D4FEA065847EABB
:100490001637B5EB08056EEB070C870E920E47EA90
:1004A000811742EA8312A7FB0201B6EB0B0164EB52
:1004B00000042B0D43EA0C335E1844EB1C50DA4663
:1004C0005146E7FB0201C5F313044FEA0B3343EA3D
:1004D00014534FEA0432019C43EA0603A4F10C04CE
:1004E0000294009CCDE900B400F042F903B0BDE8ED
:1004F000F08F00200146F9E72DE9F04D81EA030471
:1005000004F0004B21F0004514464FF0000A23F0A0
:10051000004150EA050220D054EA01021DD0C5F383
:100520000A570246C5F31303C1F31300C1F30A5679
:1005300040F4801543F48013A7EB0608101BD64641
:1005400008F2FD3873EB050002D308F1010801E061
:1005500092185B41B8F1000F03DA00200146BDE8B4
:10056000F08D00204FF48011064684460EE0171BE4
:1005700073EB050705D3121B63EB050306434CEA37
:10058000010C49084FEA300092185B4150EA01071C
:10059000EDD152EA030012D082EA040083EA050199
:1005A000084305D0101BAB4106D20122002306E010
:1005B00000224FF0004302E06FF0010253101AEBEB
:1005C00006004CEB085110EB0A0041EB0B01BDE8B3
:1005D000F04D00F0BEB80EB5C10F80EAE0700844DF
:1005E000CA07002140F233438DE80E000A460B464D
:1005F00000F0BEF803B000BD00F0004230F0004053
:100600000AD0C10D01F56071C0F3160042EA015134
:10061000C20840071143704700200146704701F0AF
:10062000004330B421F0004150EA010206D00A0D27
:10063000A2F56072C1F31301002A02DC30BC002075
:100640007047440F44EAC104C100E01830BC00EB1D
:10065000C25000F047B830B50B46014600202022BA
:10066000012409E021FA02F59D4205D303FA02F5BF
:10067000491B04FA02F52844151EA2F10102F1DC1F
:1006800030BD202A04DB203A00FA02F10020704736
:100690009140C2F1200320FA03F3194390407047C0
:1006A000202A04DB203A21FA02F00021704721FAC7
:1006B00002F3D040C2F1200291400843194670472E
:1006C000202A06DBCB17203A41FA02F043EAE07316
:1006D00006E041FA02F3D040C2F120029140084303
:1006E000194670470029A8BF7047401C490008BF41
:1006F00020F00100704710B4B0FA80FC00FA0CF052
:1007000050EA010404BF10BC704749B1CCF1200489
:1007100021FA04F411FA0CF118BF01212143084316
:10072000A3EB0C01CB1D4FEA00614FEA102042BF42
:10073000002010BC704700EBC35010440029A4BF38
:1007400010BC7047401C490008BF20F0010010BCDD
:10075000704710B5141E73F1000408DA401C41F113
:10076000000192185B411A4301D120F0010010BD35
:100770002DE9F04D92469B4611B1B1FA81F202E0AB
:10078000B0FA80F220329046FFF77BFF04460F4616
:1007900040EA0A0041EA0B0153465A46084313D087
:1007A000114653EA010019D0C8F140025046FFF744
:1007B00077FF05460E46504659464246FFF761FF11
:1007C000084305D0012004E020463946BDE8F08DFD
:1007D0000020054346EAE0762C4337430A98630538
:1007E000E40AA0EB08000022FD0A44EA47540A305C
:1007F00002D500200146E9E7010510196941DDE94C
:10080000084500196941BDE8F04DA2E7C1F30A525D
:10081000C1F3130140F2FF3341F480119A4202DA2E
:1008200000200146704740F233439A42A2F233421D
:1008300002DC5242FFF734BFFFF723BF30B5041E7E
:1008400071F1000404DB4FF00044404264EB01010D
:10085000141E73F1000405DB1C464FF000435242A6
:1008600063EB04038B4208BF824230BD30B5041EE7
:1008700071F1000404DB4FF00044404264EB0101DD
:10088000141E73F1000405DB1C464FF00043524276
:1008900063EB0403994208BF904230BD064C074DFC
:1008A00006E0E06840F0010394E807009847103440
:1008B000AC42F6D3FFF76CFC388D0008588D000869
:1008C0002DE9F04D00231A461B1A8A4103DB002054
:1008D0000146BDE8F08DC1F30A52C1F3130141F4A2
:1008E00080154FF0000BD10702D100186D41521E48
:1008F0000027044640F2FF11384601EB620A3E46EB
:100900008046024600204FF48011FFF7C9FEC2194D
:100910007141BB1846EB0100B4EB030C75EB000C06
:1009200004D3E41A65EB000517460E46241908F1B6
:1009300001006D4180463428E3DDF91946EB0600DD
:10094000091BA84103D24FF0FF32134601E00022F9
:1009500013461BEB070046EB0A51BDE8F04DFFF7CD
:10096000F8BEFEE7704772B6FEE7000070B50446B9
:1009700000F018F90546601C02D0044800780444D1
:1009800000F010F9401BA042FAD370BD0400002013
:100990002DE9F84FDFF8BCA10022012503264FF016
:1009A0000F090AF1040BAAF1040E00BF0B6805FA47
:1009B00002F42340A34270D10F7907F00307012FFF
:1009C00001D0022F16D187684FEA420806FA08FCC8
:1009D00027EA0C07D1F80CC00CFA08FC4CEA070C0B
:1009E000C0F808C04768A7430C79C4F300149440CA
:1009F0003C4344600C79E443A4070AD0C4684FEA3E
:100A0000420C06FA0CF7BC438F6807FA0CF7274331
:100A1000C7600C7904F00304022C12D1D40800EB57
:100A2000840CDCF820405707FF0E09FA07F824EA87
:100A30000804D1F8108008FA07F848EA0408CCF84E
:100A4000208004684FEA420C06FA0CF7BC430F7989
:100A500007F0030707FA0CF7274307604C6814F404
:100A6000403F70D03C4C276847F48047276024689B
:100A700022F0030704F480440094384C07EB040C84
:100A8000DCF8084897074FEA177809FA08F7BC43DB
:100A9000334FB84202D1002724E054E0314FB8422E
:100AA00001D101271EE0304FB84201D1022719E0E1
:100AB0002E4FB84201D1032714E02D4FB84201D187
:100AC00004270FE02B4FB84201D105270AE02A4F37
:100AD000B84201D1062705E0284FB84201D10727C7
:100AE00000E0082707FA08F72743CCF80878DAF877
:100AF00000405746D1F804C09C435FEACC2C00D597
:100B00001C433C60DBF800405F46D1F804C09C43C6
:100B10005FEA8C2C00D51C433C60DEF80040774631
:100B2000D1F804C09C435FEA8C3C00D51C433C6078
:100B3000084F083F3C68D1F804C09C435FEACC3CB6
:100B400000D51C433C60521C102AFFF42FAFBDE8B7
:100B5000F88F0000083C014044380240003001405A
:100B6000000002400004024000080240000C024065
:100B7000001002400014024000180240001C024015
:100B80000069084000D001207047426921EA020351
:100B90000A4043EA0241816170470AB181617047AE
:100BA0000904FBE70148806870470000040000204A
:100BB00070B5040025D094F83D00002520B984F8D4
:100BC0003C50204600F04EF9242084F83D00206877
:100BD000016821F0010101602068016841F40041D1
:100BE00001602068016821F40041016000F0B6FA5C
:100BF0004D4A6168914201D84C4900E04C49884215
:100C000001D2012070BD4B492368B0FBF1F15E6851
:100C100026F03F060E435E606368934206D94FF4A8
:100C2000967359434FF47A73B1FBF3F12368491C6F
:100C30001E6A26F03F06314319626168914210D85E
:100C40004900401EB0FBF1F2521CC2F30B02042A11
:100C500001D2042022E0B0FBF1F0401CC0F30B00F5
:100C60001CE0A268F2B301EBC10303EB0116431EC3
:100C7000B3FBF6F35B1C43F480431B0549D092B3EE
:100C800001EBC10202EB0111401EB0FBF1F0401C70
:100C9000C0F30B0040F4804040F400402168CA6972
:100CA0004CF6FF739A431043C861D4E9071001431F
:100CB0002068026822F0C00211430160D4E90301F8
:100CC00001432068826848F2FF339A4311438160F0
:100CD000D4E9050108432168CA6822F0FF021043E5
:100CE000C86001E00EE016E02068016841F00101F3
:100CF00001602564202084F83D00256384F83E507F
:100D0000002070BD01EB4106431EB3FBF6F35B1CF4
:100D1000B3E70120C2E701EB4101401EB0FBF1F057
:100D2000401CC0F30B00B7E7A086010080841E00C2
:100D300000093D0040420F002DE9F84F1F46904644
:100D40008A460446DDF82890FFF72CFF054694F804
:100D50003D0020287FD119230122404920460095DB
:100D600000F0E6FF002876D194F83C00012872D00C
:100D7000012084F83C0020680168C90703D101689C
:100D800041F0010101602068016821F40061016007
:100D9000212084F83D00102084F83E0000262664BF
:100DA000C4F824806785608D20852D48E0622B463D
:100DB0004A465146204600F041FF90B920684169FB
:100DC0008069009036E02A464946204601F056F8F0
:100DD00050B1206C042804D12068016841F40071EE
:100DE00001600120BDE8F88F606A21680078086121
:100DF000606A401C6062618D491E6185218D491EBB
:100E000089B2218522685369DB435B070BD451B15A
:100E100000781061606A401C6062608D401E6085D1
:100E2000208D401E20852A464946204600F054FF6A
:100E30000028CED1208D0028C5D154F83D0B016883
:100E400041F400710160202004F81E09E6776677FE
:100E50000020C7E7FFE70220C4E7000002001000FF
:100E60000000FFFFF0B587B0044614216846FFF785
:100E700012FA2768234CDFF888C000222149122388
:100E80000325042620481034674518D10F6847F021
:100E900002070F60096802AF01F0020105915901D4
:100EA000CDE9001387E864006946FFF771FD20680B
:100EB00040F400102060206800F400101CE0DFF80F
:100EC0004CC0674519D10F6847F002070F600968E9
:100ED00002AF01F0020105914FF44061CDE900132A
:100EE00087E864006946FFF753FD206840F48000FE
:100EF0002060206800F48000059007B0F0BD00007D
:100F000000540040303802400004024000580040C5
:100F10000248816802781144816070470400002013
:100F20000B4810B5016841F400710160016841F49B
:100F300080610160016841F480710160032000F06C
:100F400061F80F2000F006F800F024F8002010BD32
:100F5000003C024070B50D4D04464FF47A7128787C
:100F6000B1FBF0F00A490968B1FBF0F000F0FEFABD
:100F700048B9102C07D200222146501E00F022F85A
:100F800000206C6070BD012070BD000004000020D6
:100F9000100000200A4808B5016841F48041016052
:100FA000006800F4804000900548001F016841F08F
:100FB00080510160006800F08050009008BD000082
:100FC00044380240F0B40E4B1B680C46C3F30223B6
:100FD000C3F10705042D00D90425191D072901D2E5
:100FE000002300E0DB1E012606FA05F1491E214020
:100FF00099409E40761E16403143F0BC01F070BF10
:101000000CED00E0064900F0070208684FF6FF0308
:10101000184040EA0220034A10430860704700006D
:101020000CED00E00000FA052DE9F0470E46050042
:1010300065D0DFF81481D8F80000F7B200F007009F
:10104000B04207D288F80070D8F8000000F007001E
:10105000B04254D128683D4C810712D5400703D5D2
:10106000206840F4E05020602878000703D520680D
:1010700040F4604020602068A96820F0F000084338
:1010800020602878C0072DD03049686808390128C9
:1010900012D0022813D0032811D00968890700292B
:1010A0002DDA216821F0030101432160FFF77AFD69
:1010B000814641F2883A0EE009688903EFE7096842
:1010C0008901ECE7FFF76EFDA0EB0901514502D95C
:1010D0000320BDE8F0872068696800F00C00B0EBE1
:1010E000810FEFD1D8F80010404601F00701B1425E
:1010F00007D90770006800F00700B04201D0012056
:10110000E7E72878400705D52068E96820F4E05033
:10111000084320602878000706D52068296920F454
:10112000604040EAC100206000F038F82168084AB9
:10113000C1F30311515CC8400649086006480068C5
:10114000FFF708FF0020C4E7003C024008380240D7
:101150001A6F00081000002008000020044805490C
:1011600000680968044AC1F38221515CC840704795
:1011700010000020083802402A6F00080448054982
:1011800000680968044AC1F34231515CC8407047A5
:1011900010000020083802402A6F0008154810B5DA
:1011A000006810F00C02144813D01449042A0FD020
:1011B000082A0ED10F4C241F2268236802F03F0238
:1011C0005B0207D52068C0F38810A0FB010106E090
:1011D000084610BD2168C1F38811A1FB000100235E
:1011E000FEF7F0FF2168C1F30141491C4900B0FB43
:1011F000F1F010BD083802400024F40040787D0171
:101200002DE9F84F04006ED02078DFF84C93C0072A
:10121000A9F104054AD009F104000168C1F3810174
:10122000012908D00068C0F3810002280AD1D9F84A
:101230000000400206D52868800337D56068002882
:10124000E1D033E06068B0F5803F10D0B0F5A02F5A
:10125000286810D020F480302860286820F480208E
:1012600028606068A8B1FFF79DFC06460DE028687D
:1012700040F48030F4E740F480202860F7E700BFB6
:10128000FFF790FC801B642873D828688003F7D58B
:101290000CE0FFF787FC064605E000BFFFF782FC85
:1012A000801B6428F0D828688003F7D42078DFF802
:1012B000AC8280074FF0000A3ED5A748001D0168A8
:1012C00011F00C0F08D00068C0F3810002280BD188
:1012D000D9F80000400207D42868800716D5E068D6
:1012E000012800D112E033E1E068B8B10120C8F86C
:1012F0000000FFF757FC064605E000BFFFF752FC71
:10130000801B0228C0D828688007F7D52868216983
:1013100020F0F80040EAC10028600DE0C8F800A005
:10132000FFF740FC064604E0FFF73CFC801B022868
:101330001FD828688007F7D42078000722D5864F69
:1013400087486169703771B101210160FFF72AFC9C
:10135000064604E0FFF726FC801B022809D83868FF
:101360008007F7D50EE0C0F800A0FFF71BFC06468B
:1013700005E082E0FFF716FC801B02287DD8386864
:101380008007F7D42078400768D5DFF8CCB1002774
:101390000BF13C0BDBF80000C0000BD4DBF80010B5
:1013A00041F08051CBF80010DBF80000012700F07D
:1013B000805000906B4E3068C00510D4306840F407
:1013C00080703060FFF7EEFB009005E0FFF7EAFB6E
:1013D0000099401A022850D83068C005F6D55E4EF4
:1013E000A0686C3601280FD00528306810D020F096
:1013F00001003060306820F004003060A068B8B1AF
:10140000FFF7D0FB00900FE0306840F00100F4E7F8
:1014100040F004003060F7E7FFF7C4FB0099411A81
:1014200041F28830814266D830688007F4D50EE0FA
:10143000FFF7B8FB009007E0FFF7B4FB0099411AF3
:1014400041F28830814256D830688007F4D42FB1F9
:10145000DBF8001021F08051CBF80010A069C8B370
:101460003D49091D0968C1F3810102294AD00228BA
:10147000504607D0C8F8600000E03CE0FFF792FB60
:1014800004463BE04746C8F86000FFF78BFB064682
:1014900005E000BFFFF786FB801B02282BD82868D9
:1014A0008001F7D4D4E907010843A16A2E4A49080C
:1014B00002EB0141626A41EA8211084394F82C1060
:1014C00040EA0161C9F8001001203866FFF76AFBA5
:1014D000044606E03EE000BFFFF764FB001B022865
:1014E00009D828688001F7D534E000BFFFF75AFB20
:1014F000001B022802D90320BDE8F88F286880016C
:10150000F4D427E00128F7D0D9F80000E26900F40C
:10151000800191421CD1226A00F03F01914217D113
:1015200047F6C071626A0140B1EB821F10D1A26A16
:101530004FF0FF3300F4403103EB5202B1EB024FA6
:1015400006D194F82C1000F07060B0EB016F01D060
:101550000120D1E70020CFE70438024000004742D5
:10156000800E4742007000400000FFFF10B5401E93
:10157000B0F1807F01D3012010BD4FF0E024606105
:101580000F21601701F0ACFC0020A0610720206152
:10159000002010BD10B590F83C20012A22D0012275
:1015A00080F83C20CA688C6822F4407222434C6860
:1015B00022F4806222430C6822F4006222430C6908
:1015C00022F4805222434C6922F400522243C9691A
:1015D000002322F480420A4301684A6480F83C30C8
:1015E000002010BD022010BD70B590F83C20012AEB
:1015F00032D0012480F83C40022280F83D2003686C
:101600005A689D6822F070060A6832435A60134B8C
:1016100002689A4214D0B2F1804F11D0104B9A4216
:101620000ED0104B9A420BD00F4B9A4208D00F4B62
:101630009A4205D00E4B9A4202D00E4B9A4204D1E8
:10164000496825F080031943916080F83D400021EE
:1016500080F83C10084670BD022070BD00000140BB
:101660000004004000080040000C0040000401405D
:10167000004001400018004010B5040003D094F869
:101680003D0010B107E0012010BD002084F83C00AF
:10169000204600F01FF8022084F83D00211D20683C
:1016A00001F0AEF9012084F8460084F83E0084F889
:1016B0003F0084F8400084F8410084F8420084F838
:1016C000430084F8440084F8450084F83D0000207D
:1016D00010BD000008B500680649884208D10648D8
:1016E000016841F010010160006800F010000090F6
:1016F00008BD000000100040403802402DE9F041D4
:101700000D46040003D094F83D0018B108E0012014
:10171000BDE8F081002084F83C00204600F040F84D
:10172000022084F83D002068816844F2070291435A
:101730008160211D206801F063F922689068916939
:10174000166A2B68AF69034340F20330814341EAD4
:101750000721A868EF6908434FF6FC418843E96810
:1017600040EA0720014328692F6A000140EA073058
:10177000084369686D6926F0AA0646EA05152943FB
:1017800093602268906154F8460B0162012004F8CE
:101790001F09E0752076E0762077A0750020B7E776
:1017A000F0B587B0044614216846FEF774FD4B4936
:1017B00023680024494810390225494A494EB3F1AB
:1017C000804F14D0484FBB4240D1036843F002031E
:1017D0000360006800F002000590086840F0010016
:1017E0000860086800F001000590C0206EE0036802
:1017F00043F001030360006800F0010005900868F1
:1018000040F001000860086800F0010005900868D9
:1018100040F0020008600868012700F0020005900F
:1018200020200090CDE90154CDE9034769461046D8
:10183000FFF7AEF808200090CDE90154CDE9034749
:1018400069463046FFF7A4F807B0F0BD274FBB420A
:1018500028D1026842F004020260006800F004002F
:101860000590086840F008000860086800F008006B
:101870000590086840F0020008600868694600F0BA
:101880000200059098140090CDE901541848CDE964
:101890000345FFF77DF880200090CDE901546946AB
:1018A000304618E0134EB342CED1036843F008032C
:1018B0000360006800F008000590086840F001002F
:1018C0000860086800F00100059003200090CDE951
:1018D000015469461046CDE90345B3E7403802405C
:1018E00000000240000402400004004000080040E4
:1018F000000C0240000C004010B586B004461421D4
:101900006846FEF7C8FC0E492068884216D10D488B
:101910000021026842F010020260006800F010002E
:1019200005904FF4D44000900220CDE90101012040
:10193000CDE9031069460448FFF72AF806B010BD48
:1019400000000140303802400010024070B50446EB
:1019500090F83C0000260D4601280FD0012084F8A5
:101960003C006AB1042A1DD0082A2FD00C2A3FD08F
:101970000126002084F83C00304670BD022070BD76
:10198000206801F0A9F82068816941F008018161AF
:101990002068816921F004018161206881692A69D8
:1019A000114311E0206801F0C7F82068816941F413
:1019B000006181612068816921F480618161206812
:1019C00081692A6941EA02218161D2E7206801F038
:1019D000E9F82068C16941F00801C1612068C16966
:1019E00021F00401C1612068C1692A69114311E035
:1019F000206801F00BF92068C16941F40061C16100
:101A00002068C16921F48061C1612068C1692A69C7
:101A100041EA0221C161ACE710B5040003D094F89B
:101A20003D0010B107E0012010BD002084F83C000B
:101A3000204600F01FF8022084F83D00211D206898
:101A400000F0DEFF012084F8460084F83E0084F8B0
:101A50003F0084F8400084F8410084F8420084F894
:101A6000430084F8440084F8450084F83D000020D9
:101A700010BD000008B500680649884208D1064834
:101A8000016841F001010160006800F00100009070
:101A900008BD0000000001404438024070B5040059
:101AA00004D094F84100002510B106E0012070BD7B
:101AB00084F84050204600F023F8242084F84100A8
:101AC0002068C16821F40051C160204601F00CF982
:101AD0002068016921F4904101612068416921F089
:101AE0002A0141612068C16841F40051C160656408
:101AF000202084F8410084F842006563002070BD16
:101B000010B586B0044614216846FEF7C4FB14499C
:101B10002068884221D113480021026842F0100257
:101B20000260006800F0100005900E48143802684A
:101B300042F001020260006800F0010005904FF4DD
:101B4000C06000900220CDE901010320039007202E
:101B5000049069460448FEF71BFF06B010BD000064
:101B60000010014044380240000002402DE9F843D3
:101B7000044690F84100984616460D46202802D0AB
:101B80000220BDE8F88385B17EB100206064212089
:101B900084F84100FFF706F8A6848146E684A06831
:101BA0002027B0F5805F02D003E00120E9E720693B
:101BB00010B12E4600250EE000260CE080212046C4
:101BC00001F018F9A8B9C6B116F8010B21684860F0
:101BD000E08C401EE084E08C4B464FF00002CDF8D4
:101BE00000800028EAD14FF04001204601F002F9C0
:101BF00040B184F841700320C3E735F8020BC0F30D
:101C00000800E3E784F841700020BAE7FEE70168C6
:101C10004A69D24352050FD46FF480624A610021B1
:101C200040F8301F202242738173026942F004029F
:101C3000026101730120704700207047F8B5044627
:101C4000C06A1E460D461746082807D0012805D051
:101C500010F5803F02D0206B122804D12068016863
:101C600041F480710160134600224FF001112046BB
:101C7000009600F05DF840B120680068C00502D50C
:101C80004FF4007020640320F8BD2069B0F5804F48
:101C90000ED00620216800EAD51040F0F00008615F
:101CA00033463A460B49204600F08AF878B902E0FC
:101CB00005F0FE0000E0E8B22168086105493346FE
:101CC0003A46891F204600F07BF80028DCD001202E
:101CD000F8BD00000800010070B516460D46044628
:101CE0001EE02046FFF793FF08B1012070BD681C7D
:101CF00016D0FEF757FF801BA84200D885B9206890
:101D00004069C04340070BD5002044F8300F202124
:101D10006173A073216941F0200121612073E4E720
:101D200020684069C0434007DBD4002070BD00003C
:101D30002DE9F047984617460D460446C1F307467D
:101D4000DDF820902AE000BFB8F1FF3F26D0FEF773
:101D500029FFA0EB0901414502D8B8F1000F1DD1C0
:101D60002068012E16D0806925EA00000004000CCE
:101D700012D00020B84211D1002044F8300F2021A9
:101D80006173A073216941F020012161207301205A
:101D9000BDE8F0874069E7E70120EBE72068012E06
:101DA0000AD0806925EA00000004000C06D000205B
:101DB000B842C9D00020EBE74069F3E70120F7E71C
:101DC0002DE9F047984616460D4604464FF00009A7
:101DD0004FF0200AC1F3074723E020684069C04361
:101DE000400515D42068016841F400710160216844
:101DF0006FF480604861C4F8309084F83DA084F8A6
:101E00003E90216C41F00401216484F83C9021E073
:101E1000701C06D0FEF7C6FEA0EB0800B04203D847
:101E200016B1012F1FD021E02068012F15D0806945
:101E300025EA00000004000C18D000BF44F8309FD1
:101E400084F80DA084F80E90216941F020012161F1
:101E500084F80C900120BDE8F087406925EA000075
:101E60000004000CEAD12068406901E02068806924
:101E700025EA00000004000CAFD1ECE770B516466F
:101E80000D4604461EE02046FFF7C1FE08B10120C2
:101E900070BD681C16D0FEF785FE801BA84200D8D6
:101EA00085B920684069C04300060BD5002044F87E
:101EB000300F20216173A073216941F0200121615D
:101EC0002073E4E720684069C0430006DBD40020AB
:101ED00070BD000008B56B4602224121682000F069
:101EE000B3F9BDF8000040BA00B2FEF774FB9FEDF5
:101EF0000D1B53EC112BFEF7FFFA9FED0C1B53EC5F
:101F0000112BFEF7E0F9FEF78AFB00EE100ADFED79
:101F1000090A20EE200ABDEEC00A10EE100A00B237
:101F200008BD00000000000000407540A4703D0A9C
:101F3000D74342400000C84270B5104D4FF4806452
:101F4000002221462846FEF728FE00F0C9F90022AB
:101F500061002846FEF721FE022000F07FFE0122EC
:101F600021462846FEF719FE022000F077FE2146A2
:101F70002846BDE870400022FEF70FBE0004024074
:101F80007047000070B5104D4FF480640022214668
:101F90002846FEF702FE00F0A3F90122D1022846EE
:101FA000FEF7FBFD022000F059FE012221462846E3
:101FB000FEF7F3FD022000F051FE21462846BDE861
:101FC00070400022FEF7E9BD000402402DE9F04711
:101FD0008046002400F06EF9164F00254FF480660D
:101FE0004FF40069002231463846FEF7D6FD022044
:101FF00000F034FE012231463846FEF7CEFD600681
:10200000040E49463846FEF7BBFD08B1641CE4B235
:10201000022000F023FE6D1CEDB2082DE2D3B8F1D2
:10202000000F04D0FFF788FF2046BDE8F087FFF7D8
:10203000A9FFF9E7000402402DE9F041054600F050
:102040004FF9164F4FF48066002231463846FEF7AE
:10205000A4FD00244FF40068280601D5012200E009
:10206000002241463846FEF798FD6806050E01221B
:1020700031463846FEF791FD022000F0EFFD0022C8
:1020800031463846FEF789FD022000F0E7FD641C6A
:10209000E4B2082CE0D3BDE8F08100000004024067
:1020A00070B500F01DF901220E4DD40221462846DC
:1020B000FEF773FD0122960231462846FEF76DFDBC
:1020C000022000F0CBFD002221462846FEF765FDE8
:1020D000022000F0C3FD31462846BDE870400022D2
:1020E000FEF75BBD0004024070B500F0F9F8104D3A
:1020F0004FF48064002221462846FEF74EFD66001C
:10210000002231462846FEF748FD022000F0A6FDD9
:10211000012221462846FEF740FD0122314628468D
:10212000FEF73BFDBDE87040022000F097BD0000C7
:10213000000402402DE9F041002400F0BBF8012228
:10214000144DD60231462846FEF727FD022000F046
:1021500085FD0122970239462846FEF71EFD022022
:1021600000F07CFD08E0641CE4B2FA2C04D9FFF70F
:10217000BBFF0120BDE8F08131462846FEF700FD97
:102180000028F0D1002239462846FEF706FD00203F
:10219000F0E700000004024010B5FFF7F1FE8021D7
:1021A0006B2000F0EEF86420FEF7E0FB00216B20CE
:1021B00000F0E7F8032000F0B0F8002000F0A8F8E5
:1021C000322000F0C7F80021382000F0DAF80021B2
:1021D0006A2000F0D6F80021232000F0D2F88021F8
:1021E000372000F0CEF8752000F011F8682801D0F3
:1021F000012010BD01216B2000F0C3F800216C20EC
:1022000000F0BFF8322000F0A5F8002010BD10B596
:102210000446FFF745FFD020FFF70EFFFFF78AFFC8
:102220002046FFF709FFFFF785FFFFF739FFD120B1
:10223000FFF702FFFFF77EFF0020FFF7C7FE04460F
:10224000FFF752FF204610BD2DE9F0411D46144610
:102250000F460646FFF724FF7006000EFFF7ECFE60
:10226000FFF768FF20B1FFF73FFF0120BDE8F081D5
:102270003846FFF7E1FEFFF75DFFFFF711FF012092
:1022800000EB4600C0B2FFF7D7FEFFF753FF09E0AF
:10229000012C0DD05FF00100FFF798FE641E05F8D9
:1022A000010BE4B2002CF3D1FFF71EFF0020DDE7A5
:1022B0000020F1E700B585B014216846FDF7EBFF7B
:1022C0004FF40060009000200190029002200390E3
:1022D00069460248FEF75CFB05B000BD0004024001
:1022E00000B585B014216846FDF7D5FF4FF40060B6
:1022F0000090112001900020029002200390694676
:102300000248FEF745FB05B000BD00000004024096
:10231000C006010E1C2000F034B8C006010E1B20C0
:1023200000F02FB8BC2801D3012110E0622801D3AE
:1023300002210CE02A2801D3032108E0142801D34C
:10234000042104E00A2801D3052100E006211A2017
:1023500000F017B810B504464FF47A70844201D9E2
:10236000044602E0042C00D20424B0FBF4F0401E2A
:10237000C1B2192000F005F86008BDE81040FFF771
:10238000D1BF70B50C460546FFF78AFED020FFF797
:1023900053FEFFF7CFFE50B92846FFF74DFEFFF77B
:1023A000C9FE2046FFF748FEFFF7C4FE18B1FFF74D
:1023B0009BFE012070BDFFF797FE002070BD2DE948
:1023C000F0411E4615460F460446FFF769FE6006BB
:1023D000000EFFF731FEFFF7ADFE60B93846FFF79C
:1023E0002BFEFFF7A7FE00240CE0305DFFF724FE74
:1023F000FFF7A0FE20B1FFF777FE0120BDE8F081D6
:10240000641CE4B2AC42F0D3FFF76EFE0020F5E7A7
:102410002DE9F04186B014216846FDF73CFF2B48BA
:102420000024016841F010010160016801F0100111
:102430000591016841F004010160016801F00401A7
:102440000591016841F080010160016801F080019F
:102450000591016841F001010160016801F001018D
:102460000591016841F002010160016801F002017B
:102470000591016841F0080101600068144F00F007
:102480000800059000223C213846FEF786FBDFF865
:1024900044804FF43C56002231464046FEF77DFB17
:1024A0003C2000900125CDE901546946384603944B
:1024B000FEF76EFA0096CDE9015469464046039452
:1024C000FEF766FA06B0BDE8F08100003038024041
:1024D00000100240000C02400D4810B50B4901608D
:1024E0000C49416000214FF480428160C0E9031231
:1024F00041618161C1610162FEF75AFB002803D08E
:10250000BDE81040FEF72FBA10BD00000054004097
:1025100070010020A08601000D4810B50B49016034
:102520000C49416000214FF480428160C0E90312F0
:1025300041618161C1610162FEF73AFB002803D06D
:10254000BDE81040FEF70FBA10BD00000058004073
:10255000C4010020A086010030B591B000240F9482
:102560001C2168461094FDF796FE202107A8FDF770
:1025700092FE2C482A494FF4FA6502C0032132C06A
:1025800040F81049446184612648FFF745FA08B1D4
:10259000FEF7E9F90F940FA922481094FFF724F8E9
:1025A00008B1FEF7E0F960200090CDE901540394F2
:1025B00004940594002269461A480694FFF7C6F968
:1025C00008B1FEF7D0F9042269461648FFF7BEF9B4
:1025D00008B1FEF7C8F9082269461248FFF7B6F9B4
:1025E00008B1FEF7C0F90C2269460E48FFF7AEF9B4
:1025F00008B1FEF7B8F90794089409944FF4005015
:102600000A94CDE90B4007A906480E94FEF7C2FFD5
:1026100008B1FEF7A8F90348FFF76EF911B030BD15
:10262000000001401802002010B58CB0242168463B
:10263000FDF731FE0024144809944FF080410A94BC
:10264000C0E90014611EC0E90241046184610120F7
:10265000CDE90004CDE902040494CDE905400794D6
:10266000694609480894FFF749F808B1FEF77BF975
:10267000099409A904480A94FEF7B6FF002801D07E
:10268000FEF771F90CB010BD6002002010B58CB0DF
:1026900024216846FDF7FFFD0024154809941349DD
:1026A0000A94C0E900144FF6FF71C0E902410461C9
:1026B00084610120CDE90004CDE902040494CDE950
:1026C0000540079469460A480894FFF717F808B1CF
:1026D000FEF749F9099409A905480A94FEF784FF11
:1026E000002801D0FEF73FF90CB010BD00040040F7
:1026F000A802002010B58CB024216846FDF7CBFD60
:1027000000241548099413490A94C0E900144FF6AF
:10271000FF71C0E90241046184610120CDE9000438
:10272000CDE902040494CDE90540079469460A48BE
:102730000894FEF7E3FF08B1FEF715F9099409A91B
:1027400005480A94FEF750FF002801D0FEF70BF968
:102750000CB010BD00080040F002002010B58CB095
:1027600024216846FDF797FD002415480994134974
:102770000A94C0E90014611EC0E902410461846149
:102780000120CDE90004CDE902040494CDE905401F
:10279000079469460A480894FEF7B0FF08B1FEF7AF
:1027A000E2F8099409A906480A94FEF71DFF0028DB
:1027B00001D0FEF7D8F80CB010BD0000000C0040AE
:1027C000380300201CB500240E4800940C490194E5
:1027D0000160A721C0E901144FF6FF718461C16057
:1027E000FEF74AFF08B1FEF7BEF8009469460548B7
:1027F0000194FEF7F9FE002801D0FEF7B4F81CBDE5
:1028000000100040800300200C4810B50A49016008
:102810004FF4E1314160002181600C22C160C0E9C8
:1028200004128161C161FFF739F9002803D0BDE8C6
:102830001040FEF798B810BD00100140C8030020FA
:10284000FEE7FEE710B5044688B02F4803F0AAFC67
:1028500020216846FDF71FFD2C492B4803F063FD3E
:102860002068FDF7C9FE41EC100B29A153EC102B99
:10287000684600F009FB6B460C220821224803F051
:1028800029FD6068FDF7B8FE41EC100B24A153EC64
:10289000102B684600F0F8FA6B461C2208211A48F3
:1028A00003F018FDA068FDF7A7FE41EC100B1FA177
:1028B00053EC102B684600F0E7FA6B462C220821F7
:1028C000114803F007FDB4F918009FED1B1A00EE44
:1028D000100AF8EEC00A80EE810A10EE100AFDF729
:1028E0008BFE41EC100B15A153EC102B684600F049
:1028F000CBFA6B463C220821034803F0EBFC02486C
:1029000003F008FD08B010BD5C000020326F000825
:1029100070697463683A20252E3034660000000028
:10292000726F6C6C3A20252E303466007961773AEC
:1029300020252E30346600000000C84274656D709A
:102940003A20252E30326600014803F011BC000009
:102950005C00002070477047FEF7DABA30B593B0DC
:1029600030216846FDF797FC14210CA8FDF793FC75
:102970001D480025016841F080510160006800F0A9
:10298000805011901948016841F48041016000684D
:10299000022400F480401190012003901020049044
:1029A000009406940820CDE90750A820CDE9090439
:1029B00004200B906846FEF723FC08B172B6FEE7D0
:1029C0000CA90F2081E831004FF4A0500F904FF474
:1029D0008050109005210CA8FEF726FB002801D09E
:1029E00072B6FEE713B030BD4038024000700040C0
:1029F0000248016841F470010160704788ED00E011
:102A0000F0B50268294C2A4D2A4E2B4F2B4B4FF024
:102A1000804CA04209D0604507D0A84205D0B04202
:102A200003D0B84201D0984204D122F0700E4A6817
:102A300042EA0E02A0421BD0604519D0A84217D02E
:102A4000B04215D0B84213D0984211D01C4DA842C4
:102A50000ED01C4DA8420BD01B4DA84208D01B4DD8
:102A6000A84205D01A4DA84202D01A4DA84203D15F
:102A700022F44075CA682A434D6922F080022A4335
:102A800002608A68C2620A688262A04201D09842EB
:102A900001D109690163012141610169C90703D0BD
:102AA000016921F001010161F0BD00000000014059
:102AB0000004004000080040000C004000040140F9
:102AC000004001400044014000480140001800401F
:102AD000001C004000200040F0B5036A026A22F0AA
:102AE0000102026242688469124E24F073050C6888
:102AF0002C4323F002058B682B430D4DA84201D0D7
:102B0000B04205D123F00807CB683B4323F0040310
:102B1000A84201D0B04205D14D6922F4407215435C
:102B20008A692A4342608461496841630362F0BD57
:102B30000000014000040140F0B5026A036A23F07E
:102B400010030362436884690D6824F4E64444EA90
:102B500005248D6822F0200242EA05120F4D104E26
:102B6000A84201D0B04206D1CF6822F0800242EAEA
:102B7000071222F04002A84201D0B04207D14D69AD
:102B800023F4406343EA85038D6943EA8503436088
:102B90008461496881630262F0BD00000000014069
:102BA00000040140F0B5026A036A23F480730362F3
:102BB0004368C46922F4007224F073050C68124E55
:102BC0002C438D6842EA05220E4DA84201D0B04246
:102BD00006D1CF6822F4006242EA072222F4806222
:102BE000A84201D0B04207D14D6923F4405343EAD3
:102BF00005138D6943EA05134360C4614968C163E5
:102C00000262F0BD000001400004014030B5046ADA
:102C1000026A22F4805202624268C3690D6823F49A
:102C2000E64343EA05238D6824F4005444EA05345E
:102C3000084DA84202D0084DA84204D14D6922F4A3
:102C4000804242EA85124260C361496801640462BD
:102C500030BD000000000140000401400D49002289
:102C60000B685A620A68136843F00103136009682D
:102C70004A6A8242FCD3086A41F21112104207D11B
:102C8000086A9210104203D1086820F00100086021
:102C9000704700008003002001680C3151E8002FCC
:102CA00022F4907241E80023002BF5D10168143121
:102CB00051E8002F22F0010241E80023002BF5D15A
:102CC000016B012909D101680C3151E8002F22F074
:102CD000100241E80023002BF5D1202180F842109A
:102CE000002101637047000070B504460068016967
:102CF000E26821F44051114301612169A068E26951
:102D000008436169114308432168CA6849F20C63AA
:102D10009A430243CA6020684169A26921F4407164
:102D20001143416131492068884202D030498842CC
:102D300002D1FEF723FA01E0FEF710FAE269002360
:102D4000192164253226B2F5004F626828D0A0FB15
:102D50000101930F9200FDF735FA0146B0FBF5F043
:102D60006FF01802504301EB800006EB0010B0FB3F
:102D7000F5F000F0F002B1FBF5F002EB0012B1FB50
:102D8000F5F06FF01803584301EB800006EB0010DC
:102D9000B0FBF5F000F00F0021681044886070BDB2
:102DA000A0FB010192185B41FDF70CFA0146B0FB54
:102DB000F5F00201B1FBF5F06FF01803584301EB99
:102DC000800006EBC000B0FBF5F000F0F80002EB6D
:102DD0004002B1FBF5F0584301EB800006EBC00068
:102DE000B0FBF5F000F00700D6E70000001001404E
:102DF000001401402DE9F843984617460D46044655
:102E0000089E24E0701C22D0FDF7CCFEA0EB080049
:102E1000B0421AD8CEB12068C168490717D5802DB5
:102E200015D0402D13D00168C94309070FD401689C
:102E30000025406800902046FFF72EFF08206064C0
:102E400084F840500120BDE8F8830320FBE72068A8
:102E5000006835EA000004D00020B842D2D000203B
:102E6000F1E70120F9E7FEE70FB4054B10B503A920
:102E7000044A029800F0E8FD10BC5DF814FB000065
:102E8000A14B0008540000200FB4084B10B504A952
:102E900002AA039800F0D8FD044602A9002001F020
:102EA00056F9204610BC5DF814FB00004F410008A5
:102EB00003B401984100009850EAC12018BF0420D3
:102EC0004A0D18BF40F0010040F2FF72B2EB515FB3
:102ED00008BF40F00200012808BF052002B070477B
:102EE0000907090E002804DB00F1E02080F8001437
:102EF000704700F00F0000F1E02080F8141D7047CB
:102F000070B5C1482DED020B2DED0E8B82B0119DD9
:102F100025F000449FEDBEDB9FEDBFEB84423EDB1E
:102F2000A4F140511098A1F17F6108430FD0BC4833
:102F3000844202DC28D1109830B39DED100B02B012
:102F4000BDEC0E8B02B0BDE8704000F071BC9DED91
:102F5000100B53EC1D2B51EC100BFDF75BFA9DEDA4
:102F6000100B41EC180B53EC1E2B51EC100BFDF722
:102F700051FA53EC182BFDF7A6F941EC100B02B0F7
:102F8000BDEC0E8B02B070BD012000F095FC02B0CC
:102F9000BDEC0E8B02B0BDE8704000F05DBCA148F6
:102FA0009FEDA18B844256DA9DED100BB4F1795F51
:102FB0000ADA51EC100BFFF77BFF042808BF00F082
:102FC0005BFC9DED100BDAE753EC102B51EC100B72
:102FD000FDF720FA41EC190B95480621B0EE490A9D
:102FE000F0EE690A784400F0A7FB53EC192B51EC82
:102FF000100BFDF70FFA41EC1A0B8E48B0EE490AA0
:10300000F0EE690A0421784400F096FB53EC192B8A
:1030100051EC100BFDF7FEF953EC182BFDF753F9AB
:1030200041EC100B51EC1A0B53EC102BFDF764FA2A
:10303000CDE900019DED000B53EC102B9DED100B25
:1030400051EC100BFDF7E6F99DED101B53EC112B25
:10305000FDF739F9D2E09DED100B51EC100B01F0AA
:1030600093FD53EC182BFDF7D2F99FED730BCDE9CF
:10307000000153EC102B9DED000B51EC100BFDF7F4
:10308000C9F941EC190B6E480621B0EE490AF0EE81
:10309000690A784400F050FB53EC192B51EC100BEB
:1030A000FDF7B8F941EC1B0B6648B0EE490AF0EEAB
:1030B000690A0421784400F03FFB53EC192B51ECD2
:1030C000100BFDF7A7F953EC182BFDF7FCF841ECBA
:1030D0001C0B51EC190B03F013F841EC180B5A4878
:1030E0009FED5BABA04222DC53EC1C2B51EC1B0B85
:1030F000FDF702FACDE900019DED000B51EC180B34
:1031000053EC102BFDF786F953EC182BFDF7DBF889
:1031100053EC1A2BFDF77EF953EC1D2BFDF774F9D8
:1031200053EC1E2BFDF773F941EC100B5FE08DEDB6
:10313000008B002000909DED000B51EC180B53EC20
:10314000102BFDF7C0F89DED000B41EC1E0B53EC6E
:10315000102B51EC100BFDF75DF953EC192BFDF71B
:1031600056F953EC1E2BFDF7C7F941EC190B53EC44
:103170001C2B51EC1B0BFDF7BFF941EC1B0B53EC67
:103180001A2B51EC190BFDF745F953EC1D2BFDF7EC
:103190003EF941EC190B53EC1A2B51EC180BFDF7CF
:1031A00039F953EC1B2BFDF735F953EC192BFDF7CF
:1031B0002BF99DED000B41EC180B53EC1A2B51EC45
:1031C000100BFDF727F99FED249B53EC192BFDF70E
:1031D0001EF941EC100B51EC180B53EC102BFDF7C2
:1031E00013F953EC192BFDF712F941EC100B002DDC
:1031F0003FF7C5AE51EC100B81F0004141EC100BD4
:10320000BDE60000000000000000F03F00000000EC
:10321000075C143326A6913C182D4454FB21F93F3A
:103220000000F07F0000E03F000000000000F03FE1
:10323000105C00001E5C0000000000000000E03F89
:10324000625B0000705B00003333EF3F0000000062
:103250000000000000000040182D4454FB21E93F0D
:1032600070B59B482DED020B2DED068B079D25F0CB
:103270000044A04218DC9748844202DC0AD1069838
:1032800040B19DED060BBDEC068B02B0BDE8704071
:1032900000F0CEBA002DCCBF9FED8F0B9FED900BB1
:1032A000BDEC068B02B070BD8F48A04215DD8F4883
:1032B000A042D8BF4FF0FF3458DD9DED060B51EC16
:1032C000100BFFF7F5FD042808BF00F0D5FA9DEDBF
:1032D000060BBDEC068B02B070BD9DED060B51ECEC
:1032E000100B01F051FCCDE9060181489FED828B66
:1032F000A0423CDD8248A0421FDD00249FED82AB4E
:103300009DED060B53EC1A2B51EC100BFCF7DBFF79
:103310009DED060B41EC190B53EC1A2B51EC100BE5
:10332000FDF778F853EC182BFDF76EF853EC192BDA
:10333000FDF7E2F8CDE9060149E09DED060B012419
:1033400053EC182B51EC100BFCF7BDFF9DED060B59
:1033500041EC190B53EC182B51EC100BFDF754F802
:1033600053EC192BFDF7C8F8CDE906012FE06848AA
:10337000A0421FDD02249FED689B9DED060B53ECE0
:10338000192B51EC100BFDF745F853EC182BFCF7FB
:103390009AFF9DED060B41EC180B53EC192B51ECE9
:1033A000100BFDF731F853EC182BFDF7A5F8CDE91C
:1033B00006010CE09DED060B032453EC102B9FED52
:1033C000580B51EC100BFDF797F8CDE906019DED78
:1033D000060B53EC102B51EC100BFDF71BF841ECD6
:1033E000180B53EC182BFDF715F841EC190B4E4850
:1033F0000621B0EE490AF0EE690A784400F09CF923
:1034000053EC182B51EC100BFDF704F841EC180BA2
:103410004648B0EE490AF0EE690A0521784400F00A
:103420008BF953EC192B51EC100BFCF7F3FF41EC2B
:10343000100B51EC180B53EC102B002C0EDAFCF790
:1034400042FF9DED061B53EC112BFCF7E3FF9DEDB6
:10345000061B53EC112BFCF7DAFF35E0FCF733FFCA
:103460009DED061B53EC112BFCF7D4FF41EC100B28
:103470002F48784400EBC40090ED001B51EC100B7A
:1034800053EC112BFCF7C0FF9DED061B53EC112BE9
:10349000FCF7BAFF41EC100B2648784400EBC4005F
:1034A00090ED001B51EC100B53EC112BFCF7AFFF10
:1034B00041EC100B002DA2BFBDEC068B02B070BD1D
:1034C00051EC100B81F0004141EC100B01E70000C2
:1034D000000010440000F07F182D4454FB21F93FF8
:1034E000182D4454FB21F9BF0000DC3F0000203EB2
:1034F0000000F33F00000000000000000000F03F6B
:103500000000E63F00000000000000000000004056
:103510000080034000000000000000000000F83FB1
:10352000000000000000F0BFB25800006858000022
:10353000F2570000AA57000070B56F4E2DED040B36
:103540002DED048B82B0DDF824C0DDE907235C4259
:103550002CF000411C4341EAD474069D22F0004047
:10356000B44205D86C422C4340EAD474B4420BD91F
:103570009DED081B9DED060B02B0BDEC048B04B065
:10358000BDE8704000F05EB9ACF14054A4F17F6436
:103590001C430BD0022404EAAC7444EAD274054301
:1035A0009FED578B9FED582B07D015E09DED060B37
:1035B00051EC100B00F018FE42E0002C11BF012C62
:1035C0009DED060B02B0BDEC048B04BF04B070BDD2
:1035D000022C38D0032C3BD00B439FED4D1B9FEDAD
:1035E0004E0B0AD0B14218D1B04209D121F080412E
:1035F00020F08040099107900FE0002A15DA10E0D2
:10360000474B7B44002C08BF93ED000B0DD0012CE1
:1036100010D0022C17D0032C1AD0B0421DD1002A92
:1036200003DAB0EE410AF0EE610A02B0BDEC048BA1
:1036300004B070BD93ED000B51EC100B81F0004114
:1036400041EC100BF1E7B0EE480AF0EE680AECE747
:10365000B0EE420AF0EE620AE7E7401A00159FED6D
:10366000329B3C28C8BF8DED000B17DCBCF1000F6E
:10367000BCBF10F13C0F8DED009B0FDB9DED080BE7
:1036800053EC102B9DED060B51EC100BFCF734FFA7
:1036900001F07AFA00F0A8FDCDE90001B4B1012CE7
:1036A00010D0022C9FED220B53EC102B9DED000B44
:1036B00051EC100B19D0FCF7A7FE53EC182BFCF7BC
:1036C000A3FEBDE7019880F0004001909DED000B46
:1036D00053EC192B51EC100BFDF7B0F804BF02208E
:1036E00000F0EAF89DED000B9FE7FCF78DFE53EC30
:1036F000182BFCF78CFEA3E70000F07F0000000011
:10370000182D4454FB210940182D4454FB2109C0B5
:10371000182D4454FB21F9BF182D4454FB21F93FC7
:10372000DA56000000000000000000000000000069
:10373000075C143326A6A13C70B504462DED028B20
:103740004D1E00EBC500B0EE408AF0EE608A90EDB1
:10375000000B35F0060017D053EC182B51EC100B72
:10376000FCF758FE41EC100B6D1E04EBC50090ED0C
:10377000001B51EC100B53EC112BFCF7A4FD41EC9A
:10378000100B35F00600E7D1022D36D0042D1CD0E9
:10379000062D1CBFBDEC028B70BD53EC182B51ECF9
:1037A000100BFCF737FE94ED0A1B53EC112BFCF7C2
:1037B0008AFD53EC182BFCF72DFE94ED081B53ECFF
:1037C000112BFCF780FD41EC100B53EC182B51EC46
:1037D000100BFCF71FFE94ED061B53EC112BFCF7AE
:1037E00072FD53EC182BFCF715FE94ED040B53EC13
:1037F000102BFCF768FD41EC100B53EC182B51EC2F
:10380000100BFCF707FE94ED021B53EC112BFCF799
:103810005AFD53EC182BFCF7FDFD94ED001B53EC07
:10382000112BFCF750FDBDEC028B41EC100B70BD71
:1038300010B553EC102B51EC100BFCF744FD41EC90
:10384000100B10BD10B553EC112B51EC100BFCF705
:103850003AFD41EC100B10BD9FED050B10B553EC7C
:10386000102B51EC100BFCF747FE41EC100B10BD78
:1038700000000000000000009FED050B10B553ECA8
:10388000102B51EC100BFCF7C5FD41EC100B10BDDB
:10389000000000000000001002E008C8121F08C16C
:1038A000002AFAD170477047002001E001C1121FC1
:1038B000002AFBD1704700000149086070470000F2
:1038C000580000202DE9FF5F82B00021DDE90430BF
:1038D000020DDDF840B0034318D044F61050A2F2B8
:1038E000FF3242431514119801281FD0A5EB0B009D
:1038F000401C5FEA000A4FF000064E4FDFF8389197
:10390000B046504615D5CAF1000413E011980124C1
:103910004AA3012801D16FEA0B010298119AC0E96C
:103920000031C0E9024206B0BDE8F09FCBF10000D3
:10393000DFE704460021404A491842EB0450CDE934
:10394000001012E0E00707D032463B4640464946A9
:10395000FCF760FD8046894632463B4610461946D4
:10396000FCF758FD06460F466410002CEAD1DDE94D
:103970000401DDE90023BAF1000F06DAFCF74AFD85
:1039800042464B46FCF746FD05E0FCF7B5FD4246D6
:103990004B46FCF7B1FD04460E460022284BFCF7CF
:1039A00065FF03D84FF0FF30014607E00022254BAA
:1039B00020463146FCF787FCFCF728FF102409E07D
:1039C000002C0ADB0A220023FCF7FCFB039B3032AD
:1039D0001A55641E50EA0102F2D1641C039AC4F124
:1039E00011031444119A012A03D0012208430DD176
:1039F0000AE0084304D000204FF0110B119072E749
:103A0000A3EB0B056D1E0DE05B4504DD4FF00002DE
:103A100005F1010504E003DA4FF00002A5F101050C
:103A2000002AECD002981199C0E90231C0E90045A2
:103A300079E70000000014400000F03F3000000073
:103A40000000F0430000E03F2DE9FF4F95B09A469B
:103A5000884606460025EEE1252877D10024274632
:103A6000F94A0121039400E0044316F8013F203B8A
:103A700001FA03F01042F7D130782A2811D06FF004
:103A80002F033078A0F13002092A16D8039A44F0A7
:103A9000020402EB820203EB42021044761C039004
:103AA000EFE758F8042B0392002A03DA504244F45B
:103AB0000054039044F00204761C30782E2816D16E
:103AC00016F8010F44F004042A280DD06FF02F02DD
:103AD0003078A0F13003092B09D807EB870302EBFC
:103AE0004303C718761CF3E758F8047B761C30783C
:103AF0006C280FD006DC4C2817D068280DD06A2817
:103B000014D104E0742810D07A280FD10DE044F4C9
:103B100000140AE044F4801401E044F44014727884
:103B2000824202D104F58014761C761C3078662817
:103B30000BD013DC582877D009DC002875D0452835
:103B4000F6D04628F4D047281AD193E118E063282C
:103B500035D0642879D0652812D18BE1702873D0D4
:103B600008DC6728F1D069286FD06E280DD06F2847
:103B700006D1ACE073282CD0752874D0782853D0A7
:103B80005246179990476D1C54E1C4F30250022825
:103B900009D003280DD0D8F8001004280DD00D60EE
:103BA00008F1040846E1D8F80010EA17C1E900520C
:103BB000F6E7D8F800100D80F2E70D70F0E718F87E
:103BC000041B8DF8001000208DF80100EB46012049
:103BD00003E058F804BB4FF0FF3061074FF00001DD
:103BE00002D40DE009F101018946B9420FDA81459D
:103BF000F8DB1BF809100029F4D108E009F10101F4
:103C000089468142FADB1BF809100029F6D1039896
:103C10005346A0EB090721463846179A00F080FA70
:103C2000284400EB090507E044E008E10DE01BF83B
:103C3000010B524617999047B9F10109F7D2534643
:103C400021463846179AF2E039E00A21C4F30252BD
:103C50004FF0000B0091022A06D058F8040BC11750
:103C6000032A09D00AE023E008F1070020F0070248
:103C7000F2E80201904605E000B2C117042A01D122
:103C800040B2C117002906DA0A460021404261EB22
:103C900002012D2202E0220504D52B228DF80420FA
:103CA000012203E0E20701D02022F7E7914657E026
:103CB0000A2100E010214FF0000B00910BE01021D1
:103CC0004FF0000B44F004040827009103E00820A3
:103CD0004FF0000B0090C4F30252022A05D058F8AE
:103CE000040B0021032A08D008E008F1070020F0A7
:103CF0000702F2E80201904603E080B2042A00D1F4
:103D0000C0B24FF0000922072AD53278702A07D0B6
:103D1000DDF800C08CF0100C5CEA0B0C05D00EE056
:103D200040228DF80420012208E050EA010306D069
:103D300030238DF804308DF8052002229146009B37
:103D400083F0080353EA0B030AD150EA010201D1C0
:103D5000620705D530228DF804204FF001097F1E3F
:103D60003278582A04D039A20C920CAA02920BE0A5
:103D70003BA2F9E75B46009AFCF724FA0C9B9B5C9C
:103D8000029A521E0292137050EA0102F2D1029876
:103D900004A9081A00F1200B600702D524F480342E
:103DA00000E001275F4502DDA7EB0B0000E00020EB
:103DB00000EB0B01009003984944401A0390E00384
:103DC00006D453462146179A039800F0A9F90544F2
:103DD000002706E001A85246C05D179990476D1C68
:103DE0007F1C4F45F6DBE0030CD553462146179A5E
:103DF000039800F095F9054404E0302052461799E5
:103E000090476D1C0099481E00900029F5DC08E0E1
:103E10000298029952460078491C029117999047DE
:103E20006D1CBBF10001ABF1010BF1DC5BE100F0BB
:103E300065F90544761C307800287FF40DAE19B082
:103E40002846BDE8F08F00000928010030313233E8
:103E500034353637383961626364656600000000C6
:103E600030313233343536373839414243444546B0
:103E700000000000600700D4062708F1070020F0CA
:103E80000700F0E80223804603F0004C5FEA0C00D4
:103E900001D097A009E0200501D596A005E0E00734
:103EA00001D095A001E0AFF24C001390307823F0E0
:103EB000004365280CD006DC452809D046281DD0D3
:103EC00047287FD13BE0662818D067287AD136E0B2
:103ED0000021112F01DB112000E0781CCDE9000149
:103EE00004A90CA8FFF7EEFCDDE90D010C9A4FF0D8
:103EF000000B07F10109109200914EE04FF00040D5
:103F00000097CDE9011004A90CA8FFF7DBFCDDE95F
:103F10000D020C9B0F994FF0000B914610930092ED
:103F200011B9791C00EB0109B7EB090003D4C0F10A
:103F3000FF3B07F10109A9EB0700019042E0012FC7
:103F400000DA01270021112F01DD112000E03846A1
:103F5000CDE9000104A90CA8FFF7B4FCDDE90D01CF
:103F60000C9A00914FF0000BB946109221070FD424
:103F7000009A4A4503DA914601E0A9F10109B9F135
:103F8000010F05DD109AA9F10101515C3029F4D02F
:103F9000B84202DA10F1040F03DA0121CDE9011071
:103FA00010E0002803DC8344A9EB000102E0411C7F
:103FB000494500DD8946A0EB0B00401C01904FF005
:103FC00000400290200705D40198484502DB4FF0DD
:103FD000FF30019000208DF84B0002980DF14B0747
:103FE000B0F1004F25D002200C902B200D900298AC
:103FF00000280CDA404202902D200D9007E00A21A3
:104000000298FCF728FB3031029007F8011D0C994B
:10401000481E0C900029F2DC02980028EFD1791E8E
:104020000D980870307800F0200040F0450007F847
:10403000020D11A8C01BC01D02901398007800B19A
:10404000012000EB0901019801EBE07102980144A5
:104050000398401A401E0390E00306D453462146BD
:10406000179A039800F05CF805441398007818B18B
:104070005246179990476D1CE00323D553462146BD
:10408000179A039800F04CF805441BE0BBF1000FB1
:1040900007DB0098584504DD1098179910F80B00BD
:1040A00001E0179930205246904701980BF1010B1F
:1040B000401E05F10105019004D12E2052461799AA
:1040C00090476D1CB9F10001A9F10109DEDC05E0A2
:1040D00017F8010B5246179990476D1C0299481E1C
:1040E00002900029F4DC53462146179A03989EE675
:1040F0002D0000002B000000200000002DE9F04101
:10410000044600251E461746880404D405E03946B7
:104110002020B0476D1C641EF9D52846BDE8F0810B
:104120002DE9F041044600251E469046C80301D5FE
:10413000302700E02027880404D505E041463846B2
:10414000B0476D1C641EF9D52846BDE8F0810A68A9
:10415000531C0B6010707047FEB506460D460024D8
:10416000684600F029FD00229FED1B1A6B460121D5
:1041700056F8227055F82200381A00D5404200EE59
:10418000100A03EB8200B8EEC00AD0ED000A20EE60
:10419000010AF5EEC00AF1EE10FA0DD0C0EE201AB9
:1041A000B7EE000A0D4F31EEC00AB0EEC00A10EEB5
:1041B000100AB84207DC09E010EE100A084F384434
:1041C000084FB84202D301FA02F00443521C032AFA
:1041D000CEDB2046FEBD000000008037295C0F3E8C
:1041E000666666C19A99D90010B541EC100BFFF7CD
:1041F00037F851EC100B10BD08B560B120208DF8D8
:10420000000028208DF8010030208DF802003820B1
:104210008DF8030004E0A32204216846FCF734F87B
:104220006A46042140F69E2001F0D0FE01F08EFB8C
:1042300008BD00003EB5044602208DF80000CA20EB
:104240008DF80100E3208DF8020009208DF80300AD
:104250006A460421682001F0B9FEA3208DF8000011
:10426000610609D5C0218DF80110C8218DF8021012
:10427000C2218DF8031005E08DF801008DF80200D1
:104280008DF8030014F4C07F09D0C4218DF8041008
:10429000CC218DF80510C6218DF8061005E08DF8AB
:1042A00004008DF805008DF806008DF808008DF8E3
:1042B00007008DF809006A460A2140F6A72001F0A0
:1042C00085FEA0074FF0D80503D020208DF8000010
:1042D00001E08DF800506A46012140F6B62001F059
:1042E00075FEA00601D5012000E0002000F08EF848
:1042F00014F4C07F1ED0E0050AD5B2208DF800006E
:104300008B208DF80100B6208DF802009B2009E07B
:10431000B0208DF8000080208DF80100B4208DF8C9
:10432000020090208DF803006A46042140F6A22086
:1043300001F04CFEE1074FF40B6022D0F8218DF81C
:1043400000106A46012101F041FEFA21072000F029
:104350004BFB072000F016FB012000F033FB64202C
:1043600000F0F2FB4FF4FA7000F0FEFBC821254884
:1043700000F0D0FA282000F0E5FA0A2000F0F2FA66
:1043800005E08DF800506A46012101F01FFEA007EC
:1043900003D5D9208DF8000001E08DF800506A4661
:1043A000012140F23D7001F011FE600701D50120AE
:1043B00000E0002000F048F8E00601D5012000E010
:1043C0000020FFF719FF104D44F00800688101F04C
:1043D000BDFA0020A873600601D50620A87314F466
:1043E000C07F02D0A87B801DA87314F0140F02D0E8
:1043F000A87B1030A873A00702D0A87B001DA8736B
:1044000000203EBD09E3CA02100800200EB54FF49B
:10441000976310B106A107C901E008A207CA8DE899
:1044200007006A460921184601F0D0FD0EBD0000C4
:10443000B8AAB38DB4980D355D000000B8AAAAAA39
:10444000B088C3C5C700000008B560B1C0208DF8B2
:104450000000C2208DF80100C4208DF80200C620A3
:104460008DF8030004E08B2204216846FBF70CFF63
:104470006A46042140F6982001F0A8FD01F066FA92
:1044800008BD0000C8234FF48062024940F6F630B0
:1044900001F03EB9008000082DE9FF4F89B01746B2
:1044A000DDE916520024554E884681462C80A246EE
:1044B000B07B694601F0D8F94FF0FF3B18B1584680
:1044C0000DB0BDE8F08F708910F0140F4ED0BDF81C
:1044D00000109DF8022049BA090441EA02229DF821
:1044E00003100A433A60BDF804109DF8063049BA3B
:1044F000090441EA03219DF8073012141943796039
:10450000BDF808309DF80A405BBA1B0443EA042357
:104510009DF80B4009142343BB60BDF80C409DF887
:104520000EC064BA240444EA0C2C9DF80F404CEAF7
:10453000040C1024C7F80CC01B144FEA2C4712FBC4
:1045400002F211FB012113FB03F217FB07221144B6
:10455000A1F17061B1F1007F04D901F0F7F9A5F87C
:1045600000A0ACE7298841F48071298042066946A1
:1045700011D50A19A41D13885BBAA8F80030538816
:104580005BBAA8F80230928852BAA8F804202A88A8
:1045900042F008022A8010F4C07F11D00A19A41D2D
:1045A00013885BBAA9F8003053885BBAA9F80230C7
:1045B000928852BAA9F804202A8842F070022A8010
:1045C000800716D00C44E07800F0C00500F03F01F1
:1045D0006078C00706D0C80801F007013268491C9E
:1045E00002B190476078000703D5716809B1A80946
:1045F00088470C9800F0F0FD002061E710080020CB
:104600002DE9FF41044603A800F032FFBDF80C007D
:10461000410CC3032F48008900F0030254F82250D4
:10462000420700D56D42C0F3C102860654F822202D
:1046300000D55242C0F38116C00554F8264000D57B
:104640006442A5FB0367E81700FB037005FB01004C
:10465000850045EA9670A2FB0367D51705FB037535
:1046600002FB0152950045EA9672A4FB0367E51729
:1046700005FB037304FB01318B0043EA9671030EC3
:104680008DF80030030C8DF80130030A8DF80230EC
:104690008DF80300100E8DF80400100C8DF8050045
:1046A000100A8DF80600080E8DF80800080C8DF829
:1046B0000900080A8DF80A008DF807208DF80B1004
:1046C0006A460C214FF4257001F080FC04B0BDE86F
:1046D000F08100001008002030B5044613A285B018
:1046E00007CA8DE807004FF0FF35C82C16D8C82040
:1046F000B0FBF4F1491E080A8DF80C008DF80D107E
:1047000003AA022140F2162001F060FC30B96A468B
:104710000C2140F6C12001F059FC10B1284605B02B
:1047200030BD054884810020F9E70000FEF2ABC4EB
:10473000AAF1DFDFBBAFDFDF10080020F8B530499A
:10474000098901F0030250F822404A0700D564426B
:10475000C1F3C1028B0650F8222000D55242C1F3AA
:10476000811350F82330C80500D55B42254984FBEE
:104770000140850045EA947082FB0142A40F44EA9F
:10478000820483FB0121950F45EA8105010E8DF816
:104790000010010C8DF80110010A8DF802108DF83F
:1047A00003006A4604214FF4747001F00FFC4FF0CF
:1047B000FF3688B9200E8DF80000200C8DF801001E
:1047C000200A8DF802008DF803406A4604214FF458
:1047D000757001F0FBFB08B13046F8BD280E8DF86E
:1047E0000000280C8DF80100280A8DF802008DF8D1
:1047F00003506A4604214FF4767001F0E7FBF8BDE0
:104800001008002009E3CA022DE9FF4104463CA03C
:1048100004F00303006802903AA0006803903AA0F5
:1048200006683AA0056802A8C15C8DF80010C4F3C0
:10483000C101425C8DF80120C4F38112805C8DF8C7
:10484000020003A8C35C8DF80430415C8DF80510AC
:10485000805C8DF806006A46032140F2264001F094
:10486000B5FB4FF0FF37E0BB01AA032140F22A401D
:1048700001F0ACFBA8BBCDE9006560070BD59DF846
:10488000000040F001008DF800009DF8040040F0A9
:1048900001008DF80400A0060BD59DF8010040F042
:1048A00001008DF801009DF8050040F001008DF831
:1048B0000500E0050BD59DF8020040F001008DF8E1
:1048C00002009DF8060040F001008DF806006A46DF
:1048D00003214FF4886001F079FB10B901AA03218C
:1048E00000E004E040F2314001F070FB18B13846BE
:1048F00004B0BDE8F081064804810020F8E700001C
:104900004CCD6C000CC92C0036567600264666004D
:10491000100800204FF47A7290FBF2F008B548437B
:10492000010E8DF80010010C8DF80110010A8DF8B0
:1049300002108DF803006A4604214FF4AE7001F0B6
:1049400045FB08BD0521B0FBF1F008B5010A8DF863
:1049500000108DF801006A4602214FF4AD7001F09D
:1049600035FB08BD0521B0FBF1F008B5010A8DF853
:1049700000108DF801006A4602214FF4AC7001F07E
:1049800025FB08BD08B500218DF80010C10702D035
:1049900030218DF80010810705D59DF8001041F0F9
:1049A0000C018DF80010400705D59DF8000040F07F
:1049B00003008DF800006A4601214FF4A47001F055
:1049C00005FB08BD08B560B1042800D90420401ECD
:1049D0008DF800006A46012140F24F1001F0F6FA0E
:1049E00008BD0120F3E7000070B504462DED028BF1
:1049F00082B040074FF0FF357ED0B1F5C86F7BD84D
:104A000000EE101AB8EE400ADFED460A01A880EE6B
:104A1000208A00F00FFD9DF80400022806D004282B
:104A200010D0082835D0102874D13EE09FED3E0A02
:104A300028EE000ABCEEC00A10EE100A9FED3B0AF9
:104A400082B20AE09FED3A0A28EE000ABCEEC00AE4
:104A500010EE100A9FED370A82B228EE000A6E4669
:104A6000BCEEC00A10EE100A81B2100A8DF80000E8
:104A70008DF80120080A8DF802008DF80310E00778
:104A800026D0324602214FF4EA7001F09FFA98BB1B
:104A900017E09FED290A28EE000ABCEEC00A10EECE
:104AA000100A9FED260A82B2D7E79FED250A28EE6D
:104AB000000ABCEEC00A10EE100A9FED220A82B274
:104AC000CBE7B21C02214FF4927001F07FFA98B943
:104AD000A0070DD56A4602214FF4EC7001F076FA7A
:104AE00050B9B21C02214FF4947001F06FFA18B95A
:104AF000600714D56A4600E00CE002214FF4EE7026
:104B000001F064FA30B9B21C02214FF4967001F042
:104B10005DFA20B1284602B0BDEC028B70BD0020CA
:104B2000F9E70000000048430000804600004046CE
:104B3000000000460000C0450000804500004045E0
:104B4000000000450000C0440521B0FBF1F008B5AD
:104B5000010A8DF800108DF801006A4602214FF419
:104B6000EF7001F033FA08BD0521B0FBF1F008B594
:104B7000010A8DF800108DF801006A4602214FF4F9
:104B8000ED7001F023FA08BD82B0CDE9000121F0FB
:104B9000004001909DED000B02B051EC100B7047EE
:104BA00013B54FF47A73012269460248FCF7DEFF21
:104BB00000981CBDC80300201FB50446274802AB5F
:104BC000042240680D210078FDF73EFB10B107205C
:104BD00004B010BD9DF808101C2000EAD1029DF819
:104BE0000B10DFED1F0AC1F301131A438DF80020EB
:104BF0009DF80920C1F3810300EAD2021A438DF81F
:104C000001209DF80A2001F0030100EAD2000843C8
:104C10009FED141A9FED140A8DF8020000216A46D8
:104C2000505C002804EB810002D080ED001A09E0FE
:104C3000C0ED000A0CE000BFD0ED001A61EE801A52
:104C4000C0ED001A535C5B1E13F0FF035354F3D105
:104C5000491CC9B20329E3D30020B9E71C00002096
:104C6000000000007B14AE3E1D5A843F2DE9FE4F2C
:104C700005460120C14E8DF800004FF000088DF868
:104C8000018030680C461746817C70686B460222B2
:104C90000078FDF794FB4FF0FF3A00287AD1C82046
:104CA000FBF764FE8DF8008030686B460122C17B03
:104CB00070680078FDF783FB0028EFD130686B4601
:104CC0000122417970680078FDF779FB0028E5D171
:104CD00030686B460122817C70680078FDF76FFBBD
:104CE0000028DBD130686B460122C17D70680078F6
:104CF000FDF765FB0028D1D130686B4601220179B0
:104D000070680078FDF75BFB0028C7D14FF00C09F5
:104D10008DF8009030686B46012201797068007848
:104D2000FDF74DFB002835D10F20FBF71FFEB06AC1
:104D30006B460122407A8DF80000306881787068F7
:104D40000078FDF73CFB002824D1B06A6B460122B5
:104D5000007A8DF800003068417870680078FDF7BF
:104D60002EFB002873D1B06A807A0FB140F0E000CA
:104D70008DF8000030686B460122817970680078F8
:104D8000FDF71DFB002862D12FB1B06AC07A40F058
:104D9000E00001E04AE018208DF8000030686B4622
:104DA0000122C17970680078FDF709FBF0BB17B1EB
:104DB000C820FBF7DBFD40208DF8000030686B4613
:104DC0000122017970680078FDF7F9FA70BB78204C
:104DD0008DF8000030686B460122417970680078D8
:104DE000FDF7EDFA10BB3220FBF7C0FD8DF8008017
:104DF000306847466B464179706801220078FDF7BC
:104E0000DEFA98B931687068B046897A00786B46E6
:104E10000222FDF719FA48B9BDF80000AF6040BAA8
:104E2000B0FBF9F06F60C6B22F6000E00FE0A76042
:104E300067602760002739E0D8F80010D8F8040030
:104E40006B46C97A00780C22FDF7FEF910B1504686
:104E5000BDE8FE8FBDF80000236840BA00B2BDF87F
:104E60000210BDF804201844206049BA606809B2F5
:104E70000844606052BAA06812B21044A060BDF845
:104E800006002B6840BA01B2BDF80800BDF80A2040
:104E90001944296040BA696800B20844686052BA8F
:104EA000A86812B210447F1CFFB2A860B742C3D3F7
:104EB00028688322C117090441EA10410004002335
:104EC000FBF7B1F932460023FBF7ADF928606868BB
:104ED0008322C117090441EA104100040023FBF7B3
:104EE000A2F932460023FBF79EF96860A868832286
:104EF000C117090441EA104100040023FBF793F9AC
:104F000032460023FBF78FF9A86020684FF4006554
:104F1000C117090441EA104100042A460023FBF7A7
:104F200082F932460023FBF77EF9206060682A464A
:104F3000C117090441EA104100040023FBF773F98B
:104F400032460023FBF76FF96060A0682A46C1175C
:104F5000090441EA104100040023FBF764F93246DA
:104F60000023FBF760F9A060002802DDA0F5803087
:104F700001E000F58030A060002069E71C000020FF
:104F8000F8B506462E480D46002440686B460322BD
:104F900000780D21FDF758F908B10720F8BD9DF8FC
:104FA0000000002200F01F008DF800009DF80100B5
:104FB0009FED241A00F01F008DF801009DF80200FB
:104FC0006B4600F01F008DF80200012156F8220008
:104FD00055F82270C01B00D5404200EE100A985CC4
:104FE000B8EEC00A60EE010AD0B1B3EE090ADFEDF7
:104FF000161A01E020EE210AC0B2401E10F0FF0098
:105000009854F7D1C0EE801AB7EE000A0F4F31EE78
:10501000C00AB0EEC00A10EE100AB84207DC09E080
:1050200010EE900A0A4F3844B0F1D97F02D901FA44
:1050300002F00443521C032AC8DB2046F8BD0000DE
:105040001C0000200000803754E3853F295C0F3EA0
:105050000000E0BE00B5024600F00DF80346D01C8B
:1050600000F009F843EAC003901D00F004F843EA99
:10507000801080B200BD90F90010002902DD4FF0D1
:105080000000704702DA4FF00400704790F90110F9
:10509000002902DD4FF00100704702DA4FF00500F1
:1050A000704790F90200002802DD4FF002007047BF
:1050B00002DA4FF0060070474FF00700704700001B
:1050C0002DED028B88B0FBF72BFF6420FBF74EFC25
:1050D000FDF744FCFDF79CF9FDF73EFAFDF7A4FA55
:1050E000FDF7D4FAFDF706FBFDF738FBFDF7F4F901
:1050F000FDF78AFBFDF710FAFDF764FBFDF724FCD2
:10510000FDF74AF800F044F9044601461AA0FDF7FD
:10511000ABFE002CF6D11E4D9FED1E8A4FF40064AD
:1051200021462846FBF731FD684600F081F8010072
:1051300009D019A0FDF798FE6846FDF783FB6420AF
:10514000FBF714FCECE7FCF7C5FE00EE100AADF827
:105150001800F8EEC00A80EE880A10EE100AFBF77D
:105160004BFA41EC100B13A053EC102BFDF77CFE17
:1051700014A0FDF779FEDFE76D70755F646D705FF9
:10518000696E697420636F64653A2025640D0A00B6
:10519000000C02400000C8426D70755F646D705F66
:1051A0006765745F64617461206661696C3A20258B
:1051B000640D0A0074656D703A2020252E30326629
:1051C0000D0A00002D2D2D2D2D2D2D2D2D2D2D2DAC
:1051D0002D2D2D2D2D0D0A00704700002DE9F041D9
:1051E000124C20F00101002594F8240010B1002099
:1051F000BDE8F081A07A4FF0FF3668B10840277C07
:105200002074884200D0354641B1012000F04CFFA7
:1052100000F09CFB38B127743046E9E7207D00B1EF
:10522000012000F041FF2846E2E700001C000020BA
:1052300010B504462DED0C8B8EB00CA902A8F7EE2C
:1052400000BA0BAB03AACDE9000109A907A8FFF733
:1052500023F920B101200EB0BDEC0C8B10BDBDF8C0
:105260000800C0057ED59DED030AF8EEC00A9FED4B
:10527000450AB0EE00CA60EE809ADDED040AF8EE51
:10528000E00A69EE8CCA20EE808ADDED050AF8EEB0
:10529000E00A60EE808ADDED060AF8EEE00A20EE14
:1052A000809AB8EE000A28EE00BA2BEE090A0CEE3E
:1052B000A80A10EE100AFBF79FF941EC100BFDF75E
:1052C0001FFE9FED31AB51EC100B53EC1A2BFBF78B
:1052D000A1F8FBF7A4F92BEE080A28EE8CDA20607F
:1052E0000DEE680A30EE2B0A10EE100AFBF784F977
:1052F0002DEE090A41EC1B0B0CEE880A10EE100A89
:10530000FBF77AF941EC100BB0EE4B1AF0EE6B1A8A
:10531000FEF712F953EC1A2B51EC100BFBF77AF84D
:10532000FBF77DF929EEA90A606008EE080A08EE8D
:10533000E80A09EE490A10EE100AFBF75DF928EEBB
:10534000280A41EC1B0B09EE890A20EE0C0A10EE2C
:10535000100AFBF751F941EC100BB0EE4B1AF0EECE
:105360006B1A00E00CE0FEF7E7F853EC1A2B51EC57
:10537000100BFBF74FF8FBF752F9A06000206AE72B
:10538000022068E7000080306666666666A64C40CC
:1053900010B5FCF7F5FD00F0F7F808B10A2010BDD4
:1053A000782000F0B7FD10F0FF0F01D0012010BDF4
:1053B0007820FFF713FF10F0FF0F01D0022010BD7F
:1053C000642000F067FD10F0FF0F01D0032010BD36
:1053D000FFF758F810F0FF0F01D0042010BD14485B
:1053E000FFF738FEFFF710FA10F0FF0F01D005208D
:1053F00010BD40F27310FEF71DFF10F0FF0F01D03B
:10540000062010BD6420FFF767F910F0FF0F01D0F0
:10541000072010BD00F004FE08B1082010BD0120D7
:1054200000F05EFC10F0FF00F8D0092010BD000075
:10543000480000200D494A7A42B1012A08D0022AC8
:105440000FD0032A0FD04FF0FF307047022200E048
:1054500004220270C97C11B11106C90D017000202F
:1054600070470822F5E71022F3E700001C00002037
:105470000F494A7A42B1012A09D0022A11D0032ADF
:1054800012D04FF0FF3070474FF4804201E041F6F8
:105490009C720280C97C11B1C2F34E0101800020D0
:1054A00070474FF48052F4E74FF40062F1E70000D8
:1054B0001C0000200B49097A39B1012907D00229C3
:1054C0000AD003290BD0002103E0FA2101E04FF4B8
:1054D000FA710180002070474FF47A71F9E74FF4B8
:1054E000FA61F6E71C0000200D49097A41B1012953
:1054F00009D002290DD003290ED04FF0FF3070479C
:105500009FED080A01E09FED080A80ED000A0020E7
:1055100070479FED060AF8E79FED050AF5E70000E2
:105520001C00002000000343000083423333034289
:10553000333383410C49C97A072913D2DFE801F0DC
:105540001204060A0C0E1000BC2100E0622101804A
:10555000002070472A21FAE71421F8E70A21F6E72C
:105560000521F4E70021F2E71C000020054991F82D
:10557000242012B14FF0FF307047C989018000200C
:10558000704700001C0000202DE9FC414C4C80209D
:105590008DF8000020686B460122817C60680078ED
:1055A000FCF70DFF4FF0FF37002832D16420FBF7E6
:1055B000DDF900258DF8005020686B460122817CC2
:1055C00060680078FCF7FBFE002870D120686B460D
:1055D0000622817D60680078FCF736FE002866D1DF
:1055E0009DF805009DF80310C007400F01F0010170
:1055F00040EA41019DF801004FF0010600F0010072
:10560000014309D0012905D0022915D02DA0FDF7AD
:105610002BFC4CE0E67410E020686B460122C17858
:1056200060680078FCF710FE40BB9DF8000010F0A9
:105630000F0020D0042822D0E574FF2004F80A0FC0
:105640004FF6FF7104F8020C04F8010C6070A180A1
:10565000A0712072A67026766576E572A572E56067
:1056600025616561A576E576A5834FF4FA6000F0C3
:1056700073FB18B907E01D48FDF7F6FB17E01CA007
:10568000FDF7F2FBC6E7022000F088FA78B92A207D
:1056900000F0CAFB58B9322000F0FCFB38B90020FA
:1056A000FFF79CFD18B9002000F0ACFA10B13846A5
:1056B000BDE8FC81002000F02DFC0020F8E7000090
:1056C0001C000020556E737570706F7274656420D5
:1056D000736F6674776172652070726F647563743E
:1056E000207265762025642E0A000000E88C0008F0
:1056F00048616C662073656E736974697669747944
:10570000207061727420666F756E642E0A0000004E
:105710002DE9FF4FDFF89480064685B098F8250004
:1057200015460F464FF0FF39B0BBAFB3002420E061
:10573000301B102800DD102080B283463A19014644
:105740009246204600F042FC30BB6A46594620464D
:1057500000F0D2F800BB50465A466946FAF7A6FD5B
:1057600020B16FF0010009B0BDE8F08F04EB0B0031
:1057700084B2B442DCD3280A8DF810008DF81150A1
:10578000D8F80000444604AB817ED8F80400022219
:105790000078FCF714FE08B14846E4E7012084F8DD
:1057A00025000898E0840020DDE700001C000020B0
:1057B0002DE9F84305464FF0FF39282844D807273C
:1057C000284C00267DB1012000F0FCFA20208DF845
:1057D00000004FF00108012D17D0052D18D88DF8C5
:1057E000018005201FE0002000F0ECFA8DF8006039
:1057F0008DF8017020686B460222817C6068007819
:10580000FCF7DDFD00BB267529E08DF80160E8E7B7
:10581000142D04D802208DF801000A2003E0032093
:105820008DF80100142000F0FFFA9DF801006B468E
:1058300007EB80108DF8010020680222817C6068EF
:105840000078FCF7BCFD10B14846BDE8F88308209D
:10585000A072267384F814800020FFF7BFFC00209C
:10586000F3E700001C0000202DE9F843214C064618
:10587000174694F8240089464FF0FF3890B3A07A79
:1058800080B320686B460222817A60680078FCF75A
:10589000DBFC38BBBDF8000045BAB54202D200209F
:1058A00038701FE060684188B5EB510F11D921684D
:1058B00000786B46497C0122FCF7C6FC90B99DF844
:1058C0000000C00605D500F041F86FF00100BDE80A
:1058D000F8832068F2B24B46C17A60680078FCF722
:1058E000B3FC08B14046F2E7B5FBF6F0401E387055
:1058F0000020ECE71C000020F8B516000D464FF024
:10590000FF371FD0104CA17AE1B1010A8DF80010C9
:10591000C0B28DF80100411960684289914211D8E6
:10592000216800786B46097E0222FCF748FD48B9E1
:105930002068EAB23346417D60680078FCF784FC59
:10594000002800D03846F8BD1C000020F8B5564CA1
:105950004FF0FF36A07A00287DD000258DF800504A
:1059600020686B460122C17B60680078FCF727FD48
:10597000002870D120686B46012241796068007868
:10598000FCF71DFD002866D120686B4601220179D5
:1059900060680078FCF713FD00285CD194F82400BF
:1059A000E0B30C208DF8000020686B4601220179DD
:1059B00060680078FCF703FD002872D13220FAF706
:1059C000D5FFC0208DF80000A07AC00702D0E020EB
:1059D0008DF8000020686B4601220179606800782C
:1059E000FCF7EDFC00285CD1607C18B102208DF83A
:1059F000000001E08DF8005020686B460122C17B59
:105A000060680078FCF7DBFC28BB8DF8005020684C
:105A10006B4601224179606800783EE0FFE7042090
:105A20008DF8000020686B460122017960680078DB
:105A3000FCF7C5FC78B9A07C90B9A07AC0070FD05C
:105A40005FF060008DF8000020686B46012201794C
:105A50006068007800E024E0FCF7B1FC08BB01E0DE
:105A60004020EFE73220FAF781FF607C18B1012077
:105A70008DF8000001E08DF8005020686B4601228F
:105A8000C17B60680078FCF79AFC50B92068064B2F
:105A900001224179606810330078FCF790FC0028FF
:105AA00000D03046F8BD00001C0000202DE9F04772
:105AB000394C82468AB094F824000F4620B1002069
:105AC00000F00EF9012600E0002607A8FFF7F2FC1F
:105AD00006A8FFF7AFFC09A8FFF72CFD08A8FFF701
