:020000040800F2
:10000000884600200501000833270008CB1D0008A2
:1000100031270008130B0008412C000800000000E5
:10002000000000000000000000000000332800086D
:10003000150B0008000000003128000835280008D2
:100040001F0100081F0100081F0100081F01000810
:100050001F0100081F0100081F0100081F01000800
:100060001F0100081F0100081F0100081F010008F0
:100070001F0100081F0100081F0100081F010008E0
:100080001F0100081F0100081F0100081F010008D0
:100090001F0100081F0100081F0100081F010008C0
:1000A0001F0100081F0100081F0100081F010008B0
:1000B0001F0100081F0100081F0100081F010008A0
:1000C0001F0100081F0100081F0100081F01000890
:1000D0001F010008352C00081F0100081F0100083F
:1000E0001F0100081F0100081F010008DFF810D0E1
:1000F00000F0ACFC004800477D4B0008AFF30080E7
:10010000884600200648804706480047FEE7FEE78D
:10011000FEE7FEE7FEE7FEE7FEE7FEE7FEE7FEE7B7
:1001200097280008ED0000082DE9F0410024061B87
:10013000254671F1000605DA01240027D0EB0700FF
:1001400067EB0101161E73F1000605DA0027D2EBFA
:100150000702012567EB030300F033FB86460E46DA
:1001600017469C46AC4204D00025D0EB050E65EB4B
:10017000010624B10020D2EB000760EB030C7046AF
:1001800031463A466346BDE8F081202A04DB203A36
:1001900021FA02F00021704721FA02F3D040C2F1A7
:1001A00020029140084319467047D2B201E000F89E
:1001B000012B491EFBD270470022F6E710B513460B
:1001C0000A4604461946FFF7F0FF204610BD30B539
:1001D00004460020034600E05B1C934203D2E05C2F
:1001E000CD5C401BF8D030BDF0B480EA0102D40FE2
:1001F0004200B2EB410F02D20246084611464A00C5
:1002000042D0C30DDDB2C1F3C752AD1A202D35DA8D
:10021000C1F3160141F4000204B15242C5F12006B7
:1002200002FA06F12A411044B3EBD05F23D0C4B1E7
:10023000012DA0EBC35009DCF0BC4FF0004202EAF4
:10024000C352DBB200F5000000F016BB400000F125
:10025000807000EBC350A0F1807040EAD17049007B
:1002600009E0490841EAC071A0EBC35000F5000065
:10027000400800EBC350F0BC00F0F5BA6142012227
:1002800002EB4101001BF6E7F0BC704781F0004132
:10029000AAE780F00040A7E780EA010210B502F06B
:1002A0000043400022D04A001FD0010E01EB126132
:1002B000C0F35600C2F3560240F4000042F40002BC
:1002C000A0FB022000047F39140400D0401C50EA37
:1002D000124001D44000491EC2B20C0604EBD010FB
:1002E000401C4008802A02D003E0002010BD20F00E
:1002F0000100002900DA0020184310BD30B480EA64
:10030000010202F0004530F0004221F0004013D01D
:1003100090B1C30DD40DC2F31601C0F31600E41A58
:1003200041F4000140F400027D34914201D3641C89
:1003300000E04900002C02DA30BC002070474FF486
:1003400000000023914201D3891A034340084FEA79
:100350004101F7D151B1914202D14FF0004105E086
:1003600002D24FF0010101E06FF0010103EBC45034
:10037000284430BC00F077BA420005D0C0F3C75221
:100380005242914201DC0020704700EBC15070479F
:100390002DE9FE4F804681EA0300C00F0C46009015
:1003A00021F0004123F00045B8EB0200A94105D23D
:1003B0004046214690461C460B46024623F000402C
:1003C000104347D0270DC7F30A00C3F30A51029028
:1003D000401A019040286BDAC3F3130040F4801BED
:1003E0000098924620B10023D2EB030A63EB0B0B7B
:1003F00001985946C0F14002504600F013FA0646F3
:100400000D4650465946019A00F01BFA10EB0800C1
:100410006141002487EA115284EAE7731A4340D00D
:10042000009A62B3019A012A4FEA075215DC001BB9
:1004300061EB02014FF0004202EA0752CDE90042AF
:10044000001C41F5801132462B4600F052FA03B0F1
:10045000BDE8F08F40462146F9E7001B61EB020141
:10046000001C41F5801300185B412018A2F500170D
:1004700047EB030140EAD570B6196D4111E06D08F4
:100480004FEA360645EAC0754FEA0752001B61EB9A
:100490000201001C41F5801149084FEA30000019A3
:1004A000514132462B4603B0BDE8F04F00F012BA7E
:1004B0000098012240000023D0EB020263EBE073BE
:1004C000009821464FEAE074B8EB000061EB0401AC
:1004D000E9E783F000435BE781F0004158E72DE94D
:1004E000FE4F81EA030404F0004421F0004100942F
:1004F0004FF0000B23F0004350EA01045ED052EAB3
:1005000003045BD0C3F30A54C1F30A552C44A4F28C
:10051000F3340194A0FB0254C1F3130141F48011A0
:10052000C3F3130343F4801301FB024400FB034EA7
:10053000840A970A44EA815447EA8357A4FB076870
:1005400002958D0A05FB07854FEA932C04FB0C549A
:100550002705029D4FEA065847EA1637B5EB08050E
:100560006EEB070C870E920E47EA811742EA831260
:10057000A7FB0201B6EB0B0164EB00042B0D43EA71
:100580000C335E1844EB1C50DA465146E7FB02017F
:10059000C5F313044FEA0B3343EA14534FEA043212
:1005A000019C43EA0603A4F10C040294009CCDE9EB
:1005B00000B400F09EF903B0BDE8F08F00200146C2
:1005C000F9E72DE9F04D81EA030404F0004B21F036
:1005D000004514464FF0000A23F0004150EA05029E
:1005E00020D054EA01021DD0C5F30A570246C5F3D4
:1005F0001303C1F31300C1F30A5640F4801543F40A
:100600008013A7EB0608101BD64608F2FD3873EBE3
:10061000050002D308F1010801E092185B41B8F12E
:10062000000F03DA00200146BDE8F08D00204FF4F2
:100630008011064684460EE0171B73EB050705D3B1
:10064000121B63EB050306434CEA010C49084FEA11
:10065000300092185B4150EA0107EDD152EA0300E5
:1006600012D082EA040083EA0501084305D0101B7A
:10067000AB4106D20122002306E000224FF00043E6
:1006800002E06FF0010253101AEB06004CEB085128
:1006900010EB0A0041EB0B01BDE8F04D00F01AB978
:1006A000C10F80EAE0700844CA079623002100F0D9
:1006B000E3B896230022114600F0DEB80EB5C10F54
:1006C00080EAE0700844CA07002140F233438DE815
:1006D0000E000A460B4600F00CF903B000BD00F016
:1006E000004220F00040C10DC0F3160040F40000AD
:1006F0007F2901DA00207047962903DCC1F19601B9
:10070000C84001E096398840002AF4D04042704742
:1007100020F00040C10DC0F3160040F400007F2916
:1007200001DA00207047962903DCC1F19601C84028
:10073000704796398840704700F0004230F0004022
:100740000AD0C10D01F56071C0F3160042EA0151F3
:10075000C20840071143704700200146704701F06E
:10076000004330B421F0004150EA010206D00A0DE6
:10077000A2F56072C1F31301002A02DC30BC002034
:100780007047440F44EAC104C100E01830BC00EBDC
:10079000C25000F068B830B50B4601460020202258
:1007A000012409E021FA02F59D4205D303FA02F57E
:1007B000491B04FA02F52844151EA2F10102F1DCDE
:1007C00030BD2DE9F05F0546002092469B468846E5
:1007D0000646814640241BE02846414647462246BD
:1007E000FFF7D3FC53465A46C01A914110D3114625
:1007F0001846224600F016F82D1A67EB01084F46FE
:1008000022460120002100F00DF817EB00094E41AF
:10081000201EA4F10104DFDC484631462A46434647
:10082000BDE8F09F202A04DB203A00FA02F1002004
:1008300070479140C2F1200320FA03F3194390401E
:100840007047202A06DBCB17203A41FA02F043EA30
:10085000E07306E041FA02F3D040C2F12002914079
:100860000843194670470029A8BF7047401C49003B
:1008700008BF20F00100704710B4B0FA80FC00FA05
:100880000CF050EA010404BF10BC704749B1CCF130
:10089000200421FA04F411FA0CF118BF01212143BC
:1008A0000843A3EB0C01CB1D4FEA00614FEA102077
:1008B00042BF002010BC704700EBC3501044002919
:1008C000A4BF10BC7047401C490008BF20F00100C5
:1008D00010BC704710B5141E73F1000408DA401CF8
:1008E00041F1000192185B411A4301D120F001004F
:1008F00010BD2DE9F04D92469B4611B1B1FA81F23F
:1009000002E0B0FA80F220329046FFF78BFF0446F7
:100910000F4640EA0A0041EA0B0153465A46084393
:1009200013D0114653EA010019D0C8F140025046D5
:10093000FFF72BFC05460E46504659464246FFF748
:1009400071FF084305D0012004E020463946BDE888
:10095000F08D0020054346EAE0762C4337430A98A1
:100960006305E40AA0EB08000022FD0A44EA4754AC
:100970000A3002D500200146E9E701051019694156
:10098000DDE9084500196941BDE8F04DA2E770B501
:1009900021F0004303430CD0C1F30A550024D5EBEA
:1009A000040564EB0403D617AD1AB34102DB002043
:1009B000014670BD201841EB025170BDC1F30A52CF
:1009C000C1F3130140F2FF3341F480119A4202DA7D
:1009D00000200146704740F233439A42A2F233426C
:1009E00002DC5242FFF7D1BBFFF71CBF30B5041E3B
:1009F00071F1000404DB4FF00044404264EB01015C
:100A0000141E73F1000405DB1C464FF000435242F4
:100A100063EB04038B4208BF824230BD30B5041E35
:100A200071F1000404DB4FF00044404264EB01012B
:100A3000141E73F1000405DB1C464FF000435242C4
:100A400063EB0403994208BF904230BD064C074D4A
:100A500006E0E06840F0010394E80700984710348E
:100A6000AC42F6D3FFF746FB088800082888000848
:100A70002DE9F04D00231A461B1A8A4103DB0020A2
:100A80000146BDE8F08DC1F30A52C1F3130141F4F0
:100A900080154FF0000BD10702D100186D41521E96
:100AA0000027044640F2FF11384601EB620A3E4639
:100AB0008046024600204FF48011FFF766FBC21902
:100AC0007141BB1846EB0100B4EB030C75EB000C55
:100AD00004D3E41A65EB000517460E46241908F105
:100AE00001006D4180463428E3DDF91946EB06002C
:100AF000091BA84103D24FF0FF32134601E0002248
:100B000013461BEB070046EB0A51BDE8F04DFFF71B
:100B1000E1BEFEE7704772B6FEE710B590F821100F
:100B20000022022905D00421816380F820200120C1
:100B300010BD01680B6823F00E030B6001680B68A1
:100B400023F001030B6090F84030C46B012101FADF
:100B500003F3636080F8211080F82020104610BD58
:100B600010B590F821100024022903D004218163DC
:100B700001243DE001680A6822F00E020A60016863
:100B80000A6822F001020A601A4A0168914201D102
:100B9000012121E0174A1432914201D110211BE0BA
:100BA000144A2832914201D1891515E0114A3C328C
:100BB000914201D189140FE00E4A5032914202D184
:100BC0004FF4803108E00B4A6432914202D14FF475
:100BD000801101E04FF08071064A083A516001210E
:100BE00080F82110002180F82010416B01B1884766
:100BF000204610BD0800024070B5044600F010F910
:100C00000546601C02D004480078044400F008F94E
:100C1000401BA042FAD370BD240000202DE9F84FFC
:100C2000DFF8B8910024A9F1040B23460F2709F13E
:100C3000040AABF1040EC9E00125A5402A40AA42EE
:100C40007DD1674ED1F804C0ACEB0608B44532D074
:100C500014DCBCF1030F3AD009DCBCF1000F2AD040
:100C6000BCF1010F1CD0BCF1020F31D11DE0BCF171
:100C7000110F17D0BCF1120F2AD119E0B8F5881F57
:100C800019D006DCB8F5803F15D0B8F5801F1FD10C
:100C900011E0B8F5001F0ED0B8F5041F18D10AE016
:100CA000CB6815E0CB681B1D12E0CB6808330FE062
:100CB000CB680C330CE08B682BB1012B4FF0080391
:100CC00003D0456104E0042302E0056100E0002355
:100CD000FF2A01D8064601E000F104064FEA840528
:100CE00001D9A5F12005D6F8008007FA05FC28EA0D
:100CF0000C0803FA05F548EA0508C6F800804D68B7
:100D0000ED0062D5374DAE6946F00106AE61AD69C2
:100D100024F0030605F001050095334D06EB050CA4
:100D2000DCF80850A607360F07FA06F825EA08058A
:100D3000DFF8B880404503D14FF0000817E044E0E9
:100D4000DFF8AC80404502D14FF001080FE0DFF83A
:100D5000A480404502D14FF0020808E0DFF89880F7
:100D6000404502D14FF0030801E04FF0040808FAB3
:100D700006F848EA0508CCF808804D68D9F8006004
:100D8000ED024D4601D5164300E096432E604D68B6
:100D9000DAF80060AD02554601D5164300E09643EF
:100DA0002E604D68DBF80060AD035D4601D516434B
:100DB00000E096432E604D68DEF80060ED03754656
:100DC00001D5164300E096432E60641C0D682A4648
:100DD000E5407FF431AFBDE8F88F00000804014022
:100DE0000000111000100240000001400008014006
:100DF000000C0140001001400014014080680840D0
:100E000000D001207047C26821EA02030A4043EA89
:100E10000241016170470AB1016170470904FBE7B3
:100E200001488068704700002400002070B504006D
:100E300025D094F83D00002520B984F83C50204688
:100E400000F04EF9242084F83D002068016821F06C
:100E5000010101602068016841F4004101602068DF
:100E6000016821F40041016000F096FA4D4A616882
:100E7000914201D84C4900E04C49884201D20120FE
:100E800070BD4B492368B0FBF1F15E6826F03F0668
:100E90000E435E606368934206D94FF496735943DC
:100EA0004FF47A73B1FBF3F12368491C1E6A26F0F4
:100EB0003F06314319626168914210D84900401ED3
:100EC000B0FBF1F2521CC2F30B02042A01D204203F
:100ED00022E0B0FBF1F0401CC0F30B001CE0A26864
:100EE000F2B301EBC10303EB0116431EB3FBF6F3B0
:100EF0005B1C43F480431B0549D092B301EBC10254
:100F000002EB0111401EB0FBF1F0401CC0F30B00DE
:100F100040F4804040F400402168CA694CF6FF73F9
:100F20009A431043C861D4E907100143206802685E
:100F300022F0C00211430160D4E90301014320689B
:100F4000826848F2FF339A4311438160D4E9050176
:100F500008432168CA6822F0FF021043C86001E01C
:100F60000EE016E02068016841F00101016025648F
:100F7000202084F83D00256384F83E50002070BD99
:100F800001EB4106431EB3FBF6F35B1CB3E7012004
:100F9000C2E701EB4101401EB0FBF1F0401CC0F381
:100FA0000B00B7E7A086010080841E0000093D0009
:100FB00040420F002DE9F84F1F4690468A460446EE
:100FC000DDF82890FFF72CFF054694F83D00202817
:100FD0007FD11923012240492046009500F088FF67
:100FE000002876D194F83C00012872D0012084F8C2
:100FF0003C0020680168C90703D1016841F0010184
:1010000001602068016821F400610160212084F8FA
:101010003D00102084F83E0000262664C4F8248099
:101020006785608D20852D48E0622B464A465146F3
:10103000204600F0E3FE90B9206841698069009085
:1010400036E02A464946204600F0F8FF50B1206CB1
:10105000042804D12068016841F400710160012076
:10106000BDE8F88F606A216800780861606A401CFA
:101070006062618D491E6185218D491E89B221857D
:1010800022685369DB435B070BD451B100781061D0
:10109000606A401C6062608D401E6085208D401E2D
:1010A00020852A464946204600F0F6FE0028CED18B
:1010B000208D0028C5D154F83D0B016841F4007122
:1010C0000160202004F81E09E67766770020C7E754
:1010D000FFE70220C4E70000020010000000FFFF4D
:1010E00010B586B000210091019102910391006832
:1010F0000F4988421AD10F4CA06940F00800A06146
:10110000A069694600F008000490C02000901220F9
:101110000190032003900848FFF780FDE06940F448
:101120000010E061E06900F40010049006B010BD0A
:101130000054004000100240000C01400248816849
:10114000027811448160704724000020074810B5E0
:10115000016841F010010160032000F075F80F20D4
:1011600000F006F800F024F8002010BD0020024036
:1011700070B50D4D04464FF47A712878B1FBF0F04C
:101180000A490968B1FBF0F000F0DCFA48B9102C0C
:1011900007D200222146501E00F036F800206C6075
:1011A00070BD012070BD0000240000203000002030
:1011B0000C4808B5816941F001018161816901F044
:1011C00001010091C16941F08051C161C06900F025
:1011D000805000900448416821F0E06141F00071C6
:1011E000416008BD0010024000000140002809DBFA
:1011F00000F01F02012191404009800000F1E02031
:10120000C0F8001170470000F0B40E4B1B680C468C
:10121000C3F30223C3F10705042D00D90425191DCA
:10122000072901D2002300E0DB1E012606FA05F1A2
:10123000491E214099409E40761E16403143F0BC25
:1012400001F038BD0CED00E0064900F00702086827
:101250004FF6FF03184040EA0220034A104308609B
:10126000704700000CED00E00000FA052DE9F047A2
:101270000F46050061D0434E306800F00700B842C9
:1012800009D2306820F0070038433060306800F041
:101290000700B84251D128683B4C810712D540075E
:1012A00003D5606840F4E06060602878000703D5EB
:1012B000606840F4605060606068A96820F0F000E9
:1012C000084360602878C00728D06868012810D0DB
:1012D0002168022810D0890700292EDA616821F0E0
:1012E000030101436160FFF79BFD804641F28839AD
:1012F0000DE021688903EFE78901EDE7FFF790FD35
:10130000A0EB0801494502D90320BDE8F0876068D9
:10131000696800F00C00B0EB810FEFD1306800F08D
:101320000700B8420BD9306820F00700384330601E
:10133000306800F00700B84201D00120E5E72878C6
:10134000400705D56068E96820F4E0600843606004
:101350002878000706D56068296920F4605040EAC3
:10136000C100606000F038F86168084AC1F30311F9
:10137000515CC8400649086006480068FFF7F8FE5F
:101380000020C2E70020024000100240EC69000883
:101390003000002028000020044805490068496802
:1013A000044AC1F30221515CC8407047300000205C
:1013B00000100240FC6900080448054900684968BB
:1013C000044AC1F3C221515CC8407047300000207C
:1013D00000100240FC6900080E4A51680E4801F0F6
:1013E0000C03042B11D0082B0FD10C48C1F38343FD
:1013F000C903C05C0AD55168084AC1F34041921E36
:10140000515C054A5043B0FBF1F070470449484332
:10141000704700000010024000127A00DC690008EA
:1014200000093D002DE9F84F040070D02078C04D30
:10143000C00749D06868C0F38100012807D06868F8
:10144000C0F38100022809D16868C00306D5286866
:10145000800339D560680028E7D035E06068B0F5D2
:10146000803F0BD010B1B0F5A02F11D0286820F428
:1014700080302860286820F4802002E0286840F44A
:1014800080302860606890B1FFF7CAFC06460AE029
:10149000286840F480202860F0E700BFFFF7C0FC18
:1014A000801B642873D828688003F7D50CE0FFF709
:1014B000B7FC064605E000BFFFF7B2FC801B6428BE
:1014C000F0D828688003F7D420789A4E80074FF030
:1014D00001094FF0000839D5686810F00C0F07D0EB
:1014E0006868C0F38100022809D16868C00306D487
:1014F0002868800714D52069012808D110E02069E8
:10150000B0B1C6F80090FFF78BFC074605E00AE192
:10151000FFF786FCC01B0228C4D828688007F7D5CF
:101520002868616920F0F80040EAC10028600DE0F9
:10153000C6F80080FFF774FC074604E0FFF770FC74
:10154000C01B022823D828688007F7D4207800071A
:101550002CD57948A169D9B1C0F80090FFF760FC9B
:10156000074604E0FFF75CFCC01B02280FD8686A3E
:101570008007F7D571484FF4FA510068B0FBF1F0DD
:10158000009000BF0098411E0091FAD20EE080E06A
:10159000C0F80080FFF744FC074604E0FFF740FC7A
:1015A000C01B022875D8686A8007F7D420784007E6
:1015B00060D5E8690027C00008D4E86940F0805091
:1015C000E861E869012700F0805000905C480168FC
:1015D000C90513D40168834641F480710160FFF7A7
:1015E0001FFC824606E000BFFFF71AFCA0EB0A00D2
:1015F00064284ED8DBF80000C005F5D5E068012866
:101600000AD008B1052813D0286A20F0010028620A
:10161000286A20F0040002E0286A40F001002862F5
:10162000E06841F2883B98B1FFF7FAFB82460BE095
:10163000286A40F004002862EEE700BFFFF7F0FBE5
:10164000A0EB0A0159455AD8286A8007F6D50CE064
:10165000FFF7E6FB824605E0FFF7E2FBA0EB0A019D
:1016600059454CD8286A8007F6D41FB1E86920F0A4
:101670008050E861E06988B36968C1F3810102299B
:1016800044D00228C6F8608004D0FFF7C9FB0446A6
:1016900038E034E0FFF7C4FB074604E0FFF7C0FB87
:1016A000C01B02282BD828688001F7D4206AB0F527
:1016B000803F05D16868A16820F400300843686065
:1016C000D4E908010843696821F47411084368608B
:1016D000C6F86090FFF7A4FB044606E025E000BFD3
:1016E000FFF79EFB001B022809D828688001F7D568
:1016F0001BE000BFFFF794FB001B022802D9032068
:10170000BDE8F88F28688001F4D40EE00128F7D0F6
:101710006868226A00F48031914204D1616A00F461
:101720007010884201D00120EAE70020E8E70000BD
:10173000001002400000424280044242300000207B
:101740000070004010B5401EB0F1807F01D3012031
:1017500010BD4FF0E02460610F21601701F0AAFA7C
:101760000020A06107202061002010BD70B590F816
:101770003C20012A26D0012480F83C40022280F837
:101780003D2003685A689D6822F070060A6832435B
:101790005A600D4B02689A4208D0B2F1804F05D0D2
:1017A0000A4B9A4202D00A4B9A4204D1496825F06A
:1017B00080031943916080F83D40002180F83C107F
:1017C000084670BD022070BD002C0140000400409E
:1017D0000008004010B5040003D094F83D0010B19B
:1017E00007E0012010BD002084F83C00204600F0F6
:1017F0001FF8022084F83D00211D206801F04CF8FC
:10180000012084F8460084F83E0084F83F0084F804
:10181000400084F8410084F8420084F8430084F8D2
:10182000440084F8450084F83D00002010BD00000D
:1018300008B500680649884208D10648816941F424
:1018400000618161806900F40060009008BD0000C3
:10185000002C01400010024070B5044690F83C0096
:101860000025012817D0012684F83C60022084F866
:101870003D002068826822F0770222F47F42826075
:101880000868502838D00DDC20284FD005DC90B3F4
:10189000102811D14AE0022070BD302846D04028DF
:1018A0000AD13BE060282FD070280DD0B0F5805FC2
:1018B00003D0B0F5005F12D0012584F83D60002010
:1018C00084F83C00284670BDCB68D1E9012120682E
:1018D00001F018F82068816841F0770109E0CB68D1
:1018E000D1E90121206801F00DF82068816841F4F8
:1018F00080418160E1E719E0CA684968206801F029
:1019000013F85021206806E0CA684968206801F091
:101910001CF86021206800F0FFFFCEE7CA68496824
:10192000206801F001F840212068F4E722680146B0
:101930001046F0E770477047F8B50168044608683C
:10194000CA684B6910F00F0F4FF0000559D003F033
:10195000010602F49077374365D0C10705D0D10561
:1019600003D5616C41F001016164410705D5D907D8
:1019700003D0616C41F002016164810705D5D9078C
:1019800003D0616C41F004016164010707D502F0E6
:101990002001314303D0616C41F008016164616C46
:1019A00000293AD0800604D5900602D5204601F0E1
:1019B0002CF820684069616CC0F38010090700D4DE
:1019C00060B3204600F0FAFF20684069400621D548
:1019D0002068143050E8001F21F0400140E8001258
:1019E000002AF5D1E06BA8B16D494163E06BFFF7C8
:1019F000B7F8002811D0E06B416B01B0BDE8F040B2
:101A0000084783060FD593060DD52046BDE8F8405C
:101A100000F0FBBF2046FFF78EFFF8BD2046FFF722
:101A20008AFF6564F8BD266B2023012E7CD1C60693
:101A30007AD5D60678D508684868009048694FF08E
:101A40000206400640D5E16B086840680004000CBF
:101A5000E8D0A28D8242E5D9E085886920282DD082
:101A600020680C3050E8001F21F4807140E800121B
:101A7000002AF5D12068143050E8001F21F0010140
:101A800040E80012002AF5D12068143050E8001F09
:101A900021F0400140E80012002AF5D184F84230DC
:101AA000256320680C3050E8001F21F0100140E849
:101AB0000012002AF5D1E06BFFF72FF86663A08DC6
:101AC000E18D401A81B22AE0A08DE18D401A81B2E9
:101AD000E08D0028A6D00029A4D022680C3252E85C
:101AE000000F20F4907042E80007002FF5D1206825
:101AF000143050E8002F22F0010240E80027002FA8
:101B0000F5D184F84230256320680C3050E8002F6E
:101B100022F0100240E80023002BF5D16663204636
:101B2000FFF708FFF8BDFFE705062BD5150629D5F9
:101B300094F841002128F5D1A068B0F5805F01D16B
:101B40002069B0B1206A411C216221680078486098
:101B5000E08C401E0004000CE084E3D12068C168E2
:101B600021F08001C1602068C16841F04001C1607E
:101B7000D8E7206A0088C0F308004860206A801C0B
:101B80002062E5E74006CDD55006CBD5CA68204691
:101B900022F04002CA6084F8413000F015F9C1E734
:101BA000AD29000870B5040004D094F84100002568
:101BB00010B106E0012070BD84F84050204600F0CE
:101BC00023F8242084F841002068C16821F40051E2
:101BD000C160204600F07AFF2068016921F490413D
:101BE00001612068416921F02A0141612068C168D2
:101BF00041F40051C1606564202084F8410084F8FC
:101C000042006563002070BD30B585B000240094AB
:101C10000194029403940068184988422CD1184812
:101C2000816941F480418161816901F480410491BD
:101C3000816941F0040181618069124D00F0040066
:101C400004904FF400700090022001900320039054
:101C500069462846FEF7E2FF2815CDE900046946EB
:101C600028460294FEF7DAFF002211462520FFF7EE
:101C7000CBFA2520FFF7BAFA05B030BD0038014095
:101C8000001002400008014090F84230202B01D0A3
:101C90000220704721B11AB10023036300F072BF24
:101CA0000120704710B50068104988421DD10C22F0
:101CB0000F49104800F06FF80D48401E0078312899
:101CC00002D0302802D002E0002400E001242246A5
:101CD0004FF400510848FFF79EF805490122BDE87E
:101CE0001040491E0348FFF7CFBF10BD0038014028
:101CF000150000202C020020001001402DE9F843BF
:101D0000044690F841001F4616460D46202802D092
:101D10000220BDE8F8837DB176B100206064212007
:101D200084F84100FFF77CF8A6848046E684A0682A
:101D3000B0F5805F02D003E00120EAE7206910B12E
:101D40002E4600250EE000260CE08021204600F003
:101D500034FFA0B9AEB116F8010B21684860E08CE1
:101D6000401EE084E08C43464FF0000200970028BC
:101D7000EBD14FF04001204600F01FFF30B10320AF
:101D8000C7E735F8020BC0F30800E6E7202084F827
:101D900041000020BDE790F84130202B01D0022007
:101DA000704779B172B101628284C28400214164BA
:101DB000212180F841100068C16841F08001C160B4
:101DC00000207047012070477047FEE701684A69AC
:101DD000D24352050FD46FF480624A61002140F86B
:101DE000301F202242738173026942F004020261B3
:101DF000017301207047002070470000F8B50446C9
:101E0000C06A1E460D461746082807D0012805D08F
:101E100010F5803F02D0206B122804D120680168A1
:101E200041F480710160134600224FF001112046F9
:101E3000009600F05DF840B120680068C00502D54A
:101E40004FF4007020640320F8BD2069B0F5804F86
:101E50000ED00620216800EAD51040F0F00008619D
:101E600033463A460B49204600F08AF878B902E03A
:101E700005F0FE0000E0E8B221680861054933463C
:101E80003A46891F204600F07BF80028DCD001206C
:101E9000F8BD00000800010070B516460D46044666
:101EA0001EE02046FFF792FF08B1012070BD681CBC
:101EB00016D0FEF7B5FF801BA84200D885B9206870
:101EC0004069C04340070BD5002044F8300F202163
:101ED0006173A073216941F0200121612073E4E75F
:101EE00020684069C0434007DBD4002070BD00007B
:101EF0002DE9F047984617460D460446C1F30746BC
:101F0000DDF820902AE000BFB8F1FF3F26D0FEF7B1
:101F100087FFA0EB0901414502D8B8F1000F1DD1A0
:101F20002068012E16D0806925EA00000004000C0C
:101F300012D00020B84211D1002044F8300F2021E7
:101F40006173A073216941F0200121612073012098
:101F5000BDE8F0874069E7E70120EBE72068012E44
:101F60000AD0806925EA00000004000C06D0002099
:101F7000B842C9D00020EBE74069F3E70120F7E75A
:101F80002DE9F047984616460D4604464FF00009E5
:101F90004FF0200AC1F3074723E020684069C0439F
:101FA000400515D42068016841F400710160216882
:101FB0006FF480604861C4F8309084F83DA084F8E4
:101FC0003E90216C41F00401216484F83C9021E0B2
:101FD000701C06D0FEF724FFA0EB0800B04203D827
:101FE00016B1012F1FD021E02068012F15D0806984
:101FF00025EA00000004000C18D000BF44F8309F10
:1020000084F80DA084F80E90216941F0200121612F
:1020100084F80C900120BDE8F087406925EA0000B3
:102020000004000CEAD12068406901E02068806962
:1020300025EA00000004000CAFD1ECE770B51646AD
:102040000D4604461EE02046FFF7C0FE08B1012001
:1020500070BD681C16D0FEF7E3FE801BA84200D8B6
:1020600085B920684069C04300060BD5002044F8BC
:10207000300F20216173A073216941F0200121619B
:102080002073E4E720684069C0430006DBD40020E9
:1020900070BD000008B56B4602224121682000F0A7
:1020A000A7F9BDF8000040BA00B2FEF707FB002216
:1020B000074BFEF786FA074A074BFEF769F9FEF76A
:1020C0004EFB0649FEF7E8F8FEF709FB00B208BD33
:1020D00000407540A4703D0AD74342400000C8420A
:1020E00070B5104D4FF48064002221462846FEF75B
:1020F00092FE00F0C3F9002261002846FEF78BFE35
:10210000022000F035FC012221462846FEF783FE1E
:10211000022000F02DFC21462846BDE87040002238
:10212000FEF779BE000C01407047000070B5104DFD
:102130004FF48064002221462846FEF76CFE00F032
:102140009DF90122D1022846FEF765FE022000F02B
:102150000FFC012221462846FEF75DFE022000F01A
:1021600007FC21462846BDE870400022FEF753BE1A
:10217000000C01402DE9F0478046002400F06EF984
:10218000164F00254FF480664FF400690022314657
:102190003846FEF740FE022000F0EAFB01223146FD
:1021A0003846FEF738FE6006040E49463846FEF70C
:1021B00025FE08B1641CE4B2022000F0D9FB6D1CBE
:1021C000EDB2082DE2D3B8F1000F04D0FFF788FF7D
:1021D0002046BDE8F087FFF7A9FFF9E7000C0140B2
:1021E0002DE9F041054600F049F9164F4FF480669D
:1021F000002231463846FEF70EFE00244FF40068F8
:10220000280601D5012200E0002241463846FEF7AB
:1022100002FE6806050E012231463846FEF7FBFD38
:10222000022000F0A5FB002231463846FEF7F3FD00
:10223000022000F09DFB641CE4B2082CE0D3BDE852
:10224000F0810000000C014070B500F017F9012288
:102250000E4DD40221462846FEF7DDFD01229602EE
:1022600031462846FEF7D7FD022000F081FB002210
:1022700021462846FEF7CFFD022000F079FB3146CB
:102280002846BDE870400022FEF7C5BD000C0140A5
:1022900070B500F0F3F8104D4FF480640022214631
:1022A0002846FEF7B8FD6600002231462846FEF7B4
:1022B000B2FD022000F05CFB012221462846FEF719
:1022C000AAFD012231462846FEF7A5FDBDE8704073
:1022D000022000F04DBB0000000C01402DE9F04150
:1022E000002400F0BBF80122144DD60231462846E6
:1022F000FEF791FD022000F03BFB012297023946D8
:102300002846FEF788FD022000F032FB08E0641C3E
:10231000E4B2FA2C04D9FFF7BBFF0120BDE8F0813D
:1023200031462846FEF76AFD0028F0D100223946E2
:102330002846FEF770FD0020F0E70000000C014089
:1023400010B5FFF7F1FE80216B2000F0E2F8642069
:10235000FEF752FC00216B2000F0DBF8032000F0B8
:10236000A4F8002000F09CF8322000F0BBF8002117
:10237000382000F0CEF800216A2000F0CAF80021D1
:10238000232000F0C6F88021372000F0C2F8752025
:1023900000F011F8682801D0012010BD01216B2048
:1023A00000F0B7F800216C2000F0B3F8322000F004
:1023B00099F8002010BD10B50446FFF745FFD02066
:1023C000FFF70EFFFFF78AFF2046FFF709FFFFF731
:1023D00085FFFFF739FFD120FFF702FFFFF77EFFF0
:1023E0000020FFF7C7FE0446FFF752FF204610BD4E
:1023F0002DE9F0411D4614460F460646FFF724FF1F
:102400007006000EFFF7ECFEFFF768FF20B1FFF744
:102410003FFF0120BDE8F0813846FFF7E1FEFFF7FE
:102420005DFFFFF711FF012000EB4600C0B2FFF790
:10243000D7FEFFF753FF09E0012C0DD05FF001003C
:10244000FFF798FE641E05F8010BE4B2002CF3D1EF
:10245000FFF71EFF0020DDE70020F1E71FB5002099
:10246000019002904FF400600090032003906946B1
:102470000148FEF7D3FB1FBD000C01401FB5002033
:1024800002904FF40060009011200190032003900F
:1024900069460248FEF7C2FB1FBD0000000C014068
:1024A000C006010E1C2000F034B8C006010E1B202F
:1024B00000F02FB8BC2801D3012110E0622801D31D
:1024C00002210CE02A2801D3032108E0142801D3BB
:1024D000042104E00A2801D3052100E006211A2086
:1024E00000F017B810B504464FF47A70844201D951
:1024F000044602E0042C00D20424B0FBF4F0401E99
:10250000C1B2192000F005F86008BDE81040FFF7DF
:10251000D1BF70B50C460546FFF796FED020FFF7F9
:102520005FFEFFF7DBFE50B92846FFF759FEFFF7C5
:10253000D5FE2046FFF754FEFFF7D0FE18B1FFF797
:10254000A7FE012070BDFFF7A3FE002070BD2DE99E
:10255000F0411E4615460F460446FFF775FE60061D
:10256000000EFFF73DFEFFF7B9FE60B93846FFF7F2
:1025700037FEFFF7B3FE00240CE0305DFFF730FEBE
:10258000FFF7ACFE20B1FFF783FE0120BDE8F0812C
:10259000641CE4B2AC42F0D3FFF77AFE0020F5E70A
:1025A0002DE9F04186B0002426480094019402945D
:1025B0000394816941F010018161816901F010018A
:1025C0000491816941F020018161816901F020015C
:1025D0000491816941F008018161816901F008017C
:1025E0000491816941F0040181618069164F00F016
:1025F00004004FF400550490002229463846FEF7A7
:102600000AFCDFF848804FF440660022314640461D
:10261000FEF701FC01200095CDE9010402200390A2
:1026200069463846FEF7FAFA11200096CDE9010412
:102630000320039069464046FEF7F0FA06B0BDE875
:10264000F08100000010024000100140000C014029
:102650000D4810B50B4901600C49416000214FF451
:1026600080428160C0E9031241618161C161016200
:10267000FEF7DCFB002803D0BDE81040FEF74BBAA4
:1026800010BD00000054004090010020A086010011
:1026900010B586B000241748009401940294039466
:1026A00004941349059401604821C0E901144FF6D0
:1026B000FF71C0E9031444618461FFF78BF808B12E
:1026C000FEF729FA4FF48050009069460948FFF759
:1026D000C3F808B1FEF71FFA049404A9054805944D
:1026E000FFF744F8002801D0FEF715FA06B010BD38
:1026F000002C0140E40100200C4810B50A4901609B
:102700004FF4E1314160002181600C22C160C0E9D9
:1027100004128161C161FFF745FA002803D0BDE8CA
:102720001040FEF7F8B910BD003801402C0200201F
:10273000FEE7FEE7F0B5074689B01C4615460E4693
:10274000284803F08FFA20216846FDF735FD264919
:10275000244803F048FB3868FDF7EEFF02460B46BD
:1027600022A1684600F07EFA6B460C2208211D4823
:1027700003F010FB3068FDF7DFFF02460B461FA198
:10278000684600F06FFA6B461C220821154803F0DA
:1027900001FB2868FDF7D0FF02460B461AA16846E8
:1027A00000F060FA6B462C2208210E4803F0F2FA82
:1027B0002046FDF775FF1749FDF7A0FDFDF7BCFFAB
:1027C00002460B4614A1684600F04CFA6B463C22C8
:1027D0000821044803F0DEFA024803F0FBFA09B0CE
:1027E000F0BD00007C000020046A0008706974637A
:1027F000683A20252E30346600000000726F6C6C41
:102800003A20252E303466007961773A20252E3023
:10281000346600000000C84274656D703A20252EB1
:1028200030326600014803F003BA00007C0000204B
:1028300070477047FEF782BC30B58FB028216846DC
:10284000FDF7BAFC14210AA8FDF7B6FC0121080423
:10285000CDE900100024029402250491CDE907502F
:102860004FF4E01009906846FEF7DCFD08B172B63F
:10287000FEE70F20CDE90A054FF48060CDE90C405A
:1028800002210AA80E94FEF7F1FC002801D072B6CE
:10289000FEE70FB030BD7047F0B50268164B174C1D
:1028A000174D4FF08047984205D0B84203D0A04260
:1028B00001D0A84203D122F070064A683243984200
:1028C00005D0B84203D0A04201D0A84203D122F4DF
:1028D0004074CA6822434C6922F08002224302609D
:1028E0008A68C2620A688262984201D109690163FA
:1028F00001214161F0BD0000002C014000040040B6
:102900000008004010B5846842EA032224F47F44A2
:102910000A432243826010BD826822F070020A439B
:1029200042F007018160704710B5036A046A24F021
:1029300001040462846924F0F00444EA021423F0E0
:102940000A020A438461026210BD10B5036A046A78
:1029500024F010040462846923F0A00324F470447A
:1029600044EA023243EA01118261016210BD0000B3
:102970000D4900220B685A620A68136843F001038C
:10298000136009684A6A8242FCD3086A41F2111254
:10299000104207D1086A9210104203D1086820F053
:1029A0000100086070470000E401002010B5406A93
:1029B0000021C185C184FEF7BEFF10BD01680C3146
:1029C00051E8002F22F4907241E80023002BF5D14A
:1029D0000168143151E8002F22F0010241E8002380
:1029E000002BF5D1016B012909D101680C3151E8A7
:1029F000002F22F0100241E80023002BF5D1202106
:102A000080F8421000210163704708B590F8421029
:102A1000222901D0022008BD82684FF480539A42D7
:102A200001D1016921B1816A9A421BD04AB10AE001
:102A30000268816A5268C2F308020A80816A891CAE
:102A400008E0026972B10268526802F07F020A70FF
:102A5000816A491C8162C18D491E0904090CC18526
:102A600003D01BE002685268F1E70168CA6822F0EF
:102A70002002CA600168CA6822F48072CA600168D4
:102A80004A6922F001024A61202180F842100021A7
:102A90004163026B012A03D0FFF704F9002008BD4F
:102AA000016301680C3151E8002F22F0100241E867
:102AB0000023002BF5D101680A68D20602D50A6806
:102AC00049680091818DFEF735FFE7E770B5044650
:102AD00000680169E26821F44051114301612169F4
:102AE000A0680843616908432168CA6841F20C6321
:102AF0009A430243CA6020684169A26921F4407187
:102B0000114341611E492068884202D1FEF754FCFE
:102B100001E0FEF741FC00EBC00101EB0012606830
:102B200064218000B2FBF0F3B3FBF1F36FF0180601
:102B30007343B2FBF0F5B2FBF0F605EB83053223ED
:102B400003EB0515B5FBF1F5B6FBF1F605F0F00565
:102B500005EB0615B2FBF0F6B2FBF0F0B0FBF1F0BE
:102B60006FF01802504306EB800003EB0010B0FB3F
:102B7000F1F0216800F00F002844886070BD00006B
:102B80000038014081628285C28500214164222192
:102B900080F84210016921B10168CA6842F480726C
:102BA000CA6001684A6942F001024A610068C1686E
:102BB00041F02001C160002070472DE9F0419846A6
:102BC00017460E460446069D27E0681C25D02DB109
:102BD000FEF726F9A0EB0800A8421ED920680C30A9
:102BE00050E8001F21F4D07140E80012002AF5D10E
:102BF0002068143050E8001F21F0010140E8001265
:102C0000002AF5D1202084F8410084F842000020F9
:102C100084F840000320BDE8F0812068006836EAAF
:102C2000000004D00020B842CFD00020F3E70120FC
:102C3000F9E700000148FEF77FBE00002C020020EB
:102C4000FEE700000FB4054B10B503A9044A029833
:102C500000F080F910BC5DF814FB00006546000828
:102C6000740000200FB4084B10B504A902AA039801
:102C700000F070F9044602A9002000F0EEFC2046A6
:102C800010BC5DF814FB00005B360008490050EAF8
:102C9000C12018BF04204A0D18BF40F0010040F2C7
:102CA000FF72B2EB515F08BF40F00200012808BF7D
:102CB000052070470907090E002804DB00F1E02019
:102CC00080F80014704700F00F0000F1E02080F859
:102CD000141D70472DE9F0414F1E00EBC70104465B
:102CE000D1E9000115461E4637F006020DD02A46EE
:102CF0003346FDF7F4FB7F1E04EBC703D3E9002343
:102D0000FDF746FB37F00602F1D1022F25D0042F44
:102D100013D0062F18BFBDE8F0812A463346FDF7D1
:102D2000DEFBD4E90A23FDF733FB2A463346FDF7E1
:102D3000D6FBD4E90823FDF72BFB2A463346FDF7E3
:102D4000CEFBD4E90623FDF723FB2A463346FDF7E5
:102D5000C6FBD4E90423FDF71BFB2A463346FDF7E7
:102D6000BEFBD4E90223FDF713FB2A463346FDF7E9
:102D7000B6FBD4E90023BDE8F041FDF709BB012211
:102D8000FDF705BEFDF704BB0022134610461146B1
:102D9000FDF717BC024A00201107FDF7F8BD00003F
:102DA00001FDFFFF02E008C8121F08C1002AFAD186
:102DB00070477047002001E001C1121F002AFBD1BB
:102DC000704700000149086070470000780000204B
:102DD0002DE9FF5F82B00021DDE90430020DDDF84E
:102DE00040B0034318D044F61050A2F2FF324243E1
:102DF0001514119801281FD0A5EB0B00401C5FEAA9
:102E0000000A4FF000064E4FDFF83891B0465046AA
:102E100015D5CAF1000413E0119801244AA3012832
:102E200001D16FEA0B010298119AC0E90031C0E9A3
:102E3000024206B0BDE8F09FCBF10000DFE7044698
:102E40000021404A491842EB0450CDE9001012E03D
:102E5000E00707D032463B4640464946FDF73FFB78
:102E60008046894632463B4610461946FDF737FBF9
:102E700006460F466410002CEAD1DDE90401DDE9C5
:102E80000023BAF1000F06DAFDF729FB42464B4654
:102E9000FDF725FB05E0FDF794FB42464B46FDF7A9
:102EA00090FB04460E460022284BFDF7B7FD03D8E1
:102EB0004FF0FF30014607E00022254B2046314607
:102EC000FDF766FAFDF77AFD102409E0002C0ADB15
:102ED0000A220023FDF775FC039B30321A55641E4D
:102EE00050EA0102F2D1641C039AC4F111031444A4
:102EF000119A012A03D0012208430DD10AE00843A8
:102F000004D000204FF0110B119072E7A3EB0B05DA
:102F10006D1E0DE05B4504DD4FF0000205F101057B
:102F200004E003DA4FF00002A5F10105002AECD01D
:102F300002981199C0E90231C0E9004579E7000023
:102F4000000014400000F03F300000000000F0439B
:102F50000000E03F2DE9FF4F95B09A4688460646AF
:102F60000025EEE1252877D100242746F94A0121E2
:102F7000039400E0044316F8013F203B01FA03F0FC
:102F80001042F7D130782A2811D06FF02F03307813
:102F9000A0F13002092A16D8039A44F0020402EB89
:102FA000820203EB42021044761C0390EFE758F8CC
:102FB000042B0392002A03DA504244F40054039095
:102FC00044F00204761C30782E2816D116F8010F32
:102FD00044F004042A280DD06FF02F023078A0F1BD
:102FE0003003092B09D807EB870302EB4303C7180B
:102FF000761CF3E758F8047B761C30786C280FD0E9
:1030000006DC4C2817D068280DD06A2814D104E0BB
:10301000742810D07A280FD10DE044F400140AE08F
:1030200044F4801401E044F440147278824202D1E6
:1030300004F58014761C761C307866280BD013DCDF
:10304000582877D009DC002875D04528F6D04628C6
:10305000F4D047281AD193E118E0632835D06428CA
:1030600079D0652812D18BE1702873D008DC6728ED
:10307000F1D069286FD06E280DD06F2806D1ACE052
:1030800073282CD0752874D0782853D052461799BD
:1030900090476D1C54E1C4F30250022809D0032864
:1030A0000DD0D8F8001004280DD00D6008F10408E8
:1030B00046E1D8F80010EA17C1E90052F6E7D8F85F
:1030C00000100D80F2E70D70F0E718F8041B8DF882
:1030D000001000208DF80100EB46012003E058F8B5
:1030E00004BB4FF0FF3061074FF0000102D40DE048
:1030F00009F101018946B9420FDA8145F8DB1BF875
:1031000009100029F4D108E009F101018946814242
:10311000FADB1BF809100029F6D103985346A0EBFF
:10312000090721463846179A00F080FA284400EB38
:10313000090507E044E008E10DE01BF8010B5246E9
:1031400017999047B9F10109F7D2534621463846FD
:10315000179AF2E039E00A21C4F302524FF0000B53
:103160000091022A06D058F8040BC117032A09D08F
:103170000AE023E008F1070020F00702F2E802016C
:10318000904605E000B2C117042A01D140B2C11730
:10319000002906DA0A460021404261EB02012D2295
:1031A00002E0220504D52B228DF80420012203E041
:1031B000E20701D02022F7E7914657E00A2100E01C
:1031C00010214FF0000B00910BE010214FF0000B8D
:1031D00044F004040827009103E008204FF0000B9E
:1031E0000090C4F30252022A05D058F8040B0021C3
:1031F000032A08D008E008F1070020F00702F2E8EF
:103200000201904603E080B2042A00D1C0B24FF020
:10321000000922072AD53278702A07D0DDF800C0CD
:103220008CF0100C5CEA0B0C05D00EE040228DF8FF
:103230000420012208E050EA010306D030238DF873
:1032400004308DF8052002229146009B83F008038C
:1032500053EA0B030AD150EA010201D1620705D5F6
:1032600030228DF804204FF001097F1E3278582A51
:1032700004D039A20C920CAA02920BE03BA2F9E70F
:103280005B46009AFDF79DFA0C9B9B5C029A521ECE
:103290000292137050EA0102F2D1029804A9081AAE
:1032A00000F1200B600702D524F4803400E00127F0
:1032B0005F4502DDA7EB0B0000E0002000EB0B01F7
:1032C000009003984944401A0390E00306D4534603
:1032D0002146179A039800F0A9F90544002706E053
:1032E00001A85246C05D179990476D1C7F1C4F4541
:1032F000F6DBE0030CD553462146179A039800F0FD
:1033000095F9054404E030205246179990476D1C0A
:103310000099481E00900029F5DC08E00298029907
:1033200052460078491C0291179990476D1CBBF1D9
:103330000001ABF1010BF1DC5BE100F065F9054444
:10334000761C307800287FF40DAE19B02846BDE811
:10335000F08F000009280100303132333435363720
:1033600038396162636465660000000030313233D1
:103370003435363738394142434445460000000071
:10338000600700D4062708F1070020F00700F0E8E6
:103390000223804603F0004C5FEA0C0001D097A0A6
:1033A00009E0200501D596A005E0E00701D095A031
:1033B00001E0AFF24C001390307823F00043652811
:1033C0000CD006DC452809D046281DD047287FD1DF
:1033D0003BE0662818D067287AD136E00021112F0B
:1033E00001DB112000E0781CCDE9000104A90CA844
:1033F000FFF7EEFCDDE90D010C9A4FF0000B07F131
:103400000109109200914EE04FF000400097CDE985
:10341000011004A90CA8FFF7DBFCDDE90D020C9BF1
:103420000F994FF0000B91461093009211B9791C3F
:1034300000EB0109B7EB090003D4C0F1FF3B07F132
:103440000109A9EB0700019042E0012F00DA0127F2
:103450000021112F01DD112000E03846CDE90001E7
:1034600004A90CA8FFF7B4FCDDE90D010C9A00914A
:103470004FF0000BB946109221070FD4009A4A452D
:1034800003DA914601E0A9F10109B9F1010F05DD67
:10349000109AA9F10101515C3029F4D0B84202DA46
:1034A00010F1040F03DA0121CDE9011010E000282A
:1034B00003DC8344A9EB000102E0411C494500DD27
:1034C0008946A0EB0B00401C01904FF00040029099
:1034D000200705D40198484502DB4FF0FF300190EA
:1034E00000208DF84B0002980DF14B07B0F1004F12
:1034F00025D002200C902B200D90029800280CDA89
:10350000404202902D200D9007E00A210298FDF71D
:1035100042F93031029007F8011D0C99481E0C90B9
:103520000029F2DC02980028EFD1791E0D9808706E
:10353000307800F0200040F0450007F8020D11A897
:10354000C01BC01D02901398007800B1012000EB51
:103550000901019801EBE071029801440398401AB7
:10356000401E0390E00306D453462146179A039861
:1035700000F05CF805441398007818B1524617998A
:1035800090476D1CE00323D553462146179A0398B4
:1035900000F04CF805441BE0BBF1000F07DB00987E
:1035A000584504DD1098179910F80B0001E01799A1
:1035B00030205246904701980BF1010B401E05F157
:1035C0000105019004D12E205246179990476D1C99
:1035D000B9F10001A9F10109DEDC05E017F8010BE2
:1035E0005246179990476D1C0299481E0290002977
:1035F000F4DC53462146179A03989EE62D000000FE
:103600002B000000200000002DE9F04104460025B9
:103610001E461746880404D405E039462020B047EA
:103620006D1C641EF9D52846BDE8F0812DE9F041F6
:10363000044600251E469046C80301D5302700E009
:103640002027880404D505E041463846B0476D1C64
:10365000641EF9D52846BDE8F0810A68531C0B604A
:10366000107070472DE9FE4F07460E46002568464C
:1036700001F004F800246FF00F0AE8464FF001094A
:1036800057F8240056F82410401A00D54042FDF7A0
:1036900007F85146FCF770FE58F8241011F0FF4F60
:1036A0000BD0FCF72BFE4FF07E51FCF7EFFD0A49E3
:1036B00020F00040884205DC07E00849084408493A
:1036C000884202D309FA04F00543641C032CD7DBBB
:1036D0002846BDE8FE8F0000295C0F3E666666C185
:1036E0009A99D9002DE9F04D8D4F21F0004A86B00E
:1036F00005460C46BA452ADBAAEB070028430AD048
:103700008848824501DC1AD1CDB106B02846BDE813
:10371000F04DFFF734BB844A844B2846FCF7DFFEAC
:1037200007460E46824A834B28462146FCF7D7FEC1
:1037300006B03A463346BDE8F04DFCF729BE0120FD
:10374000FFF740FB06B0BDE8F04DFFF71DBB7A4820
:10375000824542DABAF1795F0BDA2846FFF796FA2A
:10376000042808BFFFF716FB284606B02146BDE82F
:10377000F08D2A460B461046FCF7B1FE8346024602
:103780006E480E460B4606217844FFF7A3FA5A46C8
:103790003346FCF7A4FE804669488A465A463346BB
:1037A00004217844FFF796FA5A463346FCF797FE11
:1037B00000223B46FCF7ECFD02460B4640465146D4
:1037C000FCF7FFFE2A462346FCF789FE06B02A4690
:1037D0002346BDE8F04DFCF7DBBD284624F0004150
:1037E00000223D463B46FCF777FE4FF0FF32FDF7E7
:1037F000CEF80646024653480F460B46062178444B
:10380000FFF768FA32463B46FCF769FECDE9000156
:103810004D4832463B4604217844FFF75BFA324676
:103820003B46FCF75CFE00222B46FCF7B1FD8346CD
:1038300002913046394602F0D5F9804643480D469C
:10384000504517DCDDE900015A46029BFCF7B9FE42
:1038500042462B46FCF743FE42462B46FCF798FDBA
:103860000122FDF794F8304A304BFCF732FE304A23
:10387000304B4CE04FF0000A52460B464046FCF7F6
:1038800087FDCDE9031052462B4610461946FCF73A
:1038900026FE32463B46FCF71FFEDDE90332FCF70D
:1038A00090FE06460F46DDE900015A46029BFCF7F2
:1038B00088FE83460091012230463946FDF767F8BD
:1038C000194A1A4BFCF708FE06460F4601224046ED
:1038D0002946FDF75CF85A46009BFCF700FE32468D
:1038E0003B46FCF7F6FD06460F46012250462946A8
:1038F000FDF74DF80E4DDFF858802A464346FCF799
:10390000EBFD32463B46FCF7E7FD2A464346FCF713
:10391000E3FD002CD8BF81F0004106B0BDE8F08D7A
:103920000000F03F0000F07F075C143326A6913CB6
:10393000182D4454FB21F93F0000E03F3C4F0000AC
:10394000524F0000C64E0000DC4E00003333EF3F04
:10395000FB21E93F2DE9F84F04460D4621F00040D8
:1039600000917349814211DC7249884201DC06D121
:103970002CB120462946BDE8F84FFFF700BA6E4843
:10398000002DCCBF6D496E49BDE8F88F6D4981426D
:1039900011DD6D498142D8BF4FF0FF366DDD204605
:1039A0002946FFF773F9042808BFFFF7F3F920460B
:1039B0002946BDE8F88F6549654F25F000458142ED
:1039C00033DD6449814219DD002632464FF08043E1
:1039D00020462946FCF7DCFC80468A460122204628
:1039E0002946FCF7D4FF00223B46FCF772FD424615
:1039F0005346FCF7E6FD04460D463EE00126002254
:103A0000BA463B4620462946FCF7C2FC80460F4694
:103A10000022534620462946FCF75BFD42463B46C2
:103A2000FCF7CFFD04460D4627E04B4981421BDDE4
:103A3000DFF828A102260022534620462946FCF73B
:103A40004EFD00223B46FCF7A3FC80460F460022B9
:103A5000534620462946FCF73CFD42463B46FCF7D0
:103A6000B0FD04460D4608E0032622462B46002002
:103A70003B49FCF7A6FD04460D4622462B46104660
:103A80001946FCF72CFD8B46824602460B46FCF796
:103A900026FD07460246334888460B4606217844F1
:103AA000FFF718F952465B46FCF719FD82462E488F
:103AB0008B463A46434605217844FFF70BF93A46D0
:103AC0004346FCF70CFD02460B46002E5046594675
:103AD0000CDAFCF75DFC22462B46FCF700FD01B03A
:103AE00022462B46BDE8F04FFCF7F6BCFCF750FC35
:103AF00022462B46FCF7F3FC1C4A7A4402EBC60331
:103B0000D3E90023FCF7E5FC22462B46FCF7E1FC59
:103B1000174A7A4402EBC603D3E90023FCF7DCFC26
:103B2000009A002AB8BF81F00041BDE8F88F00007C
:103B3000000010440000F07F182D4454FB21F93F91
:103B4000FB21F9BF0000DC3F0000203E0000F33FF6
:103B50000000F03F0000E63F008003400000F83F17
:103B60000000F0BFDE4C00009C4C00003A4C00000E
:103B7000024C00002DE9F04D9446CCF1000423F0F6
:103B800000464CEA0404594F46EAD4749A468846E3
:103B900021F00042BC4206D8454240EA050442EA10
:103BA000D474BC4204D9BDE8F04D6246FFF7EAB8D0
:103BB000AAF14055A5F17F6555EA0C040BD002240B
:103BC00004EAAA744A4DDFF82CE144EAD87452EAB8
:103BD000000B04D00CE0BDE8F04DFFF7BBBE002C9D
:103BE00014BF012CBDE8F08D022C30D0032C32D054
:103BF00056EA0C0B0AD0BE4220D1BA4209D126F0B7
:103C0000804622F080423346114617E000291ADB35
:103C100025E0DFF8E4B0FB44002C04BFDBE9000141
:103C2000BDE8F08D012C02BFDBE9000181F000410D
:103C3000BDE8F08D022C0AD0032C0CD0BA4212D170
:103C4000B8F1000F0BDA2A482C49BDE8F08D284660
:103C50002B49BDE8F08D28467146BDE8F08D24481B
:103C60002849BDE8F08D921B12153C2AC4BF204F95
:103C7000244E10DCBAF1000FBEBF12F13C0F00273A
:103C80003E4608DB6246FCF79CFC21F00041FFF752
:103C900061FE07460E4694B1012C08BF86F000462F
:103CA0000DD0194A194B022C3846314615D0FCF775
:103CB00010FC2A46BDE8F04D114BFCF70ABC00226F
:103CC000134638463146FCF791FE04BF0220FFF749
:103CD00079F838463146BDE8F08DFCF7FAFB2A4604
:103CE000BDE8F04D064BFCF7F7BB00000000F07F8D
:103CF000182D4454FB2109C0964B0000FB21F9BF4D
:103D0000FB210940FB21F93F075C143326A6A13CA7
:103D100008B560B120208DF8000028208DF8010042
:103D200030208DF8020038208DF8030004E0A32233
:103D300004216846FCF739FA6A46042140F69E20C1
:103D400001F0BAFE01F078FB08BD00003EB5044664
:103D500002208DF80000CA208DF80100E3208DF8C4
:103D6000020009208DF803006A460421682001F052
:103D7000A3FEA3208DF80000610609D5C0218DF8AF
:103D80000110C8218DF80210C2218DF8031005E042
:103D90008DF801008DF802008DF8030014F4C07F47
:103DA00009D0C4218DF80410CC218DF80510C6214E
:103DB0008DF8061005E08DF804008DF805008DF8EB
:103DC00006008DF808008DF807008DF809006A4696
:103DD0000A2140F6A72001F06FFEA0074FF0D8059A
:103DE00003D020208DF8000001E08DF800506A46D5
:103DF000012140F6B62001F05FFEA00601D50120AA
:103E000000E0002000F08EF814F4C07F1ED0E00522
:103E10000AD5B2208DF800008B208DF80100B62065
:103E20008DF802009B2009E0B0208DF80000802072
:103E30008DF80100B4208DF8020090208DF8030069
:103E40006A46042140F6A22001F036FEE1074FF455
:103E50000B6022D0F8218DF800106A46012101F094
:103E60002BFEFA21072000F049FB072000F014FB8D
:103E7000012000F031FB642000F0D4FB4FF4FA7015
:103E800000F0E0FBC821254800F0CEFA282000F021
:103E9000E3FA0A2000F0F0FA05E08DF800506A46D7
:103EA000012101F009FEA00703D5D9208DF80000FB
:103EB00001E08DF800506A46012140F23D7001F0AA
:103EC000FBFD600701D5012000E0002000F048F86C
:103ED000E00601D5012000E00020FFF719FF104D9A
:103EE00044F00800688101F0A7FA0020A87360067A
:103EF00001D50620A87314F4C07F02D0A87B801DD2
:103F0000A87314F0140F02D0A87B1030A873A00778
:103F100002D0A87B001DA87300203EBD09E3CA02A1
:103F2000740600200EB54FF4976310B106A107C9BF
:103F300001E008A207CA8DE807006A460921184671
:103F400001F0BAFD0EBD0000B8AAB38DB4980D35CE
:103F50005D000000B8AAAAAAB088C3C5C7000000C7
:103F600008B560B1C0208DF80000C2208DF80100B6
:103F7000C4208DF80200C6208DF8030004E08B22D7
:103F800004216846FCF711F96A46042140F698209E
:103F900001F092FD01F050FA08BD0000C8234FF473
:103FA0008062024940F6F63001F028B9D07A000864
:103FB0002DE9FF4F89B01746DDE916520024544E13
:103FC000884681462C80A246B07B694601F0C2F942
:103FD0004FF0FF3B18B158460DB0BDE8F08F708927
:103FE00010F0140F4CD0BDF800109DF8022049BA13
:103FF000090441EA02239DF803100B433B60BDF81E
:1040000004109DF8062049BA090441EA02229DF8ED
:1040100007101B140A437A60BDF808109DF80A4087
:1040200049BA090441EA04219DF80B4012142143C6
:10403000B960BDF80C409DF80EC064BA240444EA8F
:104040000C2C9DF80F4009144CEA040CC7F80CC066
:104050004FEA2C475B43494302FB023207FB07113F
:1040600011441024A1F17061B1F1007F04D901F075
:10407000E3F9A5F800A0AEE7298841F48071298012
:104080004206694611D50A19A41D13885BBAA8F81F
:10409000003053885BBAA8F80230928852BAA8F868
:1040A00004202A8842F008022A8010F4C07F11D030
:1040B0000A19A41D13885BBAA9F8003053885BBAAB
:1040C000A9F80230928852BAA9F804202A8842F04E
:1040D00070022A80800716D00C44E07800F0C005FA
:1040E00000F03F016078C00706D0C80801F0070162
:1040F0003268491C02B190476078000703D57168A7
:1041000009B1A80988470C9800F0C4FD002063E7B6
:10411000740600202DE9FF41044603A800F024FFA7
:10412000BDF80C00410CC3032F48008900F00302C6
:1041300054F82250420700D56D42C0F3C1028606F2
:1041400054F8222000D55242C0F38116C00554F81D
:10415000264000D56442A5FB0367E81700FB037007
:1041600005FB0100850045EA9670A2FB0367D517A1
:1041700005FB037502FB0152950045EA9672A4FB0C
:104180000367E51705FB037304FB01318B0043EA6A
:104190009671030E8DF80030030C8DF80130030A80
:1041A0008DF802308DF80300100E8DF80400100C0D
:1041B0008DF80500100A8DF80600080E8DF808002D
:1041C000080C8DF80900080A8DF80A008DF8072000
:1041D0008DF80B106A460C214FF4257001F06CFC31
:1041E00004B0BDE8F08100007406002030B504463C
:1041F00013A285B007CA8DE807004FF0FF35C82C21
:1042000016D8C820B0FBF4F1491E080A8DF80C003E
:104210008DF80D1003AA022140F2162001F04CFC8B
:1042200030B96A460C2140F6C12001F045FC10B1BE
:10423000284605B030BD054884810020F9E700001C
:10424000FEF2ABC4AAF1DFDFBBAFDFDF74060020F4
:10425000F8B53049098901F0030250F822404A07B5
:1042600000D56442C1F3C1028B0650F8222000D56C
:104270005242C1F3811350F82330C80500D55B4288
:10428000254984FB0140850045EA947082FB014288
:10429000A40F44EA820483FB0121950F45EA8105BE
:1042A000010E8DF80010010C8DF80110010A8DF837
:1042B00002108DF803006A4604214FF4747001F077
:1042C000FBFB4FF0FF3688B9200E8DF80000200C64
:1042D0008DF80100200A8DF802008DF803406A462F
:1042E00004214FF4757001F0E7FB08B13046F8BDCA
:1042F000280E8DF80000280C8DF80100280A8DF892
:1043000002008DF803506A4604214FF4767001F0E4
:10431000D3FBF8BD7406002009E3CA022DE9FF4172
:1043200004463CA004F00303006802903AA0006831
:1043300003903AA006683AA0056802A8C15C8DF80F
:104340000010C4F3C101425C8DF80120C4F3811256
:10435000805C8DF8020003A8C35C8DF80430415CDA
:104360008DF80510805C8DF806006A46032140F246
:10437000264001F0A1FB4FF0FF37E0BB01AA03216B
:1043800040F22A4001F098FBA8BBCDE90065600728
:104390000BD59DF8000040F001008DF800009DF85D
:1043A000040040F001008DF80400A0060BD59DF834
:1043B000010040F001008DF801009DF8050040F07B
:1043C00001008DF80500E0050BD59DF8020040F0D6
:1043D00001008DF802009DF8060040F001008DF804
:1043E00006006A4603214FF4886001F065FB10B9AE
:1043F00001AA032100E004E040F2314001F05CFB3F
:1044000018B1384604B0BDE8F081064804810020A8
:10441000F8E700004CCD6C000CC92C003656760035
:1044200026466600740600204FF47A7290FBF2F084
:1044300008B54843010E8DF80010010C8DF80110ED
:10444000010A8DF802108DF803006A4604214FF42A
:10445000AE7001F031FB08BD0521B0FBF1F008B5ED
:10446000010A8DF800108DF801006A4602214FF410
:10447000AD7001F021FB08BD0521B0FBF1F008B5DE
:10448000010A8DF800108DF801006A4602214FF4F0
:10449000AC7001F011FB08BD08B500218DF80010CB
:1044A000C10702D030218DF80010810705D59DF895
:1044B000001041F00C018DF80010400705D59DF863
:1044C000000040F003008DF800006A4601214FF41F
:1044D000A47001F0F1FA08BD08B560B1042800D954
:1044E0000420401E8DF800006A46012140F24F1062
:1044F00001F0E2FA08BD0120F3E700002DE9FC41DC
:10450000054640074FF0FF367CD0B1F5C86F79D82B
:104510000846FCF7CEF83E49FBF7F0FE074601A837
:1045200000F004FD9DF80400022806D004280DD0F8
:1045300008282ED0102865D134E00E213846FBF72C
:104540001BFFFCF7E5F884B2324907E00D2138463D
:10455000FBF712FFFCF7DCF82F4984B23846FBF773
:104560009BFEFCF7D5F8210A8DF8001080B28DF87B
:104570000140010A8DF802108DF80300E8076C462F
:1045800020D0224602214FF4EA7001F095FAC8BB10
:1045900011E00C213846FBF7EFFEFCF7B9F884B2C6
:1045A0001E49DBE70B213846FBF7E6FEFCF7B0F8C7
:1045B00084B21B49D2E7A21C02214FF4927001F091
:1045C0007BFAF8B9A8070DD56A4602214FF4EC70C2
:1045D00001F072FAB0B9A21C02214FF4947001F0FC
:1045E0006BFA78B9680710D56A4602214FF4EE706D
:1045F00001F062FA30B9A21C02214FF4967001F06A
:104600005BFA10B13046BDE8FC810020FBE70000FA
:1046100000004843000040460000C04500004045FF
:104620000000C0440521B0FBF1F008B5010A8DF887
:1046300000108DF801006A4602214FF4EF7001F07E
:104640003BFA08BD0521B0FBF1F008B5010A8DF871
:1046500000108DF801006A4602214FF4ED7001F060
:104660002BFA08BD13B54FF47A730122694602484C
:10467000FDF744FB00981CBD2C0200202DE9FE43F1
:104680000646264801AB042240680D210078FDF75C
:10469000AFFE10B10720BDE8FE839DF804101C207A
:1046A00000EAD1029DF80710DFF87490C1F30113FE
:1046B0001A438DF800209DF80520C1F3810300EA1C
:1046C000D2021A438DF801209DF8062001F0030163
:1046D00000EAD20008430024124F8DF80200A046E1
:1046E0006D46285D10B146F824900AE046F8248013
:1046F0000DE000BF56F824003946FBF7CDFD46F823
:104700002400285D401E10F0FF002855F2D1641CE3
:10471000E4B2032CE5D30020BDE700003C000020FC
:104720007B14AE3E1D5A843F2DE9FE4F0546012005
:10473000C14E8DF800004FF000088DF80180306800
:104740000C461746817C70686B4602220078FDF7A4
:10475000FEFE4FF0FF3A00287AD1C820FCF74CFA51
:104760008DF8008030686B460122C17B706800784C
:10477000FDF7EDFE0028EFD130686B46012241794C
:1047800070680078FDF7E3FE0028E5D130686B46DD
:104790000122817C70680078FDF7D9FE0028DBD10A
:1047A00030686B460122C17D70680078FDF7CFFE4E
:1047B0000028D1D130686B460122017970680078F9
:1047C000FDF7C5FE0028C7D14FF00C098DF8009009
:1047D00030686B460122017970680078FDF7B7FEFA
:1047E000002835D10F20FCF707FAB06A6B4601228A
:1047F000407A8DF800003068817870680078FDF7A5
:10480000A6FE002824D1B06A6B460122007A8DF8FA
:1048100000003068417870680078FDF798FE002845
:1048200073D1B06A807A0FB140F0E0008DF80000DB
:1048300030686B460122817970680078FDF787FE49
:10484000002862D12FB1B06AC07A40F0E00001E0E8
:104850004AE018208DF8000030686B460122C179CB
:1048600070680078FDF773FEF0BB17B1C820FCF745
:10487000C3F940208DF8000030686B4601220179B1
:1048800070680078FDF763FE70BB78208DF800003B
:1048900030686B460122417970680078FDF757FE59
:1048A00010BB3220FCF7A8F98DF80080306847462D
:1048B0006B464179706801220078FDF748FE98B98F
:1048C00031687068B046897A00786B460222FDF73D
:1048D0008FFD48B9BDF80000AF6040BAB0FBF9F0F9
:1048E0006F60C6B22F6000E00FE0A76067602760CE
:1048F000002739E0D8F80010D8F804006B46C97AD0
:1049000000780C22FDF774FD10B15046BDE8FE8F13
:10491000BDF80000236840BA00B2BDF80210BDF82F
:1049200004201844206049BA606809B208446060F5
:1049300052BAA06812B21044A060BDF806002B68FD
:1049400040BA01B2BDF80800BDF80A201944296038
:1049500040BA696800B20844686052BAA86812B2E6
:1049600010447F1CFFB2A860B742C3D328688322DB
:10497000C117090441EA104100040023FBF7D4FBEE
:1049800032460023FBF7D0FB286068688322C117FA
:10499000090441EA104100040023FBF7C5FB32463D
:1049A0000023FBF7C1FB6860A8688322C1170904D4
:1049B00041EA104100040023FBF7B6FB3246002316
:1049C000FBF7B2FBA86020684FF40065C11709042B
:1049D00041EA104100042A460023FBF7A5FB3246BA
:1049E0000023FBF7A1FB206060682A46C117090479
:1049F00041EA104100040023FBF796FB32460023F6
:104A0000FBF792FB6060A0682A46C117090441EADF
:104A1000104100040023FBF787FB32460023FBF71D
:104A200083FBA060002802DDA0F5803001E000F5E6
:104A30008030A060002069E73C0000202DE9F84F9D
:104A400081462E488846002540686B460322007840
:104A50000D21FDF7CDFC10B10720BDE8F88F9DF8C2
:104A60000000002400F01F008DF800009DF80100F8
:104A70006FF00F0B00F01F008DF801009DF8020091
:104A80006E4600F01F008DF802004FF0010A00BFD3
:104A900059F8241058F82400081A00D54042FBF7B2
:104AA000FFFD5946FBF768FC0746305DC0B114486E
:104AB00002E01449FBF7F0FB315D491E11F0FF01E4
:104AC0003155F6D101463846FBF718FC4FF07E51C0
:104AD000FBF7DCFB0C4920F00040884205DC07E0D6
:104AE0000A483844B0F1D97F02D90AFA04F00543E4
:104AF000641C032CCCDB2846AFE700003C00002000
:104B00000000C84154E3853F295C0F3E0000E0BE31
:104B100000B5024600F00DF80346D01C00F009F87D
:104B200043EAC003901D00F004F843EA801080B20D
:104B300000BD90F90010002902DD4FF00000704721
:104B400002DA4FF00400704790F90110002902DDED
:104B50004FF00100704702DA4FF00500704790F9FE
:104B60000200002802DD4FF00200704702DA4FF029
:104B7000060070474FF0070070470000FCF7E6FAA8
:104B80006420FCF739F8FDF757FEFDF709FDFDF746
:104B9000B3FDFDF77DFDFDF75BFD012222492348B2
:104BA000FDF772F8FDF73EFEFDF7CAFB204C00BF93
:104BB00000F06AF9054601461EA0FEF743F8002DF5
:104BC000F6D1224E4FF4005529463046FCF71BF92A
:104BD000174A0C32111F081F00F088F801000FD08F
:104BE0001BA0FEF72FF800BF114AB4F900300C32B9
:104BF000111F081FFDF79EFD6420FBF7FDFFE3E793
:104C0000FDF748FA2080FBF74BFD1849FBF776FBD0
:104C1000FBF792FD02460B4615A0FEF713F818A00D
:104C2000FEF710F8E0E70000140000202C0200203E
:104C3000040000206D70755F646D705F696E69744B
:104C400020636F64653A2025640D0A00001001405E
:104C50006D70755F646D705F6765745F64617461CA
:104C6000206661696C3A2025640D0A000000C84284
:104C700074656D703A2020252E3032660D0A0000D2
:104C80002D2D2D2D2D2D2D2D2D2D2D2D2D2D2D2D54
:104C90002D0D0A00704700002DE9F041124C20F064
:104CA0000101002594F8240010B10020BDE8F08136
:104CB000A07A4FF0FF3668B10840277C2074884204
:104CC00000D0354641B1012000F060FF00F0B4FB98
:104CD00038B127743046E9E7207D00B1012000F0AB
:104CE00055FF2846E2E700003C0000202DE9F74F81
:104CF0008EB00CA902A8CDE900010BAB03AA09A94B
:104D000007A8FFF755F918B1012011B0BDE8F08FE1
:104D1000BDF80800C0057DD50398FBF7C1FC6FF016
:104D20001D042146FBF728FB82460498FBF7B8FCDC
:104D30002146FBF721FB81460598FBF7B1FC214694
:104D4000FBF71AFB80460698FBF7AAFC2146FBF707
:104D500013FB054601215046FBF70EFB0646414674
:104D6000FBF79AFA04464FF040414846FBF794FAA5
:104D700007462946FBF790FA2146FBF735FAFBF781
:104D8000DBFCFEF7AFFC4FF0663B5A463D4BFBF7B2
:104D9000A6FBFBF7E4FC0E99086001214046FBF7F7
:104DA000EBFA41460090FBF777FA0446384649464D
:104DB000FBF772FA2146FBF769FA4FF07E51FBF7D9
:104DC00013FAFBF7B9FC07460C4630464946FBF799
:104DD00063FA064629460098FBF75EFA3146FBF770
:104DE00003FAFBF7A9FC3A462346FEF7C3FE5A46F0
:104DF000244BFBF774FBFBF7B2FC0F9908602946C4
:104E00000846FBF749FA074641460846FBF744FACD
:104E1000064600E034E049460846FBF73DFA044602
:104E200051460846FBF738FA2146FBF7DDF93146D3
:104E3000FBF72CFA3946FBF729FAFBF77DFC06460F
:104E40000C4629465046FBF727FA05464146484698
:104E5000FBF722FA2946FBF7C7F90121FBF78CFA89
:104E6000FBF76AFC32462346FEF784FE5A46054BA2
:104E7000FBF735FBFBF773FC10990860002044E753
:104E8000022042E766A64C4010B5FDF74DF900F050
:104E9000F1F808B10A2010BD782000F0B1FD10F043
:104EA000FF0F01D0012010BD7820FFF7F5FE10F0B4
:104EB000FF0F01D0022010BD642000F061FD10F052
:104EC000FF0F01D0032010BDFFF768F810F0FF0FAF
:104ED00001D0042010BD1448FFF71AFEFFF71EFA98
:104EE00010F0FF0F01D0052010BD40F27310FEF747
:104EF0002DFF10F0FF0F01D0062010BD6420FFF73A
:104F000075F910F0FF0F01D0072010BD00F0FEFD75
:104F100008B1082010BD012000F058FC10F0FF007F
:104F2000F8D0092010BD0000680000200D494A7A21
:104F300042B1012A08D0022A0FD0032A0FD04FF025
:104F4000FF307047022200E004220270C97C11B1D8
:104F50001106C90D0170002070470822F5E71022E4
:104F6000F3E700003C0000200F494A7A42B1012AD1
:104F700009D0022A11D0032A12D04FF0FF30704717
:104F80004FF4804201E041F69C720280C97C11B16D
:104F9000C2F34E010180002070474FF48052F4E7C5
:104FA0004FF40062F1E700003C0000200B49097A51
:104FB00039B1012907D002290AD003290BD00021D9
:104FC00003E0FA2101E04FF4FA71018000207047FC
:104FD0004FF47A71F9E74FF4FA61F6E73C000020EC
:104FE0000A49097A41B1012908D002290AD00329C6
:104FF0000AD04FF0FF307047054900E005490160D5
:10500000002070470449FAE70449F8E73C00002013
:1050100000000343000083423333034233338341B0
:105020000C49C97A072913D2DFE801F01204060AF5
:105030000C0E1000BC2100E06221018000207047AE
:105040002A21FAE71421F8E70A21F6E70521F4E717
:105050000021F2E73C000020054991F8242012B11C
:105060004FF0FF307047C989018000207047000071
:105070003C0000202DE9FC414C4C80208DF80000C4
:1050800020686B460122817C60680078FDF75FFA3A
:105090004FF0FF37002832D16420FBF7ADFD00252B
:1050A0008DF8005020686B460122817C6068007892
:1050B000FDF74DFA002870D120686B460622817DED
:1050C00060680078FDF794F9002866D19DF8050026
:1050D0009DF80310C007400F01F0010140EA4101B3
:1050E0009DF801004FF0010600F00100014309D0D6
:1050F000012905D0022915D02DA0FDF7A3FD4CE014
:10510000E67410E020686B460122C1786068007880
:10511000FDF76EF940BB9DF8000010F00F0020D0A5
:10512000042822D0E574FF2004F80A0F4FF6FF711F
:1051300004F8020C04F8010C6070A180A0712072C8
:10514000A67026766576E572A572E56025616561D3
:10515000A576E576A5834FF4FA6000F073FB18B9E5
:1051600007E01D48FDF76EFD17E01CA0FDF76AFD86
:10517000C6E7022000F088FA78B92A2000F0CAFBBE
:1051800058B9322000F0FCFB38B90020FFF784FD4D
:1051900018B9002000F0ACFA10B13846BDE8FC8127
:1051A000002000F02DFC0020F8E700003C0000206B
:1051B000556E737570706F7274656420736F66746A
:1051C000776172652070726F6475637420726576A2
:1051D0002025642E0A000000B887000848616C662C
:1051E0002073656E73697469766974792070617271
:1051F0007420666F756E642E0A0000002DE9FF4F63
:10520000DFF89480064685B098F8250015460F46CD
:105210004FF0FF39B0BBAFB3002420E0301B1028A3
:1052200000DD102080B283463A190146924620469E
:1052300000F042FC30BB6A465946204600F0D2F8E6
:1052400000BB50465A466946FAF7C1FF20B16FF0DD
:10525000010009B0BDE8F08F04EB0B0084B2B4424A
:10526000DCD3280A8DF810008DF81150D8F8000012
:10527000444604AB817ED8F8040002220078FDF792
:1052800066F908B14846E4E7012084F8250008984B
:10529000E0840020DDE700003C0000202DE9F84319
:1052A00005464FF0FF39282844D80727284C002608
:1052B0007DB1012000F0FCFA20208DF800004FF0B5
:1052C0000108012D17D0052D18D88DF80180052073
:1052D0001FE0002000F0ECFA8DF800608DF80170FE
:1052E00020686B460222817C60680078FDF72FF908
:1052F00000BB267529E08DF80160E8E7142D04D87D
:1053000002208DF801000A2003E003208DF801003F
:10531000142000F0FFFA9DF801006B4607EB8010A7
:105320008DF8010020680222817C60680078FDF71A
:105330000EF910B14846BDE8F8830820A072267324
:1053400084F814800020FFF7A7FC0020F3E700009A
:105350003C0000202DE9F843214C0646174694F8FE
:10536000240089464FF0FF3890B3A07A80B32068BC
:105370006B460222817A60680078FDF739F838BB05
:10538000BDF8000045BAB54202D2002038701FE0D7
:1053900060684188B5EB510F11D9216800786B46E0
:1053A000497C0122FDF724F890B99DF80000C00661
:1053B00005D500F041F86FF00100BDE8F8832068E2
:1053C000F2B24B46C17A60680078FDF711F808B177
:1053D0004046F2E7B5FBF6F0401E38700020ECE7DF
:1053E0003C000020F8B516000D464FF0FF371FD0E7
:1053F000104CA17AE1B1010A8DF80010C0B28DF80D
:105400000100411960684289914211D821680078F1
:105410006B46097E0222FDF79AF848B92068EAB285
:105420003346417D60680078FCF7E2FF002800D039
:105430003846F8BD3C000020F8B5564C4FF0FF361A
:10544000A07A00287DD000258DF8005020686B469A
:105450000122C17B60680078FDF779F8002870D1DF
:1054600020686B460122417960680078FDF76FF88B
:10547000002866D120686B460122017960680078B7
:10548000FDF765F800285CD194F82400E0B30C2007
:105490008DF8000020686B46012201796068007871
:1054A000FDF755F8002872D13220FBF7A5FBC0208C
:1054B0008DF80000A07AC00702D0E0208DF800002F
:1054C00020686B460122017960680078FDF73FF89B
:1054D00000285CD1607C18B102208DF8000001E04A
:1054E0008DF8005020686B460122C17B606800780F
:1054F000FDF72DF828BB8DF8005020686B4601227F
:105500004179606800783EE0FFE704208DF80000F4
:1055100020686B460122017960680078FDF717F872
:1055200078B9A07C90B9A07AC0070FD05FF0600076
:105530008DF8000020686B460122017960680078D0
:1055400000E024E0FDF703F808BB01E04020EFE7AE
:105550003220FBF751FB607C18B101208DF8000070
:1055600001E08DF8005020686B460122C17B606825
:105570000078FCF7ECFF50B92068064B0122417916
:10558000606810330078FCF7E2FF002800D0304656
:10559000F8BD00003C0000202DE9F047394C824660
:1055A0008AB094F824000F4620B1002000F00EF9D4
:1055B000012600E0002607A8FFF7F8FC06A8FFF781
:1055C000B5FC09A8FFF72CFD08A8FFF745FD94F8E6
:1055D0000A9094F810800025002239465046FFF7C3
:1055E000A3F810B16D1C022DF6DB022D1AD0002598
:1055F000012203A96846FFF797F810B16D1C022D30
:10560000F6DB022D0ED003A93846FEF72BF8C7B201
:1056100069465046FFF712FA10F0FF0F4FF00005F1
:1056200002D002E0002503E001250FB945F0020594
:10563000FF2020726072E0724FF6FF71E181A0726C
:10564000207401202073BDF81C0000F0FBF89DF8C9
:10565000180000F019F8BDF8240000F05BF9BDF85F
:10566000200000F08DF9484600F0CAF94046FFF7E7
:1056700013FB16B1012000F0A9F80AB02846BDE8D6
:10568000F08700003C00002038B5184C4FF0FF3583
:10569000A17A19B3022806D0042806D008280ED013
:1056A00010281BD10DE0002000E008208DF800003C
:1056B000607A9DF80010B0EBD10F04D005E0102007
:1056C000F4E71820F2E7002038BD20686B4601227D
:1056D000C17960680078FCF73AFF08B1284638BD08
:1056E0009DF80000C0086072EDE700003C0000205B
:1056F000F8B5354C0546A07CA84201D10020F8BD84
:1057000031484FF0FF366B46D0E900104FF00102F0
:105710000979007835B3FCF76BFE70BB9DF800008B
:105720006B4620F020008DF80000206801220179EE
:1057300060680078FCF70BFFF8B90320FBF75CFA10
:1057400002208DF8000094F8220078B382202BE02C
:1057500020686B460122017D60680078FCF7F7FE47
:1057600058B92EE0FCF744FE38B9A07AC0079DF87E
:10577000000003D040F0200002E00CE020F0200008
:105780008DF8000020686B4601220179606800787E
:10579000FCF7DDFE08B13046F8BD0320FBF72CFA1C
:1057A00094F8220000B180208DF8000094F82300C6
:1057B0000028CDD09DF8000040F030008DF80000AA
:1057C000C6E7A5749AE700003C00002038B51C4CE1
:1057D00094F8241081421DD0002500B394F82500D0
:1057E000D0B1002000F0D2F90020FFF781FFE08C5B
:1057F00000F0C6F88DF8005060686B460122007812
:105800002321FCF7A4FE012084F8240000F0BEF957
:10581000FFF712FE002038BD4FF0FF3038BD0020EA
:1058200000F0B4F9207C8DF8000060686B4601221E
:1058300000782321FCF78BFE84F82450E8E7000071
:105840003C00002038B5194C4FF0FF35A17A31B338
:10585000FA2809D0B0F5FA7F08D0B0F57A7F0FD0DA
:10586000B0F5FA6F1BD10DE0002000E008208DF8A4
:105870000000207A9DF80010B0EBD10F04D005E0B5
:105880001020F4E71820F2E7002038BD20686B46AE
:105890000122817960680078FCF759FE08B128463A
:1058A00038BD9DF80000C0082072EDE73C000020E4
:1058B00038B5174C054694F82300A84201D10020C2
:1058C00038BD0DB1302000E000208DF80000A07C34
:1058D00028B19DF8000040F002008DF8000094F817
:1058E000220028B19DF8000040F080008DF80000F3
:1058F00020686B460122017D60680078FCF727FE76
:1059000010B14FF0FF3038BD84F82350D7E70000C6
:105910003C00002038B5194C4FF0FF35A17A31B367
:10592000BC2801D3012010E0622801D302200CE042
:105930002A2801D3032008E0142801D3042004E01E
:105940000A2801D3052000E006208DF80000E07A47
:105950009DF80010884201D1002038BD20686B46B8
:105960000122817860680078FCF7F1FD08B12846D3
:1059700038BD9DF80000E072EEE700003C0000201A
:10598000F8B51E4D04464FF0FF37A87A48B395F896
:10599000240030BB287D4FF47A7648B164B1282CBE
:1059A00003D8E0B2FFF77AFC26E00020FFF776FC90
:1059B000042C05D2042406E00020FFF76FFCF9E771
:1059C000B44200D93446B6FBF4F0401E8DF8000016
:1059D00028686B460122417868680078FCF7B7FDBB
:1059E00008B13846F8BD9DF80000401CB6FBF0F049
:1059F000E8814008FFF78EFF0020F8BD3C00002042
:105A0000F8B5054610F0700F4FF0000601D00120E8
:105A100004E015B18DF8006002E040208DF8000030
:105A2000244C6B4601222068817C60680078FCF77A
:105A30008EFD4FF0FF3760BB9DF8000020F0400066
:105A400020738DF80060680602D404208DF80000F1
:105A5000A80605D49DF8000040F002008DF8000073
:105A6000E80605D49DF8000040F001008DF8000024
:105A7000280705D49DF8000040F038008DF800009C
:105A800020686B460122C17C60680078FCF75FFDEE
:105A900010B1A6723846F8BD25B1082D02D00020FD
:105AA000FFF706FFA57226753220FBF7A5F8002048
:105AB000F8BD00003C000020F8B516000D464FF080
:105AC000FF371FD0104CA17AE1B1010A8DF8001008
:105AD000C0B28DF80100411960684289914211D825
