:020000040800F2
:1000000048100020A10100083B310008C726000865
:10001000393100084D070008293B000800000000A6
:100020000000000000000000000000000333000892
:100030000D08000800000000013300080533000827
:10004000BB010008BB010008BB010008BB010008A0
:10005000BB010008BB010008BB010008BB01000890
:10006000BB010008BB010008BB010008BB01000880
:1000700051070008BB0100085D070008BB0100082C
:10008000BB010008BB010008BB010008BB01000860
:10009000BB010008BB010008BB010008BB01000850
:1000A000BB010008BB010008BB010008BB01000840
:1000B000BB010008BB010008BB010008BB01000830
:1000C000BB010008BB010008BB010008BB01000820
:1000D000BB010008BB010008BB010008A93A0008E9
:1000E000BB010008BB010008BB010008BB01000800
:1000F000BB010008BB010008BB010008BB010008F0
:10010000BB010008BB010008BB010008BB010008DF
:10011000BB010008BB010008BB010008AD330008AB
:10012000BB010008BB010008BB010008BB010008BF
:10013000BB010008BB010008BB010008BB010008AF
:10014000BB010008BB010008BB010008BB0100089F
:10015000BB010008BB010008BB010008BB0100088F
:10016000BB010008BB010008BB010008BB0100087F
:10017000BB010008BB010008BB0100080000000033
:10018000BB010008BB010008DFF810D000F0CCFA7A
:1001900000480047A5450008AFF300804810002044
:1001A0000648804706480047FEE7FEE7FEE7FEE711
:1001B000FEE7FEE7FEE7FEE7FEE7FEE79D33000809
:1001C000890100082DE9F05F0546002092469B4614
:1001D00088460646814640241BE02846414647465D
:1001E000224600F0F2F953465A46C01A914110D304
:1001F00011461846224600F0D9F92D1A67EB01087E
:100200004F4622460120002100F0D0F917EB0009EB
:100210004E41201EA4F10104DFDC484631462A4647
:100220004346BDE8F09FD2B201E000F8012B491E21
:10023000FBD270470022F6E710B513460A46044683
:100240001946FFF7F0FF204610BD2DE9FE4F80460E
:1002500081EA0300C00F0C46009021F0004123F01A
:100260000045B8EB0200A94105D240462146904620
:100270001C460B46024623F00040104347D0270D92
:10028000C7F30A00C3F30A510290401A01904028B4
:100290006BDAC3F3130040F4801B0098924620B140
:1002A0000023D2EB030A63EB0B0B01985946C0F114
:1002B0004002504600F07AF906460D46504659462F
:1002C000019A00F092F910EB08006141002487EADE
:1002D000115284EAE7731A4340D0009A62B3019A3C
:1002E000012A4FEA075215DC001B61EB02014FF0B7
:1002F000004202EA0752CDE90042001C41F580119C
:1003000032462B4600F092F903B0BDE8F08F40462C
:100310002146F9E7001B61EB0201001C41F5801347
:1003200000185B412018A2F5001747EB030140EAD3
:10033000D570B6196D4111E06D084FEA360645EAF1
:10034000C0754FEA0752001B61EB0201001C41F52A
:10035000801149084FEA30000019514132462B46BE
:1003600003B0BDE8F04F00F052B900980122400000
:100370000023D0EB020263EBE073009821464FEAC2
:10038000E074B8EB000061EB0401E9E783F000439F
:100390005BE781F0004158E72DE9FE4F81EA030455
:1003A00004F0004421F0004100944FF0000B23F0D2
:1003B000004350EA01045ED052EA03045BD0C3F369
:1003C0000A54C1F30A552C44A4F2F3340194A0FB5F
:1003D0000254C1F3130141F48011C3F3130343F436
:1003E000801301FB024400FB034E840A970A44EA8F
:1003F000815447EA8357A4FB076802958D0A05FBE1
:1004000007854FEA932C04FB0C542705029D4FEA05
:10041000065847EA1637B5EB08056EEB070C870E52
:10042000920E47EA811742EA8312A7FB0201B6EB5C
:100430000B0164EB00042B0D43EA0C335E1844EB14
:100440001C50DA465146E7FB0201C5F313044FEA9C
:100450000B3343EA14534FEA0432019C43EA060388
:10046000A4F10C040294009CCDE900B400F0DEF885
:1004700003B0BDE8F08F00200146F9E72DE9F04D0B
:1004800081EA030404F0004B21F0004514464FF0CC
:10049000000A23F0004150EA050220D054EA01028C
:1004A0001DD0C5F30A570246C5F31303C1F3130069
:1004B000C1F30A5640F4801543F48013A7EB0608F5
:1004C000101BD64608F2FD3873EB050002D308F185
:1004D000010801E092185B41B8F1000F03DA002037
:1004E0000146BDE8F08D00204FF480110646844699
:1004F0000EE0171B73EB050705D3121B63EB050317
:1005000006434CEA010C49084FEA300092185B415F
:1005100050EA0107EDD152EA030012D082EA04004A
:1005200083EA0501084305D0101BAB4106D2012226
:10053000002306E000224FF0004302E06FF00102CA
:1005400053101AEB06004CEB085110EB0A0041EB7C
:100550000B01BDE8F04D00F05AB800F0004230F059
:1005600000400AD0C10D01F56071C0F3160042EAE7
:100570000151C208400711437047002001467047EF
:1005800030B50B46014600202022012409E021FA63
:1005900002F59D4205D303FA02F5491B04FA02F560
:1005A0002844151EA2F10102F1DC30BD202A04DB33
:1005B000203A00FA02F1002070479140C2F1200376
:1005C00020FA03F3194390407047202A04DB203AB5
:1005D00021FA02F00021704721FA02F3D040C2F163
:1005E00020029140084319467047202A06DBCB17AA
:1005F000203A41FA02F043EAE07306E041FA02F3DE
:10060000D040C2F12002914008431946704710B50E
:10061000141E73F1000408DA401C41F10001921825
:100620005B411A4301D120F0010010BD2DE9F04DCE
:1006300092469B4611B1B1FA81F202E0B0FA80F223
:1006400020329046FFF7B2FF04460F4640EA0A0008
:1006500041EA0B0153465A46084313D0114653EA68
:10066000010019D0C8F140025046FFF7AEFF054621
:100670000E46504659464246FFF798FF084305D0BC
:10068000012004E020463946BDE8F08D00200543F6
:1006900046EAE0762C4337430A986305E40AA0EB68
:1006A00008000022FD0A44EA47540A3002D500201F
:1006B0000146E9E7010510196941DDE9084500191E
:1006C0006941BDE8F04DA2E7C1F30A52C1F313013D
:1006D00040F2FF3341F480119A4202DA00200146D1
:1006E000704740F233439A42A2F2334202DC524254
:1006F000FFF76BBFFFF75ABF30B5041E71F100045E
:1007000004DB4FF00044404264EB0101141E73F11E
:10071000000405DB1C464FF00043524263EB040328
:10072000994208BF904230BD064C074D06E0E06894
:1007300040F0010394E8070098471034AC42F6D328
:10074000FFF726FD206A0008406A0008FEE7000067
:10075000014800F0B9B8000070050020014800F021
:10076000B3B80000D005002001681823CAB2103ABF
:10077000B2FBF3F2054B6FF30901032A9B5CC365DF
:1007800000D9091D81650846704700007E5B00089E
:1007900010B5014600208B698A6A4FF0C07453B1CE
:1007A000B3F5005F15D072B1012A0CD0022A0AD02D
:1007B000032A09D104E01AB1012A06D0022A03D182
:1007C000C96AC90100D5012010BDC96AA142FAD089
:1007D00010BD002AF7D0012AF2D0022AF3D0032A52
:1007E000F3D010BD30B50468256825F48025256058
:1007F000046863608368402B036803D099600068D5
:10080000C26030BD9A600068C16030BD704772B68A
:10081000FEE72DE9F0410446876D00F0DFFA064659
:1008200094F835000025022806D08020606584F801
:1008300034500120BDE8F0812068016821F01601E4
:1008400001602068416921F080014161206C08B994
:10085000A06C20B12068016821F0080101602068C7
:10086000016821F0010101600CE000F0B7FA801B83
:10087000052807D920206065032084F8350084F816
:100880003450D7E720680068C007EED194F85C10B8
:100890003F208840B860012084F8350084F8345047
:1008A0000020C7E790F83510022903D08021416568
:1008B00001207047052180F835100068016821F09B
:1008C00001010160002070472DE9F84304464FF014
:1008D0000009CDF8009063484FF41651A56D0068EB
:1008E000B0FBF1F72E6894F85C10082000FA01F1D3
:1008F00031420FD021680A6852070BD50A6822F0EE
:1009000004020A6094F85C108840A860606D40F0B2
:100910000100606594F85C104FF0010808FA01F0DE
:10092000304208D021684969090604D5A860606D85
:1009300040F00200606594F85C100420884030426A
:1009400008D021680968890704D5A860606D40F067
:100950000400606594F85C1010208840304218D084
:1009600021680968090714D5A8602068016849034F
:1009700004D50068000308D5A16C07E00168C9052B
:1009800003D4016821F008010160216C09B12046FF
:10099000884794F85C1020208840304231D021688C
:1009A0000968C9062DD5A86094F835000528206887
:1009B000016806D0490347D5006800031DD4616C67
:1009C0001CE021F0160101602068416921F08001DE
:1009D0004161206C08B9A06C20B12068016821F049
:1009E0000801016094F85C103F208840A86084F8FA
:1009F000358084F83490216D1FE0E16B09B1204609
:100A00008847606D00282BD0606DC00714D005208A
:100A100084F835002068016821F001010160009828
:100A2000401C0090B84203D820680068C007F6D187
:100A300084F8358084F83490E16C002910D001B03E
:100A40002046BDE8F04308470168C905D5D40168D0
:100A500021F01001016084F8358084F83490CCE7EF
:100A6000BDE8F883100000202DE9F041044600F0B5
:100A7000B5F906465CB1022084F83500002584F8FB
:100A800034502068016821F0010101600DE001206F
:100A9000BDE8F08100F0A2F9801B052805D92020CF
:100AA0006065032084F83500F2E720680068C0071D
:100AB000F0D12268116820480140D4E901031843AD
:100AC000D4E903363343184363691843A3691843D1
:100AD000E3691843236A18430843616A042903D170
:100AE000D4E90B1319430843106020684069666A13
:100AF00020F0070130460E43012704280CD1A06ADC
:100B00000643E06A40B12046FFF742FE20B1402094
:100B1000606584F83570BAE7206846612046FFF7C3
:100B200023FE94F85C203F2191408160656584F844
:100B300035700020ACE700003F8010F02DE9F04157
:100B40000446866D90F83400002501280DD0012060
:100B500084F8340094F835700020012F07D084F811
:100B6000340002252846BDE8F0810220FBE7022779
:100B700084F8357060652046FFF734FE94F85C1009
:100B80003F208840B0602068016841F01601016094
:100B9000206C20B12068016841F0080101602068E4
:100BA000016841F001010160DCE7000070B5044616
:100BB00000F014F90546601C02D004480078044493
:100BC00000F00CF9401BA042FAD370BD04000020D5
:100BD0002DE9F84FDFF8BCA10022012503264FF0D4
:100BE0000F090AF1040BAAF1040E00BF0B6805FA05
:100BF00002F42340A34270D10F7907F00307012FBD
:100C000001D0022F16D187684FEA420806FA08FC85
:100C100027EA0C07D1F80CC00CFA08FC4CEA070CC8
:100C2000C0F808C04768A7430C79C4F30014944087
:100C30003C4344600C79E443A4070AD0C4684FEAFB
:100C4000420C06FA0CF7BC438F6807FA0CF72743EF
:100C5000C7600C7904F00304022C12D1D40800EB15
:100C6000840CDCF820405707FF0E09FA07F824EA45
:100C70000804D1F8108008FA07F848EA0408CCF80C
:100C8000208004684FEA420C06FA0CF7BC430F7947
:100C900007F0030707FA0CF7274307604C6814F4C2
:100CA000403F70D03C4C276847F480472760246859
:100CB00022F0030704F480440094384C07EB040C42
:100CC000DCF8084897074FEA177809FA08F7BC4399
:100CD000334FB84202D1002724E054E0314FB842EC
:100CE00001D101271EE0304FB84201D1022719E09F
:100CF0002E4FB84201D1032714E02D4FB84201D145
:100D000004270FE02B4FB84201D105270AE02A4FF4
:100D1000B84201D1062705E0284FB84201D1072784
:100D200000E0082707FA08F72743CCF80878DAF834
:100D300000405746D1F804C09C435FEACC2C00D554
:100D40001C433C60DBF800405F46D1F804C09C4384
:100D50005FEA8C2C00D51C433C60DEF800407746EF
:100D6000D1F804C09C435FEA8C3C00D51C433C6036
:100D7000084F083F3C68D1F804C09C435FEACC3C74
:100D800000D51C433C60521C102AFFF42FAFBDE875
:100D9000F88F0000083C0140443802400030014018
:100DA000000002400004024000080240000C024023
:100DB000001002400014024000180240001C0240D3
:100DC000426921EA02030A4043EA02418161704715
:100DD0000AB1816170470904FBE70000014880689F
:100DE000704700000400002070B5040025D094F87E
:100DF0003D00002520B984F83C50204600F04EF913
:100E0000242084F83D002068016821F00101016080
:100E10002068016841F4004101602068016821F404
:100E20000041016000F0A2FA4D4A6168914201D888
:100E30004C4900E04C49884201D2012070BD4B4929
:100E40002368B0FBF1F15E6826F03F060E435E605A
:100E50006368934206D94FF4967359434FF47A73FB
:100E6000B1FBF3F12368491C1E6A26F03F063143AB
:100E700019626168914210D84900401EB0FBF1F23E
:100E8000521CC2F30B02042A01D2042022E0B0FB60
:100E9000F1F0401CC0F30B001CE0A268F2B301EBC0
:100EA000C10303EB0116431EB3FBF6F35B1C43F4D3
:100EB00080431B0549D092B301EBC10202EB011143
:100EC000401EB0FBF1F0401CC0F30B0040F480402A
:100ED00040F400402168CA694CF6FF739A431043FE
:100EE000C861D4E9071001432068026822F0C002FB
:100EF00011430160D4E9030101432068826848F28C
:100F0000FF339A4311438160D4E905010843216806
:100F1000CA6822F0FF021043C86001E00EE016E04C
:100F20002068016841F0010101602564202084F8F7
:100F30003D00256384F83E50002070BD01EB410662
:100F4000431EB3FBF6F35B1CB3E70120C2E701EBE2
:100F50004101401EB0FBF1F0401CC0F30B00B7E7AD
:100F6000A086010080841E0000093D0040420F0061
:100F70002DE9F84F1F4690468A460446DDF8289032
:100F8000FFF72CFF054694F83D0020287FD1192358
:100F9000012240492046009501F028FC002876D126
:100FA00094F83C00012872D0012084F83C002068AD
:100FB0000168C90703D1016841F00101016020689F
:100FC000016821F400610160212084F83D001020B7
:100FD00084F83E0000262664C4F824806785608D6E
:100FE00020852D48E0622B464A465146204601F0B6
:100FF00083FB90B9206841698069009036E02A46F9
:101000004946204601F098FC50B1206C042804D1D8
:101010002068016841F4007101600120BDE8F88F8B
:10102000606A216800780861606A401C6062618DB6
:10103000491E6185218D491E89B221852268536927
:10104000DB435B070BD451B100781061606A401C30
:101050006062608D401E6085208D401E20852A467E
:101060004946204601F096FB0028CED1208D00286D
:10107000C5D154F83D0B016841F400710160202096
:1010800004F81E09E67766770020C7E7FFE702202D
:10109000C4E70000020010000000FFFF10B586B09A
:1010A000044614216846FFF7C5F8134920688842B2
:1010B00020D112480021026842F00202026000685A
:1010C00000F002000590C02000901220CDE901013F
:1010D000032003900420049069460948FFF778FD37
:1010E00006481030016841F400110160006800F406
:1010F0000010059006B010BD00540040303802408A
:1011000000040240024881680278114481607047FF
:10111000040000200B4810B5016841F40071016023
:10112000016841F480610160016841F480710160EF
:10113000032000F06FF80E2000F006F800F024F80D
:10114000002010BD003C024070B50D4D04464FF428
:101150007A712878B1FBF0F00A490968B1FBF0F028
:1011600000F00CFB48B9102C07D200222146501E7B
:1011700000F030F800206C6070BD012070BD0000F0
:1011800004000020100000200A4808B5016841F45E
:1011900080410160006800F4804000900548001F15
:1011A000016841F080510160006800F080500090BB
:1011B00008BD000044380240002809DB00F01F028F
:1011C000012191404009800000F1E020C0F80011A9
:1011D00070470000F0B40E4B1B680C46C3F30223AB
:1011E000C3F10705042D00D90425191D072901D2D3
:1011F000002300E0DB1E012606FA05F1491E21400E
:1012000099409E40761E16403143F0BC02F0C0BCAF
:101210000CED00E0064900F0070208684FF6FF03F6
:10122000184040EA0220034A10430860704700005B
:101230000CED00E00000FA052DE9F0470E46050030
:1012400065D0DFF81481D8F80000F7B200F007008D
:10125000B04207D288F80070D8F8000000F007000C
:10126000B04254D128683D4C810712D5400703D5C0
:10127000206840F4E05020602878000703D52068FB
:1012800040F4604020602068A96820F0F000084326
:1012900020602878C0072DD03049686808390128B7
:1012A00012D0022813D0032811D009688907002919
:1012B0002DDA216821F0030101432160FFF78EFD43
:1012C000814641F2883A0EE009688903EFE7096830
:1012D0008901ECE7FFF782FDA0EB0901514502D936
:1012E0000320BDE8F0872068696800F00C00B0EBCF
:1012F000810FEFD1D8F80010404601F00701B1424C
:1013000007D90770006800F00700B04201D0012043
:10131000E7E72878400705D52068E96820F4E05021
:10132000084320602878000706D52068296920F442
:10133000604040EAC100206000F038F82168084AA7
:10134000C1F30311515CC8400649086006480068B3
:10135000FFF7FAFE0020C4E7003C024008380240D4
:10136000865B0008100000200800002004480549A2
:1013700000680968044AC1F38221515CC840704783
:101380001000002008380240965B00080448054918
:1013900000680968044AC1F34231515CC840704793
:1013A0001000002008380240965B0008154810B570
:1013B000006810F00C02144813D01449042A0FD00E
:1013C000082A0ED10F4C241F2268236802F03F0226
:1013D0005B0207D52068C0F38810A0FB010106E07E
:1013E000084610BD2168C1F38811A1FB000100234C
:1013F000FEF7E8FE2168C1F30141491C4900B0FB3A
:10140000F1F010BD083802400024F40040787D015E
:101410002DE9F84F04006ED02078DFF84C93C00718
:10142000A9F104054AD009F104000168C1F3810162
:10143000012908D00068C0F3810002280AD1D9F838
:101440000000400206D52868800337D56068002870
:10145000E1D033E06068B0F5803F10D0B0F5A02F48
:10146000286810D020F480302860286820F480207C
:1014700028606068A8B1FFF7B1FC06460DE0286857
:1014800040F48030F4E740F480202860F7E700BFA4
:10149000FFF7A4FC801B642873D828688003F7D565
:1014A0000CE0FFF79BFC064605E000BFFFF796FC4B
:1014B000801B6428F0D828688003F7D42078DFF8F0
:1014C000AC8280074FF0000A3ED5A748001D016896
:1014D00011F00C0F08D00068C0F3810002280BD176
:1014E000D9F80000400207D42868800716D5E068C4
:1014F000012800D112E033E1E068B8B10120C8F85A
:101500000000FFF76BFC064605E000BFFFF766FC36
:10151000801B0228C0D828688007F7D52868216971
:1015200020F0F80040EAC10028600DE0C8F800A0F3
:10153000FFF754FC064604E0FFF750FC801B02282E
:101540001FD828688007F7D42078000722D5864F57
:1015500087486169703771B101210160FFF73EFC76
:10156000064604E0FFF73AFC801B022809D83868D9
:101570008007F7D50EE0C0F800A0FFF72FFC064665
:1015800005E082E0FFF72AFC801B02287DD838683E
:101590008007F7D42078400768D5DFF8CCB1002762
:1015A0000BF13C0BDBF80000C0000BD4DBF80010A3
:1015B00041F08051CBF80010DBF80000012700F06B
:1015C000805000906B4E3068C00510D4306840F4F5
:1015D00080703060FFF702FC009005E0FFF7FEFB33
:1015E0000099401A022850D83068C005F6D55E4EE2
:1015F000A0686C3601280FD00528306810D020F084
:1016000001003060306820F004003060A068B8B19C
:10161000FFF7E4FB00900FE0306840F00100F4E7D2
:1016200040F004003060F7E7FFF7D8FB0099411A5B
:1016300041F28830814266D830688007F4D50EE0E8
:10164000FFF7CCFB009007E0FFF7C8FB0099411AB9
:1016500041F28830814256D830688007F4D42FB1E7
:10166000DBF8001021F08051CBF80010A069C8B35E
:101670003D49091D0968C1F3810102294AD00228A8
:10168000504607D0C8F8600000E03CE0FFF7A6FB3A
:1016900004463BE04746C8F86000FFF79FFB06465C
:1016A00005E000BFFFF79AFB801B02282BD82868B3
:1016B0008001F7D4D4E907010843A16A2E4A4908FA
:1016C00002EB0141626A41EA8211084394F82C104E
:1016D00040EA0161C9F8001001203866FFF77EFB7F
:1016E000044606E03EE000BFFFF778FB001B02283F
:1016F00009D828688001F7D534E000BFFFF76EFBFA
:10170000001B022802D90320BDE8F88F2868800159
:10171000F4D427E00128F7D0D9F80000E26900F4FA
:10172000800191421CD1226A00F03F01914217D101
:1017300047F6C071626A0140B1EB821F10D1A26A04
:101740004FF0FF3300F4403103EB5202B1EB024F94
:1017500006D194F82C1000F07060B0EB016F01D04E
:101760000120D1E70020CFE70438024000004742C3
:10177000800E4742007000400000FFFF10B5401E81
:10178000B0F1807F01D3012010BD4FF0E0246061F3
:101790000F21601702F0FCF90020A06107202061F2
:1017A000002010BD7047704710B590F83C20012A0A
:1017B00022D0012280F83C20CA688C6822F4407252
:1017C00022434C6822F4806222430C6822F40062B7
:1017D00022430C6922F4805222434C6922F40052C5
:1017E0002243C969002322F480420A4301684A6403
:1017F00080F83C30002010BD022010BD70B590F87C
:101800003C20012A32D0012480F83C40022280F89A
:101810003D2003685A689D6822F070060A683243CA
:101820005A60134B02689A4214D0B2F1804F11D023
:10183000104B9A420ED0104B9A420BD00F4B9A424B
:1018400008D00F4B9A4205D00E4B9A4202D00E4B55
:101850009A4204D1496825F080031943916080F8C9
:101860003D40002180F83C10084670BD022070BD4C
:10187000000001400004004000080040000C00404F
:1018800000040140004001400018004010B5040071
:1018900003D094F83D0010B107E0012010BD0020F6
:1018A00084F83C00204600F01FF8022084F83D0038
:1018B000211D206801F080FD012084F8460084F895
:1018C0003E0084F83F0084F8400084F8410084F82A
:1018D000420084F8430084F8440084F8450084F80A
:1018E0003D00002010BD000008B5114A01681148F4
:1018F000914208D1016841F010010160006800F0D8
:101900001000009008BD0C4A9142FBD1016841F0E3
:10191000200101600068002200F0200000901146C4
:101920003720FFF757FCBDE808403720FFF744BCDD
:1019300000100040403802400014004090F83D1074
:10194000012901D001207047022180F83D10016873
:10195000CA6842F00102CA6000681149884214D086
:10196000B0F1804F11D00F4988420ED00E49884205
:101970000BD00E49884208D00D49884205D00D4948
:10198000884202D00C49884204D1816801F00701E5
:10199000062903D0016841F0010101600020704771
:1019A000000001400004004000080040000C00401E
:1019B0000004014000400140001800402DE9F041C2
:1019C0000D46040003D094F83D0018B108E0012052
:1019D000BDE8F081002084F83C00204600F040F88B
:1019E000022084F83D002068816844F20702914398
:1019F0008160211D206801F0DFFC226890689169F8
:101A0000166A2B68AF69034340F20330814341EA11
:101A10000721A868EF6908434FF6FC418843E9684D
:101A200040EA0720014328692F6A000140EA073095
:101A3000084369686D6926F0AA0646EA0515294338
:101A400093602268906154F8460B0162012004F80B
:101A50001F09E0752076E0762077A0750020B7E7B3
:101A6000F0B587B0044614216846FEF7E3FB43490E
:101A700023680024414A103902254148B3F1804FC0
:101A800014D0404FC026BB423ED1136843F002033E
:101A90001360126802F0020205920A6842F0010225
:101AA0000A600968009601F0010142E0136843F002
:101AB00001031360126802F0010205920A6842F005
:101AC00001020A600A6802F0010205920A6842F007
:101AD00002020A600968012601F002010591202135
:101AE0000091CDE90154CDE903466946FFF770F84E
:101AF00008200090CDE90154CDE90346694622480B
:101B0000FFF766F807B0F0BDDFF880C00327634534
:101B100016D1136843F008031360126802F008023C
:101B200005920A6842F001020A600968009701F014
:101B30000101CDE90154CDE9045103946946DFE781
:101B400013488342DED10D48001D026842F00202B4
:101B50000260006800F002000590086840F0040090
:101B6000086008680096CDE9015400F00400CDE952
:101B70000470694603940748C2E7000040380240F9
:101B8000000002400004004000040240000C00403D
:101B9000000401400008024070B590F83E60044621
:101BA00090F83F5090F8423090F84320022021B145
:101BB00004290ED0012E1BD114E0012E18D1012BC7
:101BC00016D184F83E0084F84200012200212068EA
:101BD00020E0012D0CD1012A0AD184F83F0084F8BD
:101BE000430014E0012D03D1012B01D1012A01D0C2
:101BF000012070BD84F83E0084F83F0084F8420064
:101C000084F8430001220021206801F041FC0122F8
:101C10000421206801F03CFC2068016841F00101CA
:101C20000160002070BD70472DE9F0410446006856
:101C3000C66805694FF00007A90713D5B10711D58C
:101C4000F91E016101202077206880698007204605
:101C500002D0FFF7E8FF04E000F0A8F8204600F00B
:101C60004DF92777680716D5700714D521686FF0EE
:101C700004000861022020772068806910F4407F0A
:101C8000204602D0FFF7CFFF04E000F08FF8204697
:101C900000F034F92777280715D5300713D52168C8
:101CA0006FF008000861042020772068C069800771
:101CB000204602D0FFF7B7FF04E000F077F8204697
:101CC00000F01CF92777E80616D5F00614D5216830
:101CD0006FF010000861082020772068C06910F4B8
:101CE000407F204602D0FFF79EFF04E000F05EF840
:101CF000204600F003F92777E80708D0F00706D060
:101D000021686FF001000861204600F05DF92806A7
:101D100008D5300606D521686FF08000086120469E
:101D2000FFF740FD680608D5700606D521686FF0FC
:101D300040000861204600F009FAA8060AD5B0065E
:101D400008D521686FF0200008612046BDE8F04109
:101D5000FFF729BDBDE8F08110B586B00446142117
:101D60006846FEF767FA0E492068884216D10D488A
:101D70000021026842F010020260006800F01000CA
:101D800005904FF4D44000900220CDE901010120DC
:101D9000CDE9031069460448FEF71AFF06B010BDEE
:101DA000000001403038024000100240704770B51A
:101DB000044690F83C0000260D4601280FD0012073
:101DC00084F83C006AB1042A1DD0082A2FD00C2ABE
:101DD0003FD00126002084F83C00304670BD022030
:101DE00070BD206801F062FB2068816941F0080144
:101DF00081612068816921F0040181612068816925
:101E00002A69114311E0206801F080FB2068816994
:101E100041F4006181612068816921F48061816100
:101E2000206881692A6941EA02218161D2E720683C
:101E300001F0A2FB2068C16941F00801C16120687E
:101E4000C16921F00401C1612068C1692A69114397
:101E500011E0206801F0C4FB2068C16941F4006111
:101E6000C1612068C16921F48061C1612068C169D4
:101E70002A6941EA0221C161ACE710B5040003D030
:101E800094F83D0010B107E0012010BD002084F857
:101E90003C00204600F01EF8022084F83D00211D81
:101EA000206801F089FA012084F8460084F83E0099
:101EB00084F83F0084F8400084F8410084F8420030
:101EC00084F8430084F8440084F8450084F83D0019
:101ED000002010BD08B500680649884208D10648B0
:101EE000016841F001010160006800F0010000900C
:101EF00008BD000000000140443802407047000067
:101F000010B50446022249B104290ED0082913D085
:101F100094F84100012816D0012010BD94F83E002D
:101F20000128F9D184F83E200FE094F83F00012801
:101F3000F2D184F83F2008E094F840000128EBD16A
:101F400084F8402001E084F841200122206801F05B
:101F50009FFA16492068164A884201D0904203D160
:101F6000436C43F4004343642068884213D0B0F1CB
:101F7000804F10D00F4988420DD00F4988420AD0B7
:101F80000E49884207D0904205D00D49884202D0C0
:101F90000C49884204D1816801F00701062903D069
:101FA000016841F001010160002010BD0000014006
:101FB000000401400004004000080040000C004004
:101FC00000400140001800405C49006809688842F0
:101FD0007DD15B48C1690A681268D243D20601D537
:101FE000012200E0022200F8202F0A68526AF2EE75
:101FF000062A00EE102AB3EE0E2AF8EEC00A80EE92
:10200000A20AC0EE020AB5EE000A20EE801ADFED49
:102010004D0A61EE201A9FED4C1A426021EE813A82
:10202000F3EE041A23EE213A80ED023ABDEEC33AF4
:1020300013EE102A42840968002048624049443166
:10204000CA6913681B68DB43DB0601D5012300E086
:10205000022301F8203F13685B6ABBEE0E4A03EED1
:10206000103A4B60F8EEC33A83EEA23AC3EE043A5C
:1020700023EE803A23EE203A23EE013A23EE213A72
:1020800081ED023ABDEEC33A13EE103A4B8411686B
:1020900048622B498831CA6913681B68DB43DB0639
:1020A00001D5012300E0022301F8203F13685B6A99
:1020B00003EE103AF8EEC33A83EEA23AC3EE023AC8
:1020C00023EE803A23EE203A23EE013A00E034E09A
:1020D00023EE213A4B6081ED023ABDEEC33A13EE96
:1020E000103A4B84116848621549CC31CA691368AB
:1020F0001B68DB43DB0601D5012300E0022301F866
:10210000203F13685B6A4B6003EE103AF8EEC33A67
:1021100083EEA23AC3EE022A22EE800A20EE200AC3
:1021200020EE010A20EE210A81ED020ABDEEC00A6E
:1021300010EE103A4B841168486270470804002082
:102140003C010020DA0F494000008242704770478E
:1021500010B504460068406994F84110C0F3C010FF
:10216000212911D180B12068143050E8001F21F0DE
:10217000800140E80012002AF5D1A06B08B1FEF7FB
:1021800048FB204601F018FB2068406994F8421093
:10219000C0F38010222911D180B12068143050E89A
:1021A000001F21F0400140E80012002AF5D1E06B49
:1021B00008B1FEF72EFB204601F0D7FA002010BD33
:1021C00070470000F8B5016804460868CA684B69A2
:1021D00010F00F0F4FF0000559D003F0010602F484
:1021E0009077374365D0C10705D0D10503D5616C21
:1021F00041F001016164410705D5D90703D0616C45
:1022000041F002016164810705D5D90703D0616CF3
:1022100041F004016164010707D502F02001314358
:1022200003D0616C41F008016164616C00293AD00F
:10223000800604D5900602D5204601F0CBFA20682E
:102240004069616CC0F38010090700D460B3204678
:1022500001F08BFA20684069400621D520681430CF
:1022600050E8001F21F0400140E80012002AF5D19B
:10227000E06BA8B16E490165E06BFEF713FB002827
:1022800011D0E06B016D01B0BDE8F0400847830656
:102290000FD593060DD52046BDE8F84001F09ABA57
:1022A0002046FFF78DFFF8BD2046FFF789FF6564E4
:1022B000F8BD266B2023012E7DD1C6067BD5D60620
:1022C00079D508684868009048694FF002064006D2
:1022D00041D5E16B086840680004000CE8D0A28D8D
:1022E0008242E5D9E085C869B0F5807F2DD02068AD
:1022F0000C3050E8001F21F4807140E80012002AE1
:10230000F5D12068143050E8001F21F0010140E8A9
:102310000012002AF5D12068143050E8001F21F087
:10232000400140E80012002AF5D184F842302563CC
:1023300020680C3050E8001F21F0100140E8001226
:10234000002AF5D1E06BFEF764FA6663A08DE18D9B
:10235000401A81B22AE0A08DE18D401A81B2E08D51
:102360000028A5D00029A3D022680C3252E8000F23
:1023700020F4907042E80007002FF5D12068143057
:1023800050E8002F22F0010240E80027002FF5D18D
:1023900084F84230256320680C3050E8002F22F08A
:1023A000100240E80023002BF5D166632046FFF7BA
:1023B000CEFEF8BDFFE705062BD5150629D594F806
:1023C00041002128F5D1A068B0F5805F01D12069D6
:1023D000B0B1206A411C2162216800784860E08C1D
:1023E000401E0004000CE084E3D12068C16821F0A5
:1023F0008001C1602068C16841F04001C160D8E738
:10240000206A0088C0F308004860206A801C2062AF
:10241000E5E74006CDD55006CBD5CA68204622F068
:102420004002CA6084F8413000F04CF9C1E7000076
:102430006D36000870B5040004D094F84100002502
:1024400010B106E0012070BD84F84050204600F035
:1024500023F8242084F841002068C16821F4005149
:10246000C160204601F018FA2068016921F490410A
:1024700001612068416921F02A0141612068C16839
:1024800041F40051C1606564202084F8410084F863
:1024900042006563002070BD2DE9F04186B006461C
:1024A00014216846FDF7C6FE4E49D6F800C04E48D6
:1024B00002220323072700248C4517D14A491431EF
:1024C0000D6845F010050D60096801F010010591D7
:1024D000016841F0010101600068694600F00100F7
:1024E000059058028DE8150040481BE03E49DFF892
:1024F000008110313F4DC4451BD10E6846F40036B3
:102500000E60096801F400310591016841F008018D
:1025100001600068694600F00800059060208DE8C1
:1025200015002846CDE90337FEF752FB06B0BDE89B
:10253000F081DFF8C480C445F8D1D1F800C04CF474
:10254000802CC1F800C0096801F480210591016860
:1025500041F0080101600068694600F0080005903C
:102560004FF440708DE81500CDE903372846FEF79B
:102570002FFB234D21484FF000672860C5E9017407
:102580004FF48068C5E903486C61AC61EC612C6272
:1025900028466C62FEF768FA08B1FEF738F9F56371
:1025A000AE63174D154860353030E5E8020740202E
:1025B000A5E81101124845F814496030AC61EC619E
:1025C0002C626C62FEF750FA08B1FEF720F9B56391
:1025D00000220F212720AE63FEF7FCFD2720FEF727
:1025E000EBFDA3E70010014030380240000002403C
:1025F00000440040000C02400048004028600240B7
:102600007005002090F84230202B01D00220704746
:1026100021B11AB10023036301F0C4B9012070474E
:10262000704770472DE9F843044690F841009846FA
:1026300016460D46202802D00220BDE8F88385B159
:102640007EB100206064212084F84100FEF7C6FBC3
:10265000A6848146E684A0682027B0F5805F02D07A
:1026600003E00120E9E7206910B12E4600250EE0C5
:1026700000260CE08021204601F0DCF9A8B9C6B1A3
:1026800016F8010B21684860E08C401EE084E08C65
:102690004B464FF00002CDF800800028EAD14FF001
:1026A0004001204601F0C6F940B184F84170032092
:1026B000C3E735F8020BC0F30800E3E784F8417084
:1026C0000020BAE77047FEE701684A69D243520525
:1026D0000FD46FF480624A61002140F8301F20223D
:1026E00042738173026942F00402026101730120A6
:1026F0007047002070470000F8B50446C06A1E46C7
:102700000D461746082807D0012805D010F5803F50
:1027100002D0206B122804D12068016841F4807136
:102720000160134600224FF001112046009600F090
:102730005DF840B120680068C00502D54FF4007014
:1027400020640320F8BD2069B0F5804F0ED006202C
:10275000216800EAD51040F0F000086133463A469F
:102760000B49204600F08AF878B902E005F0FE0037
:1027700000E0E8B221680861054933463A46891FFE
:10278000204600F07BF80028DCD00120F8BD0000D6
:102790000800010070B516460D4604461EE02046AE
:1027A000FFF792FF08B1012070BD681C16D0FEF73C
:1027B00015FB801BA84200D885B920684069C0433A
:1027C00040070BD5002044F8300F20216173A0731F
:1027D000216941F0200121612073E4E7206840690C
:1027E000C0434007DBD4002070BD00002DE9F04756
:1027F000984617460D460446C1F30746DDF820907B
:102800002AE000BFB8F1FF3F26D0FEF7E7FAA0EBC1
:102810000901414502D8B8F1000F1DD12068012EF1
:1028200016D0806925EA00000004000C12D00020B8
:10283000B84211D1002044F8300F20216173A073F9
:10284000216941F02001216120730120BDE8F0875A
:102850004069E7E70120EBE72068012E0AD0806994
:1028600025EA00000004000C06D00020B842C9D0C0
:102870000020EBE74069F3E70120F7E72DE9F04797
:10288000984616460D4604464FF000094FF0200AC0
:10289000C1F3074723E020684069C043400515D4D1
:1028A0002068016841F40071016021686FF4806064
:1028B0004861C4F8309084F83DA084F83E90216CC3
:1028C00041F00401216484F83C9021E0701C06D0A2
:1028D000FEF784FAA0EB0800B04203D816B1012F2E
:1028E0001FD021E02068012F15D0806925EA000063
:1028F0000004000C18D000BF44F8309F84F80DA0ED
:1029000084F80E90216941F02001216184F80C9037
:102910000120BDE8F087406925EA00000004000CB2
:10292000EAD12068406901E02068806925EA00005A
:102930000004000CAFD1ECE770B516460D46044616
:102940001EE02046FFF7C0FE08B1012070BD681CE4
:1029500016D0FEF743FA801BA84200D885B920683C
:102960004069C04300060BD5002044F8300F2021F9
:102970006173A073216941F0200121612073E4E7B4
:1029800020684069C0430006DBD4002070BD427956
:1029900062F30701827962F30F21C279007A62F350
:1029A000174160F31F6100EE101A70474A1E032A98
:1029B00001D30020704708444078704710B54B1E83
:1029C000022B02D39FED0A0A10BD00EB810310F821
:1029D000210013F8034D64F307025C789B7864F3DD
:1029E0000F2263F3174260F31F6200EE102A10BD3E
:1029F000000000002DE9FF5F0C460546DDE911816E
:102A0000DDE91396DDE90EBA407A17460A2803D0AD
:102A1000022004B0BDE8F09F2878442803D0432862
:102A200013D00120F5E75FEA090005D0012128460F
:102A3000FFF7C4FF89ED000A002E05D002212846C9
:102A4000FFF7BCFF86ED000A9BE06A7800260120B4
:102A5000092A6BD2DFE802F09505213D599577915F
:102A60009400A8784FF002010028284609D0FFF70B
:102A70009DFF20702846FFF78AFF207857F8200036
:102A800052E0FFF793FF2070009657F820000023D4
:102A9000012290ED000A114665E0A8784FF002018E
:102AA0000028284609D0FFF781FF20702846FFF74D
:102AB0006EFF207853F8200036E0FFF777FF207094
:102AC000009653F820000023012290ED000A022115
:102AD00049E0A8784FF002010028284609D0FFF706
:102AE00065FF20702846FFF752FF21785BF8210030
:102AF0001AE0FFF75BFF207000965BF820000023D0
:102B0000012290ED000A03212DE0A8784FF0020188
:102B1000002828460BD0FFF749FF20702846FFF712
:102B200036FF21785AF8210080ED000A29E0FFF7EE
:102B30003DFF207000965AF820000023012290EDFE
:102B4000000A04210FE0A878D8B902212846FFF72F
:102B50002DFF207010990096002351F820000122CB
:102B6000062190ED000A01A800F010F801460A23A2
:102B70001A460548FFF756FD03E088F8000000E01C
:102B80000870002045E700002805002070B54326A6
:102B9000049D0670417010EE104A8270C37005717A
:102BA0004471210A8171210CC171210E01720A2127
:102BB000417270BD10EE103A01704370190A8170B5
:102BC000190CC17010EE902A190E01714271110A90
:102BD0008171110CC171110E01720A21417270478D
:102BE0000D4808B5016841F4001101600068002239
:102BF00000F40010009011460C20FEF7EBFA0C20B8
:102C0000FEF7DAFA002211460E20FEF7E3FABDE8DD
:102C100008400E20FEF7D0BA303802402DE9F04FC0
:102C200087B014216846FDF705FB4248002401687F
:102C300041F010010160016801F010010591016887
:102C400041F004010160016801F00401059101688F
:102C500041F080010160016801F080010591016887
:102C600041F001010160016801F001010591016875
:102C700041F002010160016801F002010591016863
:102C800041F0080101600068DFF8AC8000F0080046
:102C9000059000223D214046FEF79AF8DFF89C900F
:102CA000012205214846FEF793F8002208214846F4
:102CB000FEF78EF8012248F202014046FEF788F83E
:102CC000DFF87CA04FF44066002231465046FEF704
:102CD0007FF8DFF870B04FF4F847002239465846C5
:102CE000FEF776F848F23F0000900125CDE9015447
:102CF000694640460394FDF76BFF0D200090CDE937
:102D00000154694648460394FDF762FF0096CDE9F9
:102D10000154694650460394FDF75AFF0097CDE9E8
:102D20000154694658460394FDF752FF07B0BDE8C9
:102D3000F08F0000303802400010024000080240CE
:102D400000040240000C02400D4810B50B49016020
:102D50000C49416000214FF480428160C0E90312B8
:102D600041618161C1610162FEF73EF8002803D034
:102D7000BDE81040FDF74BBD10BD00000054004001
:102D80004C020020A086010030B591B000240F94C1
:102D90001C2168461094FDF74DFA202107A8FDF785
:102DA00049FA2C482A494FF4FA6502C0032132C07F
:102DB00040F81049446184612648FFF75EF808B185
:102DC000FDF725FD0F940FA922481094FEF716FD7C
:102DD00008B1FDF71CFD60200090CDE9015403947B
:102DE00004940594002269461A480694FEF7DFFF12
:102DF00008B1FDF70CFD042269461648FEF7D7FF1F
:102E000008B1FDF704FD082269461248FEF7CFFF1E
:102E100008B1FDF7FCFC0C2269460E48FEF7C7FF1F
:102E200008B1FDF7F4FC0794089409944FF400509E
:102E30000A94CDE90B4007A906480E94FEF7B4FCAE
:102E400008B1FDF7E4FC0348FEF786FF11B030BD82
:102E500000000140A002002010B58CB0242168467B
:102E6000FDF7E8F90024154809944FF080410A94D1
:102E7000C0E90014611EC0E90241046184610320BD
:102E8000CDE900040120CDE902040F210491CDE930
:102E90000540CDE9074169460848FEF78FFD08B1B6
:102EA000FDF7B5FC099409A904480A94FEF7A6FCAD
:102EB000002801D0FDF7ABFC0CB010BDE8020020EB
:102EC00010B58CB024216846FDF7B4F900241648EB
:102ED000099414490A94C0E900144FF6FF71C0E93F
:102EE0000241046184610320CDE900040120CDE9A1
:102EF00002040F210491CDE90540CDE9074169465F
:102F00000948FEF75BFD08B1FDF781FC099409A9AA
:102F100005480A94FEF772FC002801D0FDF777FC03
:102F20000CB010BD000400403003002010B58CB080
:102F300024216846FDF77EF90024164809941449B7
:102F40000A94C0E90014611EC0E902410461846171
:102F50000320CDE900040120CDE902040F210491F2
:102F6000CDE90540CDE9074169460A48FEF726FD4F
:102F700008B1FDF74CFC099409A906480A94FEF72C
:102F80003DFC002801D0FDF742FC0CB010BD000054
:102F9000000C0040780300201CB500240E4800946B
:102FA0000C4901940160A721C0E901144FF6FF719B
:102FB0008461C160FEF76AFC08B1FDF728FC00944B
:102FC000694605480194FEF719FC002801D0FDF779
:102FD0001EFC1CBD00100040C00300201CB50024D6
:102FE0000E4800940C4901940160A721C0E9011426
:102FF0004CF24F318461C160FEF748FC08B1FDF727
:1030000006FC0094694605480194FEF7F7FB00288A
:1030100001D0FDF7FCFB1CBD00140040080400209B
:1030200010B58CB024216846FDF704F90024174838
:10303000099415490A94C0E900144FF6FF71C0E9DC
:1030400002410461446184610320CDE90004012050
:10305000CDE902040F210491CDE90540CDE90741F6
:1030600069460A48FEF7AAFC08B1FDF7D0FB0994AF
:1030700009A906480A94FEF7C1FB002801D0FDF714
:10308000C6FB0CB010BD000000040140500400203D
:103090000C4810B50A4901604FF4E131416000214C
:1030A00081600C22C160C0E904128161C161FFF737
:1030B000C1F9002803D0BDE81040FDF7A8BB10BD42
:1030C00000100140980400200C4810B50A49016026
:1030D0004FF4E1314160002181600C22C160C0E900
:1030E00004128161C161FFF7A5F9002803D0BDE892
:1030F0001040FDF78CBB10BD00440040E0040020F0
:103100000C4810B50A4901604FF4E13141600021DB
:1031100081600C22C160C0E904128161C161FFF7C6
:1031200089F9002803D0BDE81040FDF770BB10BD41
:103130000048004028050020FEE7FEE72DE9F047A3
:10314000814686B00D46344801F03CFE680800EB2D
:103150004004601C01F0A0FA804600260AE000BF8F
:1031600006EB460101EB080019F806202BA100F040
:10317000FBFC761CB6EB550FF2DB04EB08014FF0BD
:10318000000A81F801A0601C01F086FA07460026BB
:103190000BE000BF06EB550106EB460019F80120D5
:1031A00038441EA100F0E0FC761CB6EB550FF1DBB5
:1031B000E119194881F801A01A4901F0C4FE18214B
:1031C0006846FDF737F82A4617A1684600F0CCFCA0
:1031D0006B4610220021104801F08CFE14A310222F
:1031E00048210D4801F086FE4346262200210A4868
:1031F00001F080FE3B463A220021074801F07AFEAA
:10320000054801F097FE404601F0A4F9384601F068
:10321000A1F906B0BDE8F08728000020253032581B
:103220002C0000009E5B00086C656E3A202564004F
:103230006B64723A00000000014801F0A9BD000073
:10324000280000209FED030A80ED030A80ED040AA8
:103250007047000000000000511A00EE101A90EDB7
:10326000041A234AF8EEC00A90ED000ADFED211A95
:1032700031EE201A20EE200A80ED041A90ED012A8A
:1032800022EE011A11EE101A914203DDC1EE822ADC
:10329000C0ED042A11EE103A17499FED182A8B420F
:1032A00005D9D0ED012A82EE223A80ED043AD0ED24
:1032B000032A90ED023A30EE010A70EEE22AC0EDE8
:1032C000030A63EE222A30EE220A10EE100A904220
:1032D00002DDB0EE610A05E010EE100A884201D965
:1032E000B0EE420ABDEEC00A10EE100A70470000B0
:1032F0000000FA440000FA440000FAC40000FAC4D6
:1033000070477047FDF7FEBE30B593B03021684678
:10331000FCF790FF14210CA8FCF78CFF1D4800253A
:10332000016841F080510160006800F08050119008
:103330001948016841F4804101600068022400F4EA
:103340008040119001200390102004900094069476
:103350000820CDE90750A820CDE9090404200B90EE
:103360006846FEF755F808B172B6FEE70CA90F20C3
:1033700081E831004FF4A0500F904FF4805010902E
:1033800005210CA8FDF758FF002801D072B6FEE712
:1033900013B030BD40380240007000400248016860
:1033A00041F470010160704788ED00E00148FEF7CC
:1033B0003BBC000008040020F0B50268294C2A4DEF
:1033C0002A4E2B4F2B4B4FF0804CA04209D060452A
:1033D00007D0A84205D0B04203D0B84201D09842ED
:1033E00004D122F0700E4A6842EA0E02A0421BD0BD
:1033F000604519D0A84217D0B04215D0B84213D0BA
:10340000984211D01C4DA8420ED01C4DA8420BD0A2
:103410001B4DA84208D01B4DA84205D01A4DA8420A
:1034200002D01A4DA84203D122F44075CA682A433B
:103430004D6922F080022A4302608A68C2620A68EB
:103440008262A04201D0984201D109690163012141
:1034500041610169C90703D0016921F001010161DE
:10346000F0BD0000000001400004004000080040E2
:10347000000C0040000401400040014000440140B5
:103480000048014000180040001C0040002000409F
:1034900010B501F01F030121046A99408C430462B6
:1034A000016A9A401143016210BD0000F0B5036A41
:1034B000026A22F00102026242688469124E24F01C
:1034C00073050C682C4323F002058B682B430D4DCC
:1034D000A84201D0B04205D123F00807CB683B4396
:1034E00023F00403A84201D0B04205D14D6922F473
:1034F000407215438A692A43426084614968416386
:103500000362F0BD0000014000040140F0B5026A12
:10351000036A23F010030362436884690D6824F48E
:10352000E64444EA05248D6822F0200242EA0512AE
:103530000F4D104EA84201D0B04206D1CF6822F004
:10354000800242EA071222F04002A84201D0B042B3
:1035500007D14D6923F4406343EA85038D6943EA4B
:10356000850343608461496881630262F0BD0000A5
:103570000000014000040140F0B5026A036A23F430
:10358000807303624368C46922F4007224F07305F7
:103590000C68124E2C438D6842EA05220E4DA8425B
:1035A00001D0B04206D1CF6822F4006242EA07227D
:1035B00022F48062A84201D0B04207D14D6923F4C1
:1035C000405343EA05138D6943EA05134360C46120
:1035D0004968C1630262F0BD00000140000401407F
:1035E00030B5046A026A22F4805202624268C369FA
:1035F0000D6823F4E64343EA05238D6824F4005460
:1036000044EA0534084DA84202D0084DA84204D12E
:103610004D6922F4804242EA85124260C3614968E2
:103620000164046230BD000000000140000401405C
:103630000D4900220B685A620A68136843F00103BF
:10364000136009684A6A8242FCD3086A41F2111287
:10365000104207D1086A9210104203D1086820F086
:103660000100086070470000C003002010B5806BA7
:103670000021C185C184FEF7A3FD10BD70B5846B28
:103680002068406994F84110C0F3C010002521293A
:1036900004D118B1E584204600F08EF82068406916
:1036A00094F84210C0F38010222904D118B1E585A6
:1036B000204600F05AF8606C40F01000606420462C
:1036C000FEF77EFD70BD10B50146806B0968096884
:1036D0004FF00002C9052ED4C28501680C3151E8B3
:1036E000003F23F4807341E80034002CF5D10168D9
:1036F000143151E8003F23F0010341E80034002C6D
:10370000F5D10168143151E8003F23F0400341E84E
:103710000034002CF5D1202180F84210016B0129E2
:1037200009D101680C3151E8003F23F0100341E852
:103730000034002CF5D14263016B012902D0FEF761
:103740006FFF10BD818DFEF702FD10BD10B5806BBF
:1037500001214163016B012902D0FEF762FF10BD18
:10376000818D4908FEF7F3FC10BD01680C3151E86A
:10377000002F22F4907241E80023002BF5D101685C
:10378000143151E8002F22F0010241E80023002B00
:10379000F5D1016B012909D101680C3151E8002FE5
:1037A00022F0100241E80023002BF5D1202180F8FF
:1037B000421000210163704701680C3151E8002F6D
:1037C00022F0C00241E80023002BF5D1202180F82F
:1037D0004110704708B590F84210222901D002200C
:1037E00008BD82684FF480539A4201D1016921B12A
:1037F000816A9A421BD04AB10AE00268816A526823
:10380000C2F308020A80816A891C08E0026972B169
:103810000268526802F07F020A70816A491C816264
:10382000C18D491E0904090CC18503D01BE0026843
:103830005268F1E70168CA6822F02002CA60016894
:10384000CA6822F48072CA6001684A6922F00102E3
:103850004A61202180F8421000214163026B012A55
:1038600003D0FEF7DDFE002008BD016301680C31C6
:1038700051E8002F22F0100241E80023002BF5D17F
:1038800001680A68D20602D50A6849680091818DEC
:10389000FEF75DFCE7E7000070B5044600680169CB
:1038A000E26821F44051114301612169A068E26995
:1038B00008436169114308432168CA6849F20C63EF
:1038C0009A430243CA6020684169A26921F44071A9
:1038D0001143416131492068884202D03049884211
:1038E00002D1FDF753FD01E0FDF740FDE269002341
:1038F000192164253226B2F5004F626828D0A0FB5A
:103900000101930F9200FCF75DFC0146B0FBF5F05E
:103910006FF01802504301EB800006EB0010B0FB83
:10392000F5F000F0F002B1FBF5F002EB0012B1FB94
:10393000F5F06FF01803584301EB800006EB001020
:10394000B0FBF5F000F00F0021681044886070BDF6
:10395000A0FB010192185B41FCF734FC0146B0FB6F
:10396000F5F00201B1FBF5F06FF01803584301EBDD
:10397000800006EBC000B0FBF5F000F0F80002EBB1
:103980004002B1FBF5F0584301EB800006EBC000AC
:10399000B0FBF5F000F00700D6E700000010014092
:1039A0000014014038B58162044682850020134628
:1039B0006064222284F84220E56B1B4AEA63E56BCF
:1039C0001A4A2A64E56B1A4AEA64E26B10650A46F1
:1039D0002168E06B091DFDF7B1F8206801684068B7
:1039E0000090206948B120680C3050E8001F41F475
:1039F000807140E80012002AF5D12068143050E8A8
:103A0000001F41F0010140E80012002AF5D12068B2
:103A1000143050E8001F41F0400140E80012002A35
:103A2000F5D1002038BD0000C73600084D3700082A
:103A30007D3600082DE9F843984617460D460446A2
:103A4000089E24E0701C22D0FDF7C8F9A0EB080006
:103A5000B0421AD8CEB12068C168490717D5802D69
:103A600015D0402D13D00168C94309070FD4016850
:103A70000025406800902046FFF777FE082060642C
:103A800084F840500120BDE8F8830320FBE720685C
:103A9000006835EA000004D00020B842D2D00020EF
:103AA000F1E70120F9E7000010B50348FEF78AFBB3
:103AB000BDE8104000F002B82805002038B51748CE
:103AC00000680168C943C90626D40168002540681A
:103AD00000901248FEF73CFB1048483000684068F0
:103AE0004FF40041C0F10A00C4B20D48FDF768F977
:103AF00021460C48FFF722FB0A4800F0C3FE0948A4
:103B0000084922380A2240F8225F45600581BDE855
:103B100038400248FEF776BD38BD00002805002079
:103B2000001002403A060020FEE700000FB40246F3
:103B300010B504A9034B039800F00CF910BC5DF814
:103B400014FB00003D4500080FB4054B10B503A958
:103B5000044A029800F0FEF810BC5DF814FB000067
:103B60003D4500081C0000200FB4084B10B504A907
:103B700002AA039800F0EEF8044602A9002000F023
:103B80006CFC204610BC5DF814FB00005B44000890
:103B90000907090E002804DB00F1E02080F800147A
:103BA000704700F00F0000F1E02080F8141D70470E
:103BB00002E008C8121F08C1002AFAD170477047F6
:103BC000002001E001C1121F002AFBD17047000054
:103BD0002DE9FF5F82B00021DDE90430020DDDF840
:103BE00040B0034318D044F61050A2F2FF324243D3
:103BF0001514119801281FD0A5EB0B00401C5FEA9B
:103C0000000A4FF000064E4FDFF83891B04650469C
:103C100015D5CAF1000413E0119801244AA3012824
:103C200001D16FEA0B010298119AC0E90031C0E995
:103C3000024206B0BDE8F09FCBF10000DFE704468A
:103C40000021404A491842EB0450CDE9001012E02F
:103C5000E00707D032463B4640464946FCF79CFB0E
:103C60008046894632463B4610461946FCF794FB8F
:103C700006460F466410002CEAD1DDE90401DDE9B7
:103C80000023BAF1000F06DAFCF786FB42464B46EA
:103C9000FCF782FB05E0FCF7F1FB42464B46FCF7E4
:103CA000EDFB04460E460022284BFCF725FD03D809
:103CB0004FF0FF30014607E00022254B20463146F9
:103CC000FCF7C3FAFCF700FD102409E0002C0ADB26
:103CD0000A220023FCF776FA039B30321A55641E41
:103CE00050EA0102F2D1641C039AC4F11103144496
:103CF000119A012A03D0012208430DD10AE008439A
:103D000004D000204FF0110B119072E7A3EB0B05CC
:103D10006D1E0DE05B4504DD4FF0000205F101056D
:103D200004E003DA4FF00002A5F10105002AECD00F
:103D300002981199C0E90231C0E9004579E7000015
:103D4000000014400000F03F300000000000F0438D
:103D50000000E03F2DE9FF4F95B09A4688460646A1
:103D60000025EEE1252877D100242746F94A0121D4
:103D7000039400E0044316F8013F203B01FA03F0EE
:103D80001042F7D130782A2811D06FF02F03307805
:103D9000A0F13002092A16D8039A44F0020402EB7B
:103DA000820203EB42021044761C0390EFE758F8BE
:103DB000042B0392002A03DA504244F40054039087
:103DC00044F00204761C30782E2816D116F8010F24
:103DD00044F004042A280DD06FF02F023078A0F1AF
:103DE0003003092B09D807EB870302EB4303C718FD
:103DF000761CF3E758F8047B761C30786C280FD0DB
:103E000006DC4C2817D068280DD06A2814D104E0AD
:103E1000742810D07A280FD10DE044F400140AE081
:103E200044F4801401E044F440147278824202D1D8
:103E300004F58014761C761C307866280BD013DCD1
:103E4000582877D009DC002875D04528F6D04628B8
:103E5000F4D047281AD193E118E0632835D06428BC
:103E600079D0652812D18BE1702873D008DC6728DF
:103E7000F1D069286FD06E280DD06F2806D1ACE044
:103E800073282CD0752874D0782853D052461799AF
:103E900090476D1C54E1C4F30250022809D0032856
:103EA0000DD0D8F8001004280DD00D6008F10408DA
:103EB00046E1D8F80010EA17C1E90052F6E7D8F851
:103EC00000100D80F2E70D70F0E718F8041B8DF874
:103ED000001000208DF80100EB46012003E058F8A7
:103EE00004BB4FF0FF3061074FF0000102D40DE03A
:103EF00009F101018946B9420FDA8145F8DB1BF867
:103F000009100029F4D108E009F101018946814234
:103F1000FADB1BF809100029F6D103985346A0EBF1
:103F2000090721463846179A00F080FA284400EB2A
:103F3000090507E044E008E10DE01BF8010B5246DB
:103F400017999047B9F10109F7D2534621463846EF
:103F5000179AF2E039E00A21C4F302524FF0000B45
:103F60000091022A06D058F8040BC117032A09D081
:103F70000AE023E008F1070020F00702F2E802015E
:103F8000904605E000B2C117042A01D140B2C11722
:103F9000002906DA0A460021404261EB02012D2287
:103FA00002E0220504D52B228DF80420012203E033
:103FB000E20701D02022F7E7914657E00A2100E00E
:103FC00010214FF0000B00910BE010214FF0000B7F
:103FD00044F004040827009103E008204FF0000B90
:103FE0000090C4F30252022A05D058F8040B0021B5
:103FF000032A08D008E008F1070020F00702F2E8E1
:104000000201904603E080B2042A00D1C0B24FF012
:10401000000922072AD53278702A07D0DDF800C0BF
:104020008CF0100C5CEA0B0C05D00EE040228DF8F1
:104030000420012208E050EA010306D030238DF865
:1040400004308DF8052002229146009B83F008037E
:1040500053EA0B030AD150EA010201D1620705D5E8
:1040600030228DF804204FF001097F1E3278582A43
:1040700004D039A20C920CAA02920BE03BA2F9E701
:104080005B46009AFCF79EF80C9B9B5C029A521EC2
:104090000292137050EA0102F2D1029804A9081AA0
:1040A00000F1200B600702D524F4803400E00127E2
:1040B0005F4502DDA7EB0B0000E0002000EB0B01E9
:1040C000009003984944401A0390E00306D45346F5
:1040D0002146179A039800F0A9F90544002706E045
:1040E00001A85246C05D179990476D1C7F1C4F4533
:1040F000F6DBE0030CD553462146179A039800F0EF
:1041000095F9054404E030205246179990476D1CFC
:104110000099481E00900029F5DC08E002980299F9
:1041200052460078491C0291179990476D1CBBF1CB
:104130000001ABF1010BF1DC5BE100F065F9054436
:10414000761C307800287FF40DAE19B02846BDE803
:10415000F08F000009280100303132333435363712
:1041600038396162636465660000000030313233C3
:104170003435363738394142434445460000000063
:10418000600700D4062708F1070020F00700F0E8D8
:104190000223804603F0004C5FEA0C0001D097A098
:1041A00009E0200501D596A005E0E00701D095A023
:1041B00001E0AFF24C001390307823F00043652803
:1041C0000CD006DC452809D046281DD047287FD1D1
:1041D0003BE0662818D067287AD136E00021112FFD
:1041E00001DB112000E0781CCDE9000104A90CA836
:1041F000FFF7EEFCDDE90D010C9A4FF0000B07F123
:104200000109109200914EE04FF000400097CDE977
:10421000011004A90CA8FFF7DBFCDDE90D020C9BE3
:104220000F994FF0000B91461093009211B9791C31
:1042300000EB0109B7EB090003D4C0F1FF3B07F124
:104240000109A9EB0700019042E0012F00DA0127E4
:104250000021112F01DD112000E03846CDE90001D9
:1042600004A90CA8FFF7B4FCDDE90D010C9A00913C
:104270004FF0000BB946109221070FD4009A4A451F
:1042800003DA914601E0A9F10109B9F1010F05DD59
:10429000109AA9F10101515C3029F4D0B84202DA38
:1042A00010F1040F03DA0121CDE9011010E000281C
:1042B00003DC8344A9EB000102E0411C494500DD19
:1042C0008946A0EB0B00401C01904FF0004002908B
:1042D000200705D40198484502DB4FF0FF300190DC
:1042E00000208DF84B0002980DF14B07B0F1004F04
:1042F00025D002200C902B200D90029800280CDA7B
:10430000404202902D200D9007E00A210298FCF710
:1043100037F93031029007F8011D0C99481E0C90B6
:104320000029F2DC02980028EFD1791E0D98087060
:10433000307800F0200040F0450007F8020D11A889
:10434000C01BC01D02901398007800B1012000EB43
:104350000901019801EBE071029801440398401AA9
:10436000401E0390E00306D453462146179A039853
:1043700000F05CF805441398007818B1524617997C
:1043800090476D1CE00323D553462146179A0398A6
:1043900000F04CF805441BE0BBF1000F07DB009870
:1043A000584504DD1098179910F80B0001E0179993
:1043B00030205246904701980BF1010B401E05F149
:1043C0000105019004D12E205246179990476D1C8B
:1043D000B9F10001A9F10109DEDC05E017F8010BD4
:1043E0005246179990476D1C0299481E0290002969
:1043F000F4DC53462146179A03989EE62D000000F0
:104400002B000000200000002DE9F04104460025AB
:104410001E461746880404D405E039462020B047DC
:104420006D1C641EF9D52846BDE8F0812DE9F041E8
:10443000044600251E469046C80301D5302700E0FB
:104440002027880404D505E041463846B0476D1C56
:10445000641EF9D52846BDE8F0810A68531C0B603C
:10446000107070472DE9F05F304C04F12C08B4F85F
:10447000401029B9B4F8420010B94046FEF7E2FEF8
:104480002B4D05F12C09B5F8401029B9B5F84200BB
:1044900010B94846FEF7D6FE264E06F12C0AB6F8AD
:1044A000401029B9B6F8420010B95046FEF7CAFECE
:1044B000214F07F12C0BB7F8401029B9B7F842008B
:1044C00010B95846FEF7BEFE34F9402F4046B4F905
:1044D0000210FEF7C1FE35F9402F04B2B5F9021003
:1044E0004846FEF7B9FE36F9402F05B2B6F902107C
:1044F0005046FEF7B1FE37F9402F06B2B7F9021069
:104500005846FEF7A9FE07B22146084800F02EFCE7
:104510002946074800F02AFC3146064800F026FCF0
:104520003946BDE8F05F044800F020BC3C010020A3
:1045300080010020C40100200802002013B54FF4C0
:104540007A73012269460248FEF76CF800981CBD98
:104550009804002010B5002821D0114B0022001F24
:10456000196803E0814203D80A4649680029F9D155
:1045700052B11368841A9C4204D100681844106038
:10458000104602E0506000E0186039B102680B1A72
:10459000934203D10B681A4402604968416010BD20
:1045A0002000002008B5FCF7B5FD6420FCF7FEFAFA
:1045B000FEF7AAFEFEF732FBFEF712FBFEF7E4FB66
:1045C000FEF74AFCFEF77CFCFEF7B0FCFEF7BCFBF6
:1045D000FEF75EFDFEF7E0FCFEF722FDFEF790FD24
:1045E000FEF7FCFCFEF770FD01F0A8FAFEF724FED2
:1045F00000F0AAF800F086F816480090842316A26E
:104600001AA12348FFF792FA0024224F25464FF4BF
:1046100000666422002320462946FBF7D3FD1A4397
:1046200003D131463846FCF7CBFB05220023204658
:104630002946FBF7C7FD82F00300184303D1FFF7BB
:1046400011FF00F075FA0A20FCF7B0FA641C45F17E
:104650000005DEE7795B00082E2E2F436F72652F71
:104660005372632F6D61696E2E6300005B25733A90
:1046700025645D5B25735D206C6974746C652074C2
:10468000757475207374617274210D0A0A0000003C
:104690001C000020000C0240F0B50B30154D20F03E
:1046A00007010024144A0FE003688B420BD38B42AE
:1046B00005D95E1A43184768C3E9006700E04368FC
:1046C000136002C004E0021D10680028ECD12046EF
:1046D000002802D1286808B10020F0BD064A07482A
:1046E0001060074A121A22F00702C0E900240120D4
:1046F0002860D7E724000020200000204C0A00207A
:10470000480C00200E4810B5C0690421FDF744FA9A
:104710000B4804214430C069FDF73EFA08480421E3
:104720008830C069FDF738FA05480421CC30C069EB
:10473000FDF732FABDE810400248FDF7FFB800006F
:104740003C010020080400202DE9F041424F0021E7
:10475000424A397079707A600425BA60BD810823B5
:104760003F4807F11408FB813E4C88E8130007F12D
:10477000440401262670B7EE000A87ED0B0A667026
:104780006260A2601022A2812022E281364A60612A
:10479000C4E9065204F1440502222A706A70334AC1
:1047A0006A609614AA60AE819E02EE81C5E9050397
:1047B0002F4BEB6104F18806032333707370726032
:1047C000B2604FF48042B2811211F2810C22C6E92C
:1047D0000502284AF261FDF793FBD4E90501FDF7D4
:1047E0008FFBD5E90501FDF78BFBD6E90501FDF748
:1047F00087FB9FED211AB5EE000A87ED0B1A87EDB6
:104800000C0ADFED1E0A9FED1E0AC7ED0D0A87EDAB
:104810000E0A87ED0F0A84ED0B1AC4ED0C0AC4EDE5
:104820000D0A84ED0E0A84ED0F0A85ED0B1AC5ED15
:104830000C0AC5ED0D0A85ED0E0A85ED0F0A86ED11
:104840000B1AC6ED0C0AC6ED0D0A86ED0E0A86EDB2
:104850000F0ABDE8F08100003C010020001002407A
:10486000A002002078030020E8020020000C024093
:1048700030030020500400209A99993ECDCC4C3E44
:10488000000000002DE9F04FC1B0A84C07900020B7
:104890008DF8200094ED0B0A04F144058DED200AFB
:1048A00095ED0B0A04F188068DED210A96ED0B0AB1
:1048B00004F1CC078DED220A97ED0B0A0DF1880C5F
:1048C0008DED230A94ED0C0A0DF198098DED240A63
:1048D00095ED0C0A0DF180088DED250A96ED0C0A78
:1048E00021AA8DED260A97ED0C0A23AB8DED270A40
:1048F00094ED0D0A0DF1900A8DED280A95ED0D0A43
:1049000027A98DED290A96ED0D0A8DED2A0A97ED5E
:104910000D0A8DED2B0AB4F9400000EE100AB8EE36
:10492000C00A8DED2C0AB5F9400000EE100AB8EE71
:10493000C00A8DED2D0AB6F9400000EE100AB8EE5F
:10494000C00A8DED2E0AB7F9400000EE100AB8EE4D
:10495000C00A8DED2F0AB4F9420000EE100AB8EE3D
:10496000C00A8DED300AB5F9420000EE100AB8EE2B
:10497000C00A8DED310AB6F9420000EE100AB8EE19
:10498000C00A8DED320AB7F9420000EE100AB8EE07
:10499000C00A8DED330ACDF8FCC00DF1940CCDF8B2
:1049A000EC90CDE939AC0DF1AC0C0DF1B00BCDF8BC
:1049B000E0C0CDF810B00DF1A00A0DF1A409CDE9C9
:1049C00035A90DF1B809CDF818900DF1BC0ACDF854
:1049D000D0A00DF1C00B0DF1C40C0DF1C8090DF103
:1049E000CC0ACDE9029ACDE900BCDDF8FCC0CDE9E6
:1049F0000982CDE90BC339AA2AA892E80016CDE9AD
:104A00000FC1CDE90D9ADDE935A9CDE91290CDF8B8
:104A100044A0DDF8E0C0DDF8D0A0CDF850C0DDF84E
:104A20001890DDF810B0CDE9179A0DF1B40ECDE96C
:104A300015BE9DE8001E1EA8C11ECDE904101FAAC8
:104A400006921DAB11AA0393009219A815A9CDE9EE
:104A5000011019A90DAB81E8001E09AA08A92C3480
:104A60002C352C362C370798FDF7C4FF159890EDA0
:104A7000000ABDEEC00A10EE100AA082169890ED52
:104A8000000ABDEEC00A10EE100AA882179890ED39
:104A9000000ABDEEC00A10EE100AB082189890ED20
:104AA000000ABDEEC00A10EE100AB882099890ED17
:104AB000000A84ED000A0A9890ED000A85ED000ACC
:104AC0000B9890ED000A86ED000A0C9890ED000A14
:104AD00087ED000A0D9890ED000A84ED010A0E980A
:104AE00090ED000A85ED010A0F9890ED000A86ED21
:104AF000010A109890ED000A87ED010A119890EDD7
:104B0000000A84ED020A129890ED000A85ED020A6F
:104B1000139890ED000A86ED020A149890ED000AB1
:104B200087ED020A41B0BDE8F08F00003C01002093
:104B300010B53A4C92B0A06A2034FBF70EFDCDE9D7
:104B400004013748217862688DE8070040F20313BA
:104B500034A239A14448FEF7E9FFA4F1640030F91A
:104B6000401F00EE101AB0F902003021F8EEC00A22
:104B700000EE100A06A8B8EEC00AFEF71BF80146C0
:104B80000A231A463948FDF74DFDB4F920003121BA
:104B900000EE100AB4F92200F8EEC00A00EE100A86
:104BA00009A8B8EEC00AFEF705F801460A231A461E
:104BB0002E48FDF737FD04F1240030F9401F00EEC8
:104BC000101AB0F902003221F8EEC00A00EE100A05
:104BD0000CA8B8EEC00AFDF7EDFF01460A231A46FD
:104BE0002248FDF71FFD04F1680030F9401F00EE78
:104BF000101AB0F902003321F8EEC00A00EE100AD4
:104C00000FA8B8EEC00AFDF7D5FF01460A231A46E1
:104C10001648FDF707FD12B010BD0000800100200E
:104C20006A5B00082E2E5C436F72655C5372635C96
:104C30006D6F746F722E63005B25733A25645D5B44
:104C400025735D204D4132206469723A2025642C21
:104C5000207261773A2025642C2063616C3A20250C
:104C60002E32660D0A0A00001C00002028050020D4
:104C700070B50546012902D0022905D102E00122C2
:104C8000002401E000220124286910B110462246C8
:104C90000446A9896868FCF79BF8E9892246A86858
:104CA000BDE87040FCF794B8FEB5054640690C4677
:104CB0000068C66AB1420DD9324610A0FEF744FF23
:104CC0001848F0238DE8510017A21CA12648FEF7D2
:104CD0002DFF3446A86938B1042809D0082868692E
:104CE000006809D00464FEBD686900684463FEBDC5
:104CF000686900688463FEBDC463FEBD7761726E3F
:104D0000696E673A206D6F746F725F7365745F7060
:104D1000776D3A202564206F75746F662025640DC9
:104D20000A0000005C5B00082E2E5C436F72655C1D
:104D30005372635C6D6F746F722E63005B25733A00
:104D400025645D5B25735D206D6F746F725F7365A5
:104D5000745F70776D3A202564206F75746F6620DC
:104D600025640D0A0A0000001C00002070B50C1E0E
:104D7000054604DD0121FFF77BFF214603E0022108
:104D8000FFF776FF61422846BDE87040FFF78CBF11
:104D900010B50446084B094A094900F01DF92046A0
:104DA00000F069FC0021204600F075FC2046BDE8BB
:104DB000104000F007B80000915A00083957000869
:104DC000BC680008016890F83820097C12FB01F1EA
:104DD000C900406BFBF72EBA2DE9F041044690F86C
:104DE00070001F4615460E4630B1012809D0022832
:104DF0000CD0032815D10FE0E16D204688472844E8
:104E000008E0E16D20468847301A09E0E16D204650
:104E10008847281A85B204E0E16D2046884730446F
:104E200086B22846A4F86460A4F8660039460025D6
:104E3000204600F0C7FA010003D0204600F0F2F946
:104E400085B22846BDE8F0813FB581B0044690F8B0
:104E50008C00089900283AD0BDF81000002836D000
:104E6000012811D9022902D0032907D00CE0BDF88E
:104E70000820101A401CADF8080005E0BDF80C2011
:104E8000101A401CADF80C0011F0010521D0B4F847
:104E90004810BDF80800814219D8B4F84A10814280
:104EA00015D9B4F84E30B4F84C2004A90DF10C001B
:104EB00000F02AF900280AD00095206BBDF81030C8
:104EC000BDF80C208568BDF808102046A84705B03D
:104ED00030BDB4F84C10BDF80C008142F7D8B4F8DE
:104EE0004E108142F3D9B4F84A30B4F8482004A9EE
:104EF00002A8DDE730B4024C446030BC00F031B9A8
:104F0000FD56000870B50D461E460446B0F84E101A
:104F1000B0F84C00049B00F0B2FA002809D0B4F8B5
:104F20004A10B4F8480033462A46BDE8704000F005
:104F3000A6BA70BD10B5044600F031FB2046BDE8AE
:104F4000104000F0A0BB10B50446806D884209D027
:104F500004F17400A16500F0EDFA2046BDE81040B0
:104F600000F056B810BD00000149C165704700004F
:104F7000D95100080021A0F85010A0F854104FF6A5
:104F8000FF71A0F85210A0F85610016B496808474D
:104F900070B5044600250498A565E362616384F852
:104FA000382084F8395084F86D5084F8915084F892
:104FB0008D50012184F8921084F8931020630168C9
:104FC000204688472046FFF7D5FF2046FFF7CCFF55
:104FD00084F8705070BD00007CB50C4600931346F9
:104FE0000546084A084900F05EFB01A800F09CFA5B
:104FF0000146064B00949DF804202846FFF7C8FFA1
:105000007CBD0000615800088959000899540008C7
:1050100010B5816D00291AD090F9813080F88E305A
:1050200090F9822080F88F2090F88D1000290ED002
:1050300001290DD090F97E4090F980100C449C42DB
:1050400001DD80F88E408A4201DD80F88F1010BDAE
:1050500090F983108B4201DA80F88E1090F9841059
:10506000F1E72BB1012B05D0022B06D0104402E052
:10507000084400E0801A80B27047401AFBE72BB169
:10508000012B05D0022B06D0401A02E0104400E0AC
:10509000084480B27047801AFBE738B50446B0F880
:1050A00056000090B4F85230B4F85420B4F85010C0
:1050B0002046FFF727FF18B3012084F88C00B4F8CE
:1050C0004810B4F85000814201D2A4F84800B4F866
:1050D0004A10B4F85200814201D9A4F84A00B4F849
:1050E0004C10B4F85400814201D2A4F84C00B4F83A
:1050F0004E10B4F85600814201D9A4F84E0038BDD4
:10510000002084F88C0038BD30B504880D88254413
:10511000ADB2AC4205D99C4202D25D1EADB200E0F8
:1051200014469C4201D2954201D8002030BD9442E1
:1051300000D214469D4200D91D460480281B0880D9
:10514000012030BD38B5C58F049C0094521BC46A41
:1051500092B2A04738BD38B5049C0094FFF7F2FF27
:1051600038BD2DE9F0471C4691468846064600F0BA
:10517000E0FC00254FF6FF777268217830469047B3
:105180000346B84225D0641CA3F57F40FE38F3D017
:105190004A4641463046FFF71FFE96F8701031B17F
:1051A000012907D0022908D003290FD10AE008EB12
:1051B000000104E009EB000106E0A8EB00011FFA82
:1051C00081F803E0A9EB00011FFA81F9284485B2B8
:1051D000D2E72846BDE8F0870020704710B50C469E
:1051E00000F006F80122641EA240801A40B210BDF1
:1051F00030B50568047B2A78E2406318DBB2082BDF
:1052000009D36D1C05602D78C4F10804A540154331
:10521000083BEAB2DBB201248C40641E14400373E5
:10522000204630BD2DE9F843054600F1600400F04A
:105230000CF915F96B6F2046E97BFFF7CFFF81462C
:10524000297C2046FFF7CAFF0746697C20466B3D54
:10525000FFF7C4FF804694F90A00002857DDF019D3
:10526000404247B2237CA0883A464946FFF7F9FE00
:10527000A080237C3A46E0884946FFF700FFE080A3
:10528000A188277C02460B4637B1012F0AD0022F96
:1052900040D0032F0FD146E094F90A7030443B44CC
:1052A0009BB207E0891B491C94F90A705B1C89B208
:1052B0009BB2384480B200902846FFF723FE30B3FB
:1052C0000020207284F8090095F876102046FFF738
:1052D0008FFF814695F877102046FFF789FF074634
:1052E00000224946284600F027F801223946284680
:1052F00000F022F801212046FFF77AFF0028EFD1C5
:1053000094F90900B042DFDBA07B85F892004046AB
:10531000BDE8F88394F90A705B1CC91B491C89B26B
:105320009BB2921B04E094F90A7033449BB2D21BE7
:10533000521C92B2401CBDE72DE9F74F84B00D46D8
:10534000049C94F8687094F869806034A07AC01B5B
:10535000C6B20196B54200D201954FFA88F279B2F1
:10536000A088B4F806B0237C92468946FFF779FE00
:105370000290237C524649465846FFF780FE02467B
:10538000069808B1A17B02E0607B50B9E17B0498EC
:1053900080F89210207C0090DDE901310498FFF73D
:1053A00053FDB54207D3A81BC5B208F10100002781
:1053B00000F0FF08CAE77819207284F8098007B066
:1053C000BDE8F08F70B50D460146806D1730FF2D9A
:1053D00010D8612D02D3B1F8881003E0412D02D31B
:1053E000B1F886100844417819B30278AA42F9D17D
:1053F000801C70BDB1F88A100C182646002130467A
:1054000000F019F804440221304600F014F8361D6B
:10541000A842F3D34FF6FF72207802EA00216078A9
:10542000084306D0A84201D1E01C70BDA078044416
:10543000F2E7002070BD08444FF6FF720178407813
:1054400002EA0121084480B2704730B5054600F1F8
:10545000600401660020207315F8781F2046FFF7CE
:10546000C7FEA07269782046FFF7C2FEE072A87EF0
:10547000A07310B10020E07330BD0120FBE78A4229
:1054800005D2834201D89A4203D901207047834252
:10549000F9D8002070470000F0B502F0070601249B
:1054A000B440002590F892E0E7B2DDF814C02C4635
:1054B000BEF1010F01D83D4600D03C46076822F0FE
:1054C0000702BCF1000F3F7C07FB02F7BAB2476B43
:1054D0003A44114409D108785B1E284360401B04FC
:1054E00001F8010B1B0CF6D1F0BD0A78761C2A439B
:1054F0006240A3F101030A7016F007069BB206D0C2
:105500006A06150E6206140E002BEED1F0BD428F16
:10551000114490F89220012A03D800BF4FF00105F2
:10552000F2D04FF00104EFE7082101700048704706
:105530004406002070B505460878287048786870E1
:105540008878A870C878E8700879287148796871F7
:1055500088790C46A871E079E871207A2872607A1F
:105560006872A07AA872E07AE872207B2873607B68
:105570006873A07BA873E07BE873207C28741121FA
:105580002046FFF758FF688213212046FFF753FF9C
:10559000A88215212046FFF74EFFE88270BD2DE955
:1055A000F843064690F8387090F8395000680024A7
:1055B0004FF6FF7890F81190316830462A460B7C00
:1055C000716B04FB03FC1FFA8CFC08EACC0C6144F1
:1055D0000091002100F040F8641C6D1CE4B2EDB2B3
:1055E000BC4201D24D45E7D3BDE8F883F0B590F851
:1055F00038204FF6FF75036805EAC2018187197CE0
:1056000005EAC101418790F8394005EAC401C18724
:105610005E7CA718B74201D9321B92B205EAC202DA
:1056200020F8401F11444180998A8180D98AC18025
:10563000F0BDFFF7DBBF0021A0F84810B0F8441020
:10564000A0F84A10B0F84010A0F84C10B0F8421082
:10565000A0F84E10FFF721BD1CB58DF805108DF890
:105660000620049C8DF804300094012284686B4667
:105670000F21A0471CBD30B484680023A44630BC71
:105680001A460A21604730B484680023A44630BC1F
:105690001A461021604730B484680023A4460A46A5
:1056A00030BC0B2160472DE9F04115460E460446FB
:1056B000069F00F009F86761A660C4E9035320461D
:1056C000BDE8F04100F012B8002140F8081B064A7E
:1056D000026042608260C260C17681770161FF2111
:1056E000017780F8201070478D5A000830B4846824
:1056F0000023A44630BC1A4609216047080001D0A7
:105700000A2801D14FF6FF70704730B404690023B6
:10571000A44630BC1A461921604713B5012204691A
:1057200001AB1721A0471CBD30B404690023A44677
:1057300030BC1A461821604738B5184818290DD0D2
:1057400004DC142907D0172923D10AE0192916D01F
:1057500020291ED11FE0FDF7F7FA1CE0002101709F
:1057600019E00F4C08E000BF017813F8015B6554A5
:10577000491C521E0170D2B2002AF5D10BE04FF441
:105780007A7100910378064A78210648FBF7F0FB0E
:1057900008B1002038BD012038BD00000000002005
:1057A000BC0000204C02002030B4C4680023A44692
:1057B00030BC1A461921604730B4C4680023A4469F
:1057C0000A4630BC1621604730B4C4680023A446A2
:1057D0000A4630BC1521604730B4C4681346A4465D
:1057E0000A4630BC17216047F8B50C464FEA000561
:1057F00014F8011B182924D00EDC152919D01629FC
:1058000017D0172923D120788DF800006A4601218E
:105810002846FFF7E1FF0AE0192912D0FE2916D128
:1058200022788DF800202921284600F066F9641CB2
:10583000DEE722788DF80020EE6800232846B04786
:10584000F5E70023EE681A462846B047D0E7F8BDD2
:1058500030B4C4680023A44630BC1A4618216047FF
:105860002DE9F041DFF8B08014460646A1F114029C
:10587000002798F800001D46062A4AD2DFE802F009
:105880002F03161B3E4310B13046FFF73EFF304654
:10589000FFF74AFF00213046FFF73FFF2146304621
:1058A000FFF73BFF012088F8000029E02146304641
:1058B000FFF733FF24E050B13046FFF726FF06E044
:1058C0001821304600F01FF9183CE4B21835182CA6
:1058D0002A46F5D82146304600F015F90EE096F834
:1058E0002400FF2802D1782086F8240037692B464F
:1058F00022463046BC46BDE8F041604788F800705B
:105900000120BDE8F0810028F8D03046FFF7FDFE09
:10591000F4E70020F5E700001400002070B5002334
:10592000456904461A462821A8470023E5681A4617
:1059300014212046A84701224B21204600F0DDF823
:10594000206829210279204600F0D7F800224B2157
:10595000204600F0D2F8206829210279204600F084
:10596000CCF801224B21204600F0C7F820682921FD
:1059700042792046BDE8704000F0BFB80160897CE4
:1059800080F822107047000070B50C46054600F004
:1059900019F888B9092C0BD00A2C01D0002070BD51
:1059A0002846FFF7BBFF05492846FFF71DFF03E028
:1059B00003492846FFF7E2FF012070BDEE680008AA
:1059C000F06900082DE9F0411E46144605460B29F2
:1059D00008D00D290ED00E291ED00F2927D0002067
:1059E000BDE8F0811AB12849FFF7FEFE4AE02649DA
:1059F000491FF9E74AB124490C31FFF7F5FE286841
:105A000090F8130085F822003CE01F49491DFFF77C
:105A1000EBFE2868807CF5E7FFF71AFF8121284616
:105A2000FFF7D2FE21462846FFF7C6FE27E0FFF724
:105A30000FFF707995F8221001EBC000C7B240212A
:105A40002846FFF7C1FE102040EA17112846FFF74D
:105A5000BBFE07F00F012846FFF7AEFEB07940F01D
:105A6000B0012846FFF7A8FE30793268C006010E63
:105A70002846FFF7B1FE641E14F0FF04F4D1284657
:105A8000FFF792FE0120ABE7CD68000800207047C9
:105A900010B54D2919D00CDC2B2918D004DC29298C
:105AA00020D02A290ED114E02D291FD04C2909D14C
:105AB0000BE0002250291DD051291BD0522919D0AA
:105AC000532917D0012180F82710012010BD00BFF5
:105AD000FBE700204FF4A07100BF401C80B2884259
